{
  "_format": "hh3-artifact-1",
  "contractName": "VoucherProtocol",
  "sourceName": "contracts/VoucherProtocol.sol",
  "abi": [
    {
      "inputs": [],
      "stateMutability": "nonpayable",
      "type": "constructor"
    },
    {
      "inputs": [],
      "name": "AccessControlBadConfirmation",
      "type": "error"
    },
    {
      "inputs": [
        {
          "internalType": "address",
          "name": "account",
          "type": "address"
        },
        {
          "internalType": "bytes32",
          "name": "neededRole",
          "type": "bytes32"
        }
      ],
      "name": "AccessControlUnauthorizedAccount",
      "type": "error"
    },
    {
      "inputs": [],
      "name": "AlreadyCoSigned",
      "type": "error"
    },
    {
      "inputs": [],
      "name": "CannotSlashYourself",
      "type": "error"
    },
    {
      "inputs": [],
      "name": "CoSignerNotWhitelisted",
      "type": "error"
    },
    {
      "inputs": [],
      "name": "DocumentAlreadyExists",
      "type": "error"
    },
    {
      "inputs": [],
      "name": "DocumentAlreadyRevoked",
      "type": "error"
    },
    {
      "inputs": [],
      "name": "DocumentNotFound",
      "type": "error"
    },
    {
      "inputs": [],
      "name": "DocumentNotValid",
      "type": "error"
    },
    {
      "inputs": [],
      "name": "ECDSAInvalidSignature",
      "type": "error"
    },
    {
      "inputs": [
        {
          "internalType": "uint256",
          "name": "length",
          "type": "uint256"
        }
      ],
      "name": "ECDSAInvalidSignatureLength",
      "type": "error"
    },
    {
      "inputs": [
        {
          "internalType": "bytes32",
          "name": "s",
          "type": "bytes32"
        }
      ],
      "name": "ECDSAInvalidSignatureS",
      "type": "error"
    },
    {
      "inputs": [],
      "name": "EthTransferFailed",
      "type": "error"
    },
    {
      "inputs": [],
      "name": "ExpiredSignature",
      "type": "error"
    },
    {
      "inputs": [
        {
          "internalType": "uint256",
          "name": "currentStake",
          "type": "uint256"
        },
        {
          "internalType": "uint256",
          "name": "requiredStake",
          "type": "uint256"
        }
      ],
      "name": "InsufficientCoSignStake",
      "type": "error"
    },
    {
      "inputs": [
        {
          "internalType": "uint256",
          "name": "sent",
          "type": "uint256"
        },
        {
          "internalType": "uint256",
          "name": "required",
          "type": "uint256"
        }
      ],
      "name": "InsufficientStake",
      "type": "error"
    },
    {
      "inputs": [],
      "name": "InvalidCoSignPolicy",
      "type": "error"
    },
    {
      "inputs": [],
      "name": "InvalidCoSignRole",
      "type": "error"
    },
    {
      "inputs": [],
      "name": "InvalidConfigValue",
      "type": "error"
    },
    {
      "inputs": [
        {
          "internalType": "uint16",
          "name": "provided",
          "type": "uint16"
        }
      ],
      "name": "InvalidPenaltyBps",
      "type": "error"
    },
    {
      "inputs": [],
      "name": "InvalidRecoveryTarget",
      "type": "error"
    },
    {
      "inputs": [],
      "name": "InvalidSignature",
      "type": "error"
    },
    {
      "inputs": [],
      "name": "InvalidTenantAddress",
      "type": "error"
    },
    {
      "inputs": [],
      "name": "NoPendingUnstake",
      "type": "error"
    },
    {
      "inputs": [],
      "name": "NoStake",
      "type": "error"
    },
    {
      "inputs": [],
      "name": "NoStakeToRecover",
      "type": "error"
    },
    {
      "inputs": [],
      "name": "OperatorAlreadyActive",
      "type": "error"
    },
    {
      "inputs": [],
      "name": "OperatorNotActive",
      "type": "error"
    },
    {
      "inputs": [],
      "name": "OperatorNotInTenant",
      "type": "error"
    },
    {
      "inputs": [],
      "name": "OperatorNotLost",
      "type": "error"
    },
    {
      "inputs": [
        {
          "internalType": "bytes32",
          "name": "violationCode",
          "type": "bytes32"
        }
      ],
      "name": "PenaltyNotConfigured",
      "type": "error"
    },
    {
      "inputs": [],
      "name": "ProtocolAdminCannotHaveOtherRoles",
      "type": "error"
    },
    {
      "inputs": [],
      "name": "RecoveryNotAllowed",
      "type": "error"
    },
    {
      "inputs": [],
      "name": "ReentrancyGuardReentrantCall",
      "type": "error"
    },
    {
      "inputs": [],
      "name": "TenantAlreadyExists",
      "type": "error"
    },
    {
      "inputs": [],
      "name": "TenantInactive",
      "type": "error"
    },
    {
      "inputs": [],
      "name": "TenantNotFound",
      "type": "error"
    },
    {
      "inputs": [],
      "name": "Unauthorized",
      "type": "error"
    },
    {
      "inputs": [],
      "name": "UnstakeInProgress",
      "type": "error"
    },
    {
      "inputs": [
        {
          "internalType": "uint256",
          "name": "readyAt",
          "type": "uint256"
        }
      ],
      "name": "UnstakeNotReady",
      "type": "error"
    },
    {
      "anonymous": false,
      "inputs": [
        {
          "indexed": true,
          "internalType": "bytes32",
          "name": "tenantId",
          "type": "bytes32"
        },
        {
          "indexed": true,
          "internalType": "uint32",
          "name": "docType",
          "type": "uint32"
        },
        {
          "indexed": true,
          "internalType": "address",
          "name": "operator",
          "type": "address"
        },
        {
          "indexed": false,
          "internalType": "bool",
          "name": "whitelisted",
          "type": "bool"
        },
        {
          "indexed": false,
          "internalType": "uint16",
          "name": "roleId",
          "type": "uint16"
        }
      ],
      "name": "CoSignOperatorConfigured",
      "type": "event"
    },
    {
      "anonymous": false,
      "inputs": [
        {
          "indexed": true,
          "internalType": "bytes32",
          "name": "tenantId",
          "type": "bytes32"
        },
        {
          "indexed": true,
          "internalType": "uint32",
          "name": "docType",
          "type": "uint32"
        },
        {
          "indexed": false,
          "internalType": "bool",
          "name": "enabled",
          "type": "bool"
        },
        {
          "indexed": false,
          "internalType": "uint256",
          "name": "minStake",
          "type": "uint256"
        },
        {
          "indexed": false,
          "internalType": "uint256",
          "name": "minSigners",
          "type": "uint256"
        },
        {
          "indexed": false,
          "internalType": "uint256",
          "name": "requiredRoleMask",
          "type": "uint256"
        }
      ],
      "name": "CoSignPolicyUpdated",
      "type": "event"
    },
    {
      "anonymous": false,
      "inputs": [
        {
          "indexed": true,
          "internalType": "bytes32",
          "name": "tenantId",
          "type": "bytes32"
        },
        {
          "indexed": true,
          "internalType": "bytes32",
          "name": "fileHash",
          "type": "bytes32"
        },
        {
          "indexed": false,
          "internalType": "string",
          "name": "cid",
          "type": "string"
        },
        {
          "indexed": true,
          "internalType": "address",
          "name": "issuer",
          "type": "address"
        },
        {
          "indexed": false,
          "internalType": "bytes32",
          "name": "ciphertextHash",
          "type": "bytes32"
        },
        {
          "indexed": false,
          "internalType": "bytes32",
          "name": "encryptionMetaHash",
          "type": "bytes32"
        },
        {
          "indexed": false,
          "internalType": "uint32",
          "name": "docType",
          "type": "uint32"
        },
        {
          "indexed": false,
          "internalType": "uint32",
          "name": "version",
          "type": "uint32"
        }
      ],
      "name": "DocumentAnchored",
      "type": "event"
    },
    {
      "anonymous": false,
      "inputs": [
        {
          "indexed": true,
          "internalType": "bytes32",
          "name": "tenantId",
          "type": "bytes32"
        },
        {
          "indexed": true,
          "internalType": "bytes32",
          "name": "fileHash",
          "type": "bytes32"
        },
        {
          "indexed": false,
          "internalType": "uint256",
          "name": "trustedSigners",
          "type": "uint256"
        },
        {
          "indexed": false,
          "internalType": "uint256",
          "name": "roleMask",
          "type": "uint256"
        }
      ],
      "name": "DocumentCoSignQualified",
      "type": "event"
    },
    {
      "anonymous": false,
      "inputs": [
        {
          "indexed": true,
          "internalType": "bytes32",
          "name": "tenantId",
          "type": "bytes32"
        },
        {
          "indexed": true,
          "internalType": "bytes32",
          "name": "fileHash",
          "type": "bytes32"
        },
        {
          "indexed": true,
          "internalType": "address",
          "name": "signer",
          "type": "address"
        },
        {
          "indexed": false,
          "internalType": "uint256",
          "name": "totalSigners",
          "type": "uint256"
        }
      ],
      "name": "DocumentCoSigned",
      "type": "event"
    },
    {
      "anonymous": false,
      "inputs": [
        {
          "indexed": true,
          "internalType": "bytes32",
          "name": "tenantId",
          "type": "bytes32"
        },
        {
          "indexed": true,
          "internalType": "bytes32",
          "name": "fileHash",
          "type": "bytes32"
        },
        {
          "indexed": true,
          "internalType": "address",
          "name": "revoker",
          "type": "address"
        },
        {
          "indexed": false,
          "internalType": "string",
          "name": "reason",
          "type": "string"
        }
      ],
      "name": "DocumentRevoked",
      "type": "event"
    },
    {
      "anonymous": false,
      "inputs": [
        {
          "indexed": true,
          "internalType": "bytes32",
          "name": "tenantId",
          "type": "bytes32"
        },
        {
          "indexed": false,
          "internalType": "uint256",
          "name": "oldValue",
          "type": "uint256"
        },
        {
          "indexed": false,
          "internalType": "uint256",
          "name": "newValue",
          "type": "uint256"
        }
      ],
      "name": "MinOperatorStakeUpdated",
      "type": "event"
    },
    {
      "anonymous": false,
      "inputs": [
        {
          "indexed": true,
          "internalType": "bytes32",
          "name": "tenantId",
          "type": "bytes32"
        },
        {
          "indexed": true,
          "internalType": "address",
          "name": "signer",
          "type": "address"
        },
        {
          "indexed": false,
          "internalType": "uint256",
          "name": "oldNonce",
          "type": "uint256"
        },
        {
          "indexed": false,
          "internalType": "uint256",
          "name": "newNonce",
          "type": "uint256"
        }
      ],
      "name": "NonceConsumed",
      "type": "event"
    },
    {
      "anonymous": false,
      "inputs": [
        {
          "indexed": true,
          "internalType": "bytes32",
          "name": "tenantId",
          "type": "bytes32"
        },
        {
          "indexed": true,
          "internalType": "address",
          "name": "operator",
          "type": "address"
        },
        {
          "indexed": false,
          "internalType": "string",
          "name": "metadata",
          "type": "string"
        },
        {
          "indexed": false,
          "internalType": "uint256",
          "name": "stake",
          "type": "uint256"
        }
      ],
      "name": "OperatorJoined",
      "type": "event"
    },
    {
      "anonymous": false,
      "inputs": [
        {
          "indexed": true,
          "internalType": "bytes32",
          "name": "tenantId",
          "type": "bytes32"
        },
        {
          "indexed": true,
          "internalType": "address",
          "name": "operator",
          "type": "address"
        },
        {
          "indexed": false,
          "internalType": "string",
          "name": "metadataURI",
          "type": "string"
        }
      ],
      "name": "OperatorMetadataUpdated",
      "type": "event"
    },
    {
      "anonymous": false,
      "inputs": [
        {
          "indexed": true,
          "internalType": "bytes32",
          "name": "tenantId",
          "type": "bytes32"
        },
        {
          "indexed": true,
          "internalType": "address",
          "name": "oldOperator",
          "type": "address"
        },
        {
          "indexed": true,
          "internalType": "address",
          "name": "newOperator",
          "type": "address"
        },
        {
          "indexed": false,
          "internalType": "uint256",
          "name": "stakeAmount",
          "type": "uint256"
        },
        {
          "indexed": false,
          "internalType": "string",
          "name": "reason",
          "type": "string"
        }
      ],
      "name": "OperatorRecovered",
      "type": "event"
    },
    {
      "anonymous": false,
      "inputs": [
        {
          "indexed": true,
          "internalType": "bytes32",
          "name": "tenantId",
          "type": "bytes32"
        },
        {
          "indexed": true,
          "internalType": "address",
          "name": "operator",
          "type": "address"
        },
        {
          "indexed": true,
          "internalType": "address",
          "name": "delegate",
          "type": "address"
        }
      ],
      "name": "OperatorRecoveryDelegateUpdated",
      "type": "event"
    },
    {
      "anonymous": false,
      "inputs": [
        {
          "indexed": true,
          "internalType": "bytes32",
          "name": "tenantId",
          "type": "bytes32"
        },
        {
          "indexed": true,
          "internalType": "address",
          "name": "operator",
          "type": "address"
        },
        {
          "indexed": false,
          "internalType": "uint256",
          "name": "amount",
          "type": "uint256"
        },
        {
          "indexed": true,
          "internalType": "address",
          "name": "slasher",
          "type": "address"
        },
        {
          "indexed": false,
          "internalType": "string",
          "name": "reason",
          "type": "string"
        }
      ],
      "name": "OperatorSlashed",
      "type": "event"
    },
    {
      "anonymous": false,
      "inputs": [
        {
          "indexed": true,
          "internalType": "bytes32",
          "name": "tenantId",
          "type": "bytes32"
        },
        {
          "indexed": true,
          "internalType": "address",
          "name": "operator",
          "type": "address"
        },
        {
          "indexed": true,
          "internalType": "bytes32",
          "name": "violationCode",
          "type": "bytes32"
        },
        {
          "indexed": false,
          "internalType": "uint16",
          "name": "penaltyBps",
          "type": "uint16"
        },
        {
          "indexed": false,
          "internalType": "uint256",
          "name": "slashedAmount",
          "type": "uint256"
        },
        {
          "indexed": false,
          "internalType": "uint256",
          "name": "remainingStake",
          "type": "uint256"
        },
        {
          "indexed": false,
          "internalType": "address",
          "name": "slasher",
          "type": "address"
        },
        {
          "indexed": false,
          "internalType": "string",
          "name": "reason",
          "type": "string"
        }
      ],
      "name": "OperatorSoftSlashed",
      "type": "event"
    },
    {
      "anonymous": false,
      "inputs": [
        {
          "indexed": true,
          "internalType": "bytes32",
          "name": "tenantId",
          "type": "bytes32"
        },
        {
          "indexed": true,
          "internalType": "address",
          "name": "operator",
          "type": "address"
        },
        {
          "indexed": false,
          "internalType": "uint256",
          "name": "amount",
          "type": "uint256"
        },
        {
          "indexed": false,
          "internalType": "uint256",
          "name": "totalStake",
          "type": "uint256"
        }
      ],
      "name": "OperatorStakeToppedUp",
      "type": "event"
    },
    {
      "anonymous": false,
      "inputs": [
        {
          "indexed": true,
          "internalType": "bytes32",
          "name": "tenantId",
          "type": "bytes32"
        },
        {
          "indexed": true,
          "internalType": "address",
          "name": "operator",
          "type": "address"
        },
        {
          "indexed": false,
          "internalType": "bool",
          "name": "isActive",
          "type": "bool"
        },
        {
          "indexed": false,
          "internalType": "string",
          "name": "reason",
          "type": "string"
        }
      ],
      "name": "OperatorStatusUpdated",
      "type": "event"
    },
    {
      "anonymous": false,
      "inputs": [
        {
          "indexed": true,
          "internalType": "bytes32",
          "name": "tenantId",
          "type": "bytes32"
        },
        {
          "indexed": true,
          "internalType": "address",
          "name": "operator",
          "type": "address"
        },
        {
          "indexed": false,
          "internalType": "uint256",
          "name": "availableAt",
          "type": "uint256"
        }
      ],
      "name": "OperatorUnstakeRequested",
      "type": "event"
    },
    {
      "anonymous": false,
      "inputs": [
        {
          "indexed": true,
          "internalType": "bytes32",
          "name": "tenantId",
          "type": "bytes32"
        },
        {
          "indexed": true,
          "internalType": "address",
          "name": "operator",
          "type": "address"
        },
        {
          "indexed": false,
          "internalType": "uint256",
          "name": "amount",
          "type": "uint256"
        }
      ],
      "name": "OperatorUnstaked",
      "type": "event"
    },
    {
      "anonymous": false,
      "inputs": [
        {
          "indexed": true,
          "internalType": "address",
          "name": "protocolOwner",
          "type": "address"
        }
      ],
      "name": "ProtocolInitialized",
      "type": "event"
    },
    {
      "anonymous": false,
      "inputs": [
        {
          "indexed": true,
          "internalType": "bytes32",
          "name": "role",
          "type": "bytes32"
        },
        {
          "indexed": true,
          "internalType": "bytes32",
          "name": "previousAdminRole",
          "type": "bytes32"
        },
        {
          "indexed": true,
          "internalType": "bytes32",
          "name": "newAdminRole",
          "type": "bytes32"
        }
      ],
      "name": "RoleAdminChanged",
      "type": "event"
    },
    {
      "anonymous": false,
      "inputs": [
        {
          "indexed": true,
          "internalType": "bytes32",
          "name": "role",
          "type": "bytes32"
        },
        {
          "indexed": true,
          "internalType": "address",
          "name": "account",
          "type": "address"
        },
        {
          "indexed": true,
          "internalType": "address",
          "name": "sender",
          "type": "address"
        }
      ],
      "name": "RoleGranted",
      "type": "event"
    },
    {
      "anonymous": false,
      "inputs": [
        {
          "indexed": true,
          "internalType": "bytes32",
          "name": "role",
          "type": "bytes32"
        },
        {
          "indexed": true,
          "internalType": "address",
          "name": "account",
          "type": "address"
        },
        {
          "indexed": true,
          "internalType": "address",
          "name": "sender",
          "type": "address"
        }
      ],
      "name": "RoleRevoked",
      "type": "event"
    },
    {
      "anonymous": false,
      "inputs": [
        {
          "indexed": true,
          "internalType": "bytes32",
          "name": "tenantId",
          "type": "bytes32"
        },
        {
          "indexed": true,
          "internalType": "address",
          "name": "admin",
          "type": "address"
        },
        {
          "indexed": true,
          "internalType": "address",
          "name": "treasury",
          "type": "address"
        }
      ],
      "name": "TenantCreated",
      "type": "event"
    },
    {
      "anonymous": false,
      "inputs": [
        {
          "indexed": true,
          "internalType": "bytes32",
          "name": "tenantId",
          "type": "bytes32"
        },
        {
          "indexed": false,
          "internalType": "bool",
          "name": "isActive",
          "type": "bool"
        }
      ],
      "name": "TenantStatusUpdated",
      "type": "event"
    },
    {
      "anonymous": false,
      "inputs": [
        {
          "indexed": true,
          "internalType": "bytes32",
          "name": "tenantId",
          "type": "bytes32"
        },
        {
          "indexed": true,
          "internalType": "address",
          "name": "oldTreasury",
          "type": "address"
        },
        {
          "indexed": true,
          "internalType": "address",
          "name": "newTreasury",
          "type": "address"
        }
      ],
      "name": "TreasuryUpdated",
      "type": "event"
    },
    {
      "anonymous": false,
      "inputs": [
        {
          "indexed": true,
          "internalType": "bytes32",
          "name": "tenantId",
          "type": "bytes32"
        },
        {
          "indexed": false,
          "internalType": "uint256",
          "name": "oldValue",
          "type": "uint256"
        },
        {
          "indexed": false,
          "internalType": "uint256",
          "name": "newValue",
          "type": "uint256"
        }
      ],
      "name": "UnstakeCooldownUpdated",
      "type": "event"
    },
    {
      "anonymous": false,
      "inputs": [
        {
          "indexed": true,
          "internalType": "bytes32",
          "name": "tenantId",
          "type": "bytes32"
        },
        {
          "indexed": true,
          "internalType": "bytes32",
          "name": "violationCode",
          "type": "bytes32"
        },
        {
          "indexed": false,
          "internalType": "uint16",
          "name": "oldPenaltyBps",
          "type": "uint16"
        },
        {
          "indexed": false,
          "internalType": "uint16",
          "name": "newPenaltyBps",
          "type": "uint16"
        }
      ],
      "name": "ViolationPenaltyUpdated",
      "type": "event"
    },
    {
      "inputs": [],
      "name": "COSIGN_ROLE_NONE",
      "outputs": [
        {
          "internalType": "uint16",
          "name": "",
          "type": "uint16"
        }
      ],
      "stateMutability": "view",
      "type": "function"
    },
    {
      "inputs": [],
      "name": "DEFAULT_ADMIN_ROLE",
      "outputs": [
        {
          "internalType": "bytes32",
          "name": "",
          "type": "bytes32"
        }
      ],
      "stateMutability": "view",
      "type": "function"
    },
    {
      "inputs": [],
      "name": "MAX_COSIGN_ROLE_ID",
      "outputs": [
        {
          "internalType": "uint16",
          "name": "",
          "type": "uint16"
        }
      ],
      "stateMutability": "view",
      "type": "function"
    },
    {
      "inputs": [],
      "name": "MAX_PENALTY_BPS",
      "outputs": [
        {
          "internalType": "uint16",
          "name": "",
          "type": "uint16"
        }
      ],
      "stateMutability": "view",
      "type": "function"
    },
    {
      "inputs": [],
      "name": "MIN_COSIGN_ROLE_ID",
      "outputs": [
        {
          "internalType": "uint16",
          "name": "",
          "type": "uint16"
        }
      ],
      "stateMutability": "view",
      "type": "function"
    },
    {
      "inputs": [],
      "name": "MIN_STAKE",
      "outputs": [
        {
          "internalType": "uint256",
          "name": "",
          "type": "uint256"
        }
      ],
      "stateMutability": "view",
      "type": "function"
    },
    {
      "inputs": [],
      "name": "PROTOCOL_ADMIN_ROLE",
      "outputs": [
        {
          "internalType": "bytes32",
          "name": "",
          "type": "bytes32"
        }
      ],
      "stateMutability": "view",
      "type": "function"
    },
    {
      "inputs": [],
      "name": "UNSTAKE_COOLDOWN",
      "outputs": [
        {
          "internalType": "uint256",
          "name": "",
          "type": "uint256"
        }
      ],
      "stateMutability": "view",
      "type": "function"
    },
    {
      "inputs": [
        {
          "internalType": "bytes32",
          "name": "",
          "type": "bytes32"
        },
        {
          "internalType": "bytes32",
          "name": "",
          "type": "bytes32"
        }
      ],
      "name": "coSignCount",
      "outputs": [
        {
          "internalType": "uint256",
          "name": "",
          "type": "uint256"
        }
      ],
      "stateMutability": "view",
      "type": "function"
    },
    {
      "inputs": [
        {
          "components": [
            {
              "internalType": "bytes32",
              "name": "tenantId",
              "type": "bytes32"
            },
            {
              "internalType": "bytes32",
              "name": "fileHash",
              "type": "bytes32"
            },
            {
              "internalType": "uint256",
              "name": "nonce",
              "type": "uint256"
            },
            {
              "internalType": "uint256",
              "name": "deadline",
              "type": "uint256"
            }
          ],
          "internalType": "struct VoucherProtocol.CoSignPayload",
          "name": "payload",
          "type": "tuple"
        },
        {
          "internalType": "bytes",
          "name": "signature",
          "type": "bytes"
        }
      ],
      "name": "coSignDocumentWithSignature",
      "outputs": [],
      "stateMutability": "nonpayable",
      "type": "function"
    },
    {
      "inputs": [
        {
          "internalType": "bytes32",
          "name": "",
          "type": "bytes32"
        },
        {
          "internalType": "bytes32",
          "name": "",
          "type": "bytes32"
        }
      ],
      "name": "coSignQualified",
      "outputs": [
        {
          "internalType": "bool",
          "name": "",
          "type": "bool"
        }
      ],
      "stateMutability": "view",
      "type": "function"
    },
    {
      "inputs": [
        {
          "internalType": "bytes32",
          "name": "tenantId",
          "type": "bytes32"
        },
        {
          "internalType": "address",
          "name": "tenantTreasury",
          "type": "address"
        },
        {
          "components": [
            {
              "internalType": "address",
              "name": "admin",
              "type": "address"
            },
            {
              "internalType": "address",
              "name": "slasher",
              "type": "address"
            },
            {
              "internalType": "address",
              "name": "operatorManager",
              "type": "address"
            },
            {
              "internalType": "uint256",
              "name": "minStake",
              "type": "uint256"
            },
            {
              "internalType": "uint256",
              "name": "unstakeCooldown",
              "type": "uint256"
            }
          ],
          "internalType": "struct VoucherProtocol.TenantConfig",
          "name": "config",
          "type": "tuple"
        }
      ],
      "name": "createTenant",
      "outputs": [],
      "stateMutability": "nonpayable",
      "type": "function"
    },
    {
      "inputs": [
        {
          "internalType": "bytes32",
          "name": "",
          "type": "bytes32"
        },
        {
          "internalType": "bytes32",
          "name": "",
          "type": "bytes32"
        },
        {
          "internalType": "address",
          "name": "",
          "type": "address"
        }
      ],
      "name": "documentSigners",
      "outputs": [
        {
          "internalType": "bool",
          "name": "",
          "type": "bool"
        }
      ],
      "stateMutability": "view",
      "type": "function"
    },
    {
      "inputs": [
        {
          "internalType": "bytes32",
          "name": "",
          "type": "bytes32"
        },
        {
          "internalType": "bytes32",
          "name": "",
          "type": "bytes32"
        }
      ],
      "name": "documents",
      "outputs": [
        {
          "internalType": "bytes32",
          "name": "tenantId",
          "type": "bytes32"
        },
        {
          "internalType": "string",
          "name": "cid",
          "type": "string"
        },
        {
          "internalType": "address",
          "name": "issuer",
          "type": "address"
        },
        {
          "internalType": "uint256",
          "name": "timestamp",
          "type": "uint256"
        },
        {
          "internalType": "bool",
          "name": "isValid",
          "type": "bool"
        },
        {
          "internalType": "bytes32",
          "name": "ciphertextHash",
          "type": "bytes32"
        },
        {
          "internalType": "bytes32",
          "name": "encryptionMetaHash",
          "type": "bytes32"
        },
        {
          "internalType": "uint32",
          "name": "docType",
          "type": "uint32"
        },
        {
          "internalType": "uint32",
          "name": "version",
          "type": "uint32"
        }
      ],
      "stateMutability": "view",
      "type": "function"
    },
    {
      "inputs": [
        {
          "internalType": "bytes32",
          "name": "tenantId",
          "type": "bytes32"
        }
      ],
      "name": "executeUnstake",
      "outputs": [],
      "stateMutability": "nonpayable",
      "type": "function"
    },
    {
      "inputs": [
        {
          "internalType": "bytes32",
          "name": "tenantId",
          "type": "bytes32"
        },
        {
          "internalType": "uint32",
          "name": "docType",
          "type": "uint32"
        }
      ],
      "name": "getCoSignPolicyStruct",
      "outputs": [
        {
          "components": [
            {
              "internalType": "bool",
              "name": "enabled",
              "type": "bool"
            },
            {
              "internalType": "uint256",
              "name": "minStake",
              "type": "uint256"
            },
            {
              "internalType": "uint256",
              "name": "minSigners",
              "type": "uint256"
            },
            {
              "internalType": "uint256",
              "name": "requiredRoleMask",
              "type": "uint256"
            }
          ],
          "internalType": "struct VoucherProtocol.CoSignPolicy",
          "name": "",
          "type": "tuple"
        }
      ],
      "stateMutability": "view",
      "type": "function"
    },
    {
      "inputs": [
        {
          "internalType": "bytes32",
          "name": "tenantId",
          "type": "bytes32"
        },
        {
          "internalType": "bytes32",
          "name": "fileHash",
          "type": "bytes32"
        }
      ],
      "name": "getDocument",
      "outputs": [
        {
          "components": [
            {
              "internalType": "bytes32",
              "name": "tenantId",
              "type": "bytes32"
            },
            {
              "internalType": "string",
              "name": "cid",
              "type": "string"
            },
            {
              "internalType": "address",
              "name": "issuer",
              "type": "address"
            },
            {
              "internalType": "uint256",
              "name": "timestamp",
              "type": "uint256"
            },
            {
              "internalType": "bool",
              "name": "isValid",
              "type": "bool"
            },
            {
              "internalType": "bytes32",
              "name": "ciphertextHash",
              "type": "bytes32"
            },
            {
              "internalType": "bytes32",
              "name": "encryptionMetaHash",
              "type": "bytes32"
            },
            {
              "internalType": "uint32",
              "name": "docType",
              "type": "uint32"
            },
            {
              "internalType": "uint32",
              "name": "version",
              "type": "uint32"
            }
          ],
          "internalType": "struct VoucherProtocol.Document",
          "name": "",
          "type": "tuple"
        }
      ],
      "stateMutability": "view",
      "type": "function"
    },
    {
      "inputs": [
        {
          "internalType": "bytes32",
          "name": "tenantId",
          "type": "bytes32"
        },
        {
          "internalType": "uint256",
          "name": "index",
          "type": "uint256"
        }
      ],
      "name": "getOperatorAtIndex",
      "outputs": [
        {
          "internalType": "address",
          "name": "",
          "type": "address"
        }
      ],
      "stateMutability": "view",
      "type": "function"
    },
    {
      "inputs": [
        {
          "internalType": "bytes32",
          "name": "tenantId",
          "type": "bytes32"
        }
      ],
      "name": "getOperatorListLength",
      "outputs": [
        {
          "internalType": "uint256",
          "name": "",
          "type": "uint256"
        }
      ],
      "stateMutability": "view",
      "type": "function"
    },
    {
      "inputs": [
        {
          "internalType": "bytes32",
          "name": "tenantId",
          "type": "bytes32"
        },
        {
          "internalType": "address",
          "name": "operator",
          "type": "address"
        }
      ],
      "name": "getOperatorStruct",
      "outputs": [
        {
          "components": [
            {
              "internalType": "bytes32",
              "name": "tenantId",
              "type": "bytes32"
            },
            {
              "internalType": "string",
              "name": "metadataURI",
              "type": "string"
            },
            {
              "internalType": "uint256",
              "name": "stakeAmount",
              "type": "uint256"
            },
            {
              "internalType": "bool",
              "name": "isActive",
              "type": "bool"
            }
          ],
          "internalType": "struct VoucherProtocol.Operator",
          "name": "",
          "type": "tuple"
        }
      ],
      "stateMutability": "view",
      "type": "function"
    },
    {
      "inputs": [
        {
          "internalType": "bytes32",
          "name": "role",
          "type": "bytes32"
        }
      ],
      "name": "getRoleAdmin",
      "outputs": [
        {
          "internalType": "bytes32",
          "name": "",
          "type": "bytes32"
        }
      ],
      "stateMutability": "view",
      "type": "function"
    },
    {
      "inputs": [
        {
          "internalType": "uint256",
          "name": "index",
          "type": "uint256"
        }
      ],
      "name": "getTenantAtIndex",
      "outputs": [
        {
          "internalType": "bytes32",
          "name": "",
          "type": "bytes32"
        }
      ],
      "stateMutability": "view",
      "type": "function"
    },
    {
      "inputs": [],
      "name": "getTenantListLength",
      "outputs": [
        {
          "internalType": "uint256",
          "name": "",
          "type": "uint256"
        }
      ],
      "stateMutability": "view",
      "type": "function"
    },
    {
      "inputs": [
        {
          "internalType": "bytes32",
          "name": "tenantId",
          "type": "bytes32"
        }
      ],
      "name": "getTenantStruct",
      "outputs": [
        {
          "components": [
            {
              "internalType": "address",
              "name": "admin",
              "type": "address"
            },
            {
              "internalType": "address",
              "name": "treasury",
              "type": "address"
            },
            {
              "internalType": "bool",
              "name": "isActive",
              "type": "bool"
            },
            {
              "internalType": "uint256",
              "name": "createdAt",
              "type": "uint256"
            }
          ],
          "internalType": "struct VoucherProtocol.Tenant",
          "name": "",
          "type": "tuple"
        }
      ],
      "stateMutability": "view",
      "type": "function"
    },
    {
      "inputs": [
        {
          "internalType": "bytes32",
          "name": "role",
          "type": "bytes32"
        },
        {
          "internalType": "address",
          "name": "account",
          "type": "address"
        }
      ],
      "name": "grantRole",
      "outputs": [],
      "stateMutability": "nonpayable",
      "type": "function"
    },
    {
      "inputs": [
        {
          "internalType": "bytes32",
          "name": "role",
          "type": "bytes32"
        },
        {
          "internalType": "address",
          "name": "account",
          "type": "address"
        }
      ],
      "name": "hasRole",
      "outputs": [
        {
          "internalType": "bool",
          "name": "",
          "type": "bool"
        }
      ],
      "stateMutability": "view",
      "type": "function"
    },
    {
      "inputs": [
        {
          "internalType": "bytes32",
          "name": "tenantId",
          "type": "bytes32"
        },
        {
          "internalType": "string",
          "name": "_metadataURI",
          "type": "string"
        }
      ],
      "name": "joinAsOperator",
      "outputs": [],
      "stateMutability": "payable",
      "type": "function"
    },
    {
      "inputs": [
        {
          "internalType": "bytes32",
          "name": "",
          "type": "bytes32"
        },
        {
          "internalType": "address",
          "name": "",
          "type": "address"
        }
      ],
      "name": "nonces",
      "outputs": [
        {
          "internalType": "uint256",
          "name": "",
          "type": "uint256"
        }
      ],
      "stateMutability": "view",
      "type": "function"
    },
    {
      "inputs": [
        {
          "internalType": "bytes32",
          "name": "",
          "type": "bytes32"
        },
        {
          "internalType": "address",
          "name": "",
          "type": "address"
        }
      ],
      "name": "operators",
      "outputs": [
        {
          "internalType": "bytes32",
          "name": "tenantId",
          "type": "bytes32"
        },
        {
          "internalType": "string",
          "name": "metadataURI",
          "type": "string"
        },
        {
          "internalType": "uint256",
          "name": "stakeAmount",
          "type": "uint256"
        },
        {
          "internalType": "bool",
          "name": "isActive",
          "type": "bool"
        }
      ],
      "stateMutability": "view",
      "type": "function"
    },
    {
      "inputs": [
        {
          "internalType": "bytes32",
          "name": "",
          "type": "bytes32"
        },
        {
          "internalType": "address",
          "name": "",
          "type": "address"
        }
      ],
      "name": "pendingUnstakeAt",
      "outputs": [
        {
          "internalType": "uint256",
          "name": "",
          "type": "uint256"
        }
      ],
      "stateMutability": "view",
      "type": "function"
    },
    {
      "inputs": [],
      "name": "protocolOwner",
      "outputs": [
        {
          "internalType": "address",
          "name": "",
          "type": "address"
        }
      ],
      "stateMutability": "view",
      "type": "function"
    },
    {
      "inputs": [
        {
          "internalType": "bytes32",
          "name": "tenantId",
          "type": "bytes32"
        },
        {
          "internalType": "address",
          "name": "lostOperator",
          "type": "address"
        },
        {
          "internalType": "address",
          "name": "newOperator",
          "type": "address"
        },
        {
          "internalType": "string",
          "name": "reason",
          "type": "string"
        }
      ],
      "name": "recoverOperatorByAdmin",
      "outputs": [],
      "stateMutability": "nonpayable",
      "type": "function"
    },
    {
      "inputs": [
        {
          "internalType": "bytes32",
          "name": "tenantId",
          "type": "bytes32"
        },
        {
          "internalType": "address",
          "name": "lostOperator",
          "type": "address"
        },
        {
          "internalType": "string",
          "name": "reason",
          "type": "string"
        }
      ],
      "name": "recoverOperatorByDelegate",
      "outputs": [],
      "stateMutability": "nonpayable",
      "type": "function"
    },
    {
      "inputs": [
        {
          "internalType": "bytes32",
          "name": "",
          "type": "bytes32"
        },
        {
          "internalType": "address",
          "name": "",
          "type": "address"
        }
      ],
      "name": "recoveryDelegates",
      "outputs": [
        {
          "internalType": "address",
          "name": "",
          "type": "address"
        }
      ],
      "stateMutability": "view",
      "type": "function"
    },
    {
      "inputs": [
        {
          "components": [
            {
              "internalType": "bytes32",
              "name": "tenantId",
              "type": "bytes32"
            },
            {
              "internalType": "bytes32",
              "name": "fileHash",
              "type": "bytes32"
            },
            {
              "internalType": "string",
              "name": "cid",
              "type": "string"
            },
            {
              "internalType": "bytes32",
              "name": "ciphertextHash",
              "type": "bytes32"
            },
            {
              "internalType": "bytes32",
              "name": "encryptionMetaHash",
              "type": "bytes32"
            },
            {
              "internalType": "uint32",
              "name": "docType",
              "type": "uint32"
            },
            {
              "internalType": "uint32",
              "name": "version",
              "type": "uint32"
            },
            {
              "internalType": "uint256",
              "name": "nonce",
              "type": "uint256"
            },
            {
              "internalType": "uint256",
              "name": "deadline",
              "type": "uint256"
            }
          ],
          "internalType": "struct VoucherProtocol.RegisterPayload",
          "name": "payload",
          "type": "tuple"
        },
        {
          "internalType": "bytes",
          "name": "signature",
          "type": "bytes"
        }
      ],
      "name": "registerWithSignature",
      "outputs": [],
      "stateMutability": "nonpayable",
      "type": "function"
    },
    {
      "inputs": [
        {
          "internalType": "bytes32",
          "name": "role",
          "type": "bytes32"
        },
        {
          "internalType": "address",
          "name": "callerConfirmation",
          "type": "address"
        }
      ],
      "name": "renounceRole",
      "outputs": [],
      "stateMutability": "nonpayable",
      "type": "function"
    },
    {
      "inputs": [
        {
          "internalType": "bytes32",
          "name": "tenantId",
          "type": "bytes32"
        }
      ],
      "name": "requestUnstake",
      "outputs": [],
      "stateMutability": "nonpayable",
      "type": "function"
    },
    {
      "inputs": [
        {
          "internalType": "bytes32",
          "name": "tenantId",
          "type": "bytes32"
        },
        {
          "internalType": "bytes32",
          "name": "fileHash",
          "type": "bytes32"
        },
        {
          "internalType": "string",
          "name": "reason",
          "type": "string"
        }
      ],
      "name": "revokeDocument",
      "outputs": [],
      "stateMutability": "nonpayable",
      "type": "function"
    },
    {
      "inputs": [
        {
          "internalType": "bytes32",
          "name": "role",
          "type": "bytes32"
        },
        {
          "internalType": "address",
          "name": "account",
          "type": "address"
        }
      ],
      "name": "revokeRole",
      "outputs": [],
      "stateMutability": "nonpayable",
      "type": "function"
    },
    {
      "inputs": [
        {
          "internalType": "bytes32",
          "name": "tenantId",
          "type": "bytes32"
        },
        {
          "internalType": "uint32",
          "name": "docType",
          "type": "uint32"
        },
        {
          "internalType": "address",
          "name": "operator",
          "type": "address"
        },
        {
          "internalType": "bool",
          "name": "whitelisted",
          "type": "bool"
        },
        {
          "internalType": "uint16",
          "name": "roleId",
          "type": "uint16"
        }
      ],
      "name": "setCoSignOperator",
      "outputs": [],
      "stateMutability": "nonpayable",
      "type": "function"
    },
    {
      "inputs": [
        {
          "internalType": "bytes32",
          "name": "tenantId",
          "type": "bytes32"
        },
        {
          "internalType": "uint32",
          "name": "docType",
          "type": "uint32"
        },
        {
          "internalType": "bool",
          "name": "enabled",
          "type": "bool"
        },
        {
          "internalType": "uint256",
          "name": "minStake",
          "type": "uint256"
        },
        {
          "internalType": "uint256",
          "name": "minSigners",
          "type": "uint256"
        },
        {
          "internalType": "uint256",
          "name": "requiredRoleMask",
          "type": "uint256"
        }
      ],
      "name": "setCoSignPolicy",
      "outputs": [],
      "stateMutability": "nonpayable",
      "type": "function"
    },
    {
      "inputs": [
        {
          "internalType": "bytes32",
          "name": "tenantId",
          "type": "bytes32"
        },
        {
          "internalType": "uint256",
          "name": "newMinOperatorStake",
          "type": "uint256"
        }
      ],
      "name": "setMinOperatorStake",
      "outputs": [],
      "stateMutability": "nonpayable",
      "type": "function"
    },
    {
      "inputs": [
        {
          "internalType": "bytes32",
          "name": "tenantId",
          "type": "bytes32"
        },
        {
          "internalType": "address",
          "name": "operator",
          "type": "address"
        },
        {
          "internalType": "bool",
          "name": "isActive",
          "type": "bool"
        },
        {
          "internalType": "string",
          "name": "reason",
          "type": "string"
        }
      ],
      "name": "setOperatorStatus",
      "outputs": [],
      "stateMutability": "nonpayable",
      "type": "function"
    },
    {
      "inputs": [
        {
          "internalType": "bytes32",
          "name": "tenantId",
          "type": "bytes32"
        },
        {
          "internalType": "address",
          "name": "delegate",
          "type": "address"
        }
      ],
      "name": "setRecoveryDelegate",
      "outputs": [],
      "stateMutability": "nonpayable",
      "type": "function"
    },
    {
      "inputs": [
        {
          "internalType": "bytes32",
          "name": "tenantId",
          "type": "bytes32"
        },
        {
          "internalType": "bool",
          "name": "isActive",
          "type": "bool"
        }
      ],
      "name": "setTenantStatus",
      "outputs": [],
      "stateMutability": "nonpayable",
      "type": "function"
    },
    {
      "inputs": [
        {
          "internalType": "bytes32",
          "name": "tenantId",
          "type": "bytes32"
        },
        {
          "internalType": "address",
          "name": "newTreasury",
          "type": "address"
        }
      ],
      "name": "setTreasury",
      "outputs": [],
      "stateMutability": "nonpayable",
      "type": "function"
    },
    {
      "inputs": [
        {
          "internalType": "bytes32",
          "name": "tenantId",
          "type": "bytes32"
        },
        {
          "internalType": "uint256",
          "name": "newUnstakeCooldown",
          "type": "uint256"
        }
      ],
      "name": "setUnstakeCooldown",
      "outputs": [],
      "stateMutability": "nonpayable",
      "type": "function"
    },
    {
      "inputs": [
        {
          "internalType": "bytes32",
          "name": "tenantId",
          "type": "bytes32"
        },
        {
          "internalType": "bytes32",
          "name": "violationCode",
          "type": "bytes32"
        },
        {
          "internalType": "uint16",
          "name": "penaltyBps",
          "type": "uint16"
        }
      ],
      "name": "setViolationPenalty",
      "outputs": [],
      "stateMutability": "nonpayable",
      "type": "function"
    },
    {
      "inputs": [
        {
          "internalType": "bytes32",
          "name": "tenantId",
          "type": "bytes32"
        },
        {
          "internalType": "address",
          "name": "_operator",
          "type": "address"
        },
        {
          "internalType": "string",
          "name": "reason",
          "type": "string"
        }
      ],
      "name": "slashOperator",
      "outputs": [],
      "stateMutability": "nonpayable",
      "type": "function"
    },
    {
      "inputs": [
        {
          "internalType": "bytes32",
          "name": "tenantId",
          "type": "bytes32"
        },
        {
          "internalType": "address",
          "name": "_operator",
          "type": "address"
        },
        {
          "internalType": "bytes32",
          "name": "violationCode",
          "type": "bytes32"
        },
        {
          "internalType": "string",
          "name": "reason",
          "type": "string"
        }
      ],
      "name": "softSlashOperator",
      "outputs": [],
      "stateMutability": "nonpayable",
      "type": "function"
    },
    {
      "inputs": [
        {
          "internalType": "bytes4",
          "name": "interfaceId",
          "type": "bytes4"
        }
      ],
      "name": "supportsInterface",
      "outputs": [
        {
          "internalType": "bool",
          "name": "",
          "type": "bool"
        }
      ],
      "stateMutability": "view",
      "type": "function"
    },
    {
      "inputs": [
        {
          "internalType": "bytes32",
          "name": "",
          "type": "bytes32"
        },
        {
          "internalType": "uint32",
          "name": "",
          "type": "uint32"
        }
      ],
      "name": "tenantCoSignPolicies",
      "outputs": [
        {
          "internalType": "bool",
          "name": "enabled",
          "type": "bool"
        },
        {
          "internalType": "uint256",
          "name": "minStake",
          "type": "uint256"
        },
        {
          "internalType": "uint256",
          "name": "minSigners",
          "type": "uint256"
        },
        {
          "internalType": "uint256",
          "name": "requiredRoleMask",
          "type": "uint256"
        }
      ],
      "stateMutability": "view",
      "type": "function"
    },
    {
      "inputs": [
        {
          "internalType": "bytes32",
          "name": "",
          "type": "bytes32"
        },
        {
          "internalType": "uint32",
          "name": "",
          "type": "uint32"
        },
        {
          "internalType": "address",
          "name": "",
          "type": "address"
        }
      ],
      "name": "tenantCoSignRoles",
      "outputs": [
        {
          "internalType": "uint16",
          "name": "",
          "type": "uint16"
        }
      ],
      "stateMutability": "view",
      "type": "function"
    },
    {
      "inputs": [
        {
          "internalType": "bytes32",
          "name": "",
          "type": "bytes32"
        },
        {
          "internalType": "uint32",
          "name": "",
          "type": "uint32"
        },
        {
          "internalType": "address",
          "name": "",
          "type": "address"
        }
      ],
      "name": "tenantCoSignWhitelisted",
      "outputs": [
        {
          "internalType": "bool",
          "name": "",
          "type": "bool"
        }
      ],
      "stateMutability": "view",
      "type": "function"
    },
    {
      "inputs": [
        {
          "internalType": "uint256",
          "name": "",
          "type": "uint256"
        }
      ],
      "name": "tenantList",
      "outputs": [
        {
          "internalType": "bytes32",
          "name": "",
          "type": "bytes32"
        }
      ],
      "stateMutability": "view",
      "type": "function"
    },
    {
      "inputs": [
        {
          "internalType": "bytes32",
          "name": "",
          "type": "bytes32"
        }
      ],
      "name": "tenantMinOperatorStake",
      "outputs": [
        {
          "internalType": "uint256",
          "name": "",
          "type": "uint256"
        }
      ],
      "stateMutability": "view",
      "type": "function"
    },
    {
      "inputs": [
        {
          "internalType": "bytes32",
          "name": "",
          "type": "bytes32"
        }
      ],
      "name": "tenantUnstakeCooldown",
      "outputs": [
        {
          "internalType": "uint256",
          "name": "",
          "type": "uint256"
        }
      ],
      "stateMutability": "view",
      "type": "function"
    },
    {
      "inputs": [
        {
          "internalType": "bytes32",
          "name": "",
          "type": "bytes32"
        },
        {
          "internalType": "bytes32",
          "name": "",
          "type": "bytes32"
        }
      ],
      "name": "tenantViolationPenalties",
      "outputs": [
        {
          "internalType": "uint16",
          "name": "",
          "type": "uint16"
        }
      ],
      "stateMutability": "view",
      "type": "function"
    },
    {
      "inputs": [
        {
          "internalType": "bytes32",
          "name": "",
          "type": "bytes32"
        }
      ],
      "name": "tenants",
      "outputs": [
        {
          "internalType": "address",
          "name": "admin",
          "type": "address"
        },
        {
          "internalType": "address",
          "name": "treasury",
          "type": "address"
        },
        {
          "internalType": "bool",
          "name": "isActive",
          "type": "bool"
        },
        {
          "internalType": "uint256",
          "name": "createdAt",
          "type": "uint256"
        }
      ],
      "stateMutability": "view",
      "type": "function"
    },
    {
      "inputs": [
        {
          "internalType": "bytes32",
          "name": "tenantId",
          "type": "bytes32"
        }
      ],
      "name": "topUpStake",
      "outputs": [],
      "stateMutability": "payable",
      "type": "function"
    },
    {
      "inputs": [
        {
          "internalType": "bytes32",
          "name": "",
          "type": "bytes32"
        },
        {
          "internalType": "bytes32",
          "name": "",
          "type": "bytes32"
        }
      ],
      "name": "trustedCoSignCount",
      "outputs": [
        {
          "internalType": "uint256",
          "name": "",
          "type": "uint256"
        }
      ],
      "stateMutability": "view",
      "type": "function"
    },
    {
      "inputs": [
        {
          "internalType": "bytes32",
          "name": "",
          "type": "bytes32"
        },
        {
          "internalType": "bytes32",
          "name": "",
          "type": "bytes32"
        }
      ],
      "name": "trustedCoSignRoleMask",
      "outputs": [
        {
          "internalType": "uint256",
          "name": "",
          "type": "uint256"
        }
      ],
      "stateMutability": "view",
      "type": "function"
    },
    {
      "inputs": [
        {
          "internalType": "bytes32",
          "name": "tenantId",
          "type": "bytes32"
        },
        {
          "internalType": "string",
          "name": "metadataURI",
          "type": "string"
        }
      ],
      "name": "updateOperatorMetadata",
      "outputs": [],
      "stateMutability": "nonpayable",
      "type": "function"
    }
  ],
  "bytecode": "0x60a060405234801561000f575f5ffd5b5060017f9b779b17422d0df92223018b32b4d1fa46e071723d6817e2486d003becc55f0055600180546001600160a01b03191633908117909155610054905f9061014f565b5061007f7fd0c934f24ef5a377dc3832429ce607cbe940a3ca3c6cd7e532bd35b4b212d1963361014f565b50604080517f8b73c3c69bb8fe3d512ecc4cf759cc79239f7b179b0ffacaa9a75d522b39400f60208201527f32e8a79951df9d41f0345a487dbe19ec03b0a7de9751dd4031f0cc3d0a623968918101919091527fc89efdaa54c0f20c7adf612882df0950f5a951637e0307cdcb4c672f298b8bc660608201524660808201523060a082015260c00160408051601f1981840301815290829052805160209091012060805233907fc130514d7c8c002bccb3fd35204490d020b73c0188386dbb07de86d15d5cb9a0905f90a26101f8565b5f828152602081815260408083206001600160a01b038516845290915281205460ff166101ef575f838152602081815260408083206001600160a01b03861684529091529020805460ff191660011790556101a73390565b6001600160a01b0316826001600160a01b0316847f2f8788117e7eff1d82e926ec794901d17c78024a50270940304540a733656f0d60405160405180910390a45060016101f2565b505f5b92915050565b608051615d086102105f395f614a9f0152615d085ff3fe6080604052600436106103a8575f3560e01c80638bdb1de3116101e9578063c70496a411610108578063e26edb7a1161009d578063f4410c061161006d578063f4410c0614610d22578063fb827fa814610d41578063fc89626714610d70578063ff14d45814610d9b575f5ffd5b8063e26edb7a14610c92578063e7b06ccd14610cb1578063eaa3668f14610cd0578063f3e49baa14610ce3575f5ffd5b8063d4b77cfc116100d8578063d4b77cfc14610bd5578063d547741f14610bf4578063d9fe7f6714610c13578063dfa89c1d14610c53575f5ffd5b8063c70496a414610b69578063cb1c2b5c14610b88578063cbbb0fec14610ba3578063d019036e14610bc2575f5ffd5b8063a2375cf31161017e578063b04da8a11161014e578063b04da8a114610abe578063b5004d7914610af4578063c1d6ba6914610b2b578063c664e0d514610b4a575f5ffd5b8063a2375cf314610a41578063a468703d14610a60578063a60f4c0914610a7f578063aee2bc8614610a9e575f5ffd5b806395f001e6116101b957806395f001e61461096c57806399c894041461098b5780639e531042146109aa578063a217fddf14610a2e575f5ffd5b80638bdb1de3146108ef5780638d18edf01461091a57806391d1485414610939578063920da43314610958575f5ffd5b80633ebf6f7d116102d5578063627a654f1161026a5780636dc0c12a1161023a5780636dc0c12a14610845578063715eba9a146108645780637ff637311461088357806386e2b63f146108b9575f5ffd5b8063627a654f146107905780636b044e3d146107c45780636cc531d4146107e35780636d184dd31461080f575f5ffd5b8063502ea5c2116102a5578063502ea5c2146106ee578063541bd3ee146107275780635533b9bf146107465780635e50980714610771575f5ffd5b80633ebf6f7d1461060957806342149fd01461067a5780634d00857a146106995780634f138e01146106b8575f5ffd5b80630f3384e01161034b578063248a9ca31161031b578063248a9ca31461056357806328a1b2c9146105915780632f2ff15d146105cb57806336568abe146105ea575f5ffd5b80630f3384e0146104e4578063130d571b146105055780631b48ba1f14610524578063246145d814610550575f5ffd5b80630619a7d0116103865780630619a7d0146104475780630a75a2f01461049b5780630b60c58f146104b95780630e0895b9146104cf575f5ffd5b8063015d4ad3146103ac57806301ffc9a7146104005780630225d3cc1461041f575b5f5ffd5b3480156103b7575f5ffd5b506103eb6103c6366004615151565b600b60209081525f938452604080852082529284528284209052825290205460ff1681565b60405190151581526020015b60405180910390f35b34801561040b575f5ffd5b506103eb61041a366004615183565b610e72565b34801561042a575f5ffd5b5061043461271081565b60405161ffff90911681526020016103f7565b348015610452575f5ffd5b506104666104613660046151c4565b610ea8565b6040516103f7919081511515815260208083015190820152604080830151908201526060918201519181019190915260800190565b3480156104a6575f5ffd5b506003545b6040519081526020016103f7565b3480156104c4575f5ffd5b506104ab6201518081565b3480156104da575f5ffd5b5061043461010081565b3480156104ef575f5ffd5b506105036104fe3660046151ee565b610f29565b005b348015610510575f5ffd5b5061050361051f366004615262565b611001565b34801561052f575f5ffd5b5061054361053e3660046151ee565b611133565b6040516103f791906152fa565b61050361055e3660046153a4565b6112b5565b34801561056e575f5ffd5b506104ab61057d3660046153ec565b5f9081526020819052604090206001015490565b34801561059c575f5ffd5b506104346105ab3660046151ee565b601360209081525f928352604080842090915290825290205461ffff1681565b3480156105d6575f5ffd5b506105036105e5366004615403565b6115cf565b3480156105f5575f5ffd5b50610503610604366004615403565b6115f9565b348015610614575f5ffd5b506106586106233660046151c4565b601060209081525f9283526040808420909152908252902080546001820154600283015460039093015460ff90921692909184565b60408051941515855260208501939093529183015260608201526080016103f7565b348015610685575f5ffd5b50610503610694366004615424565b611631565b3480156106a4575f5ffd5b506105036106b336600461548b565b611b14565b3480156106c3575f5ffd5b506104ab6106d23660046151ee565b600c60209081525f928352604080842090915290825290205481565b3480156106f9575f5ffd5b506103eb6107083660046151ee565b600f60209081525f928352604080842090915290825290205460ff1681565b348015610732575f5ffd5b506105036107413660046153ec565b611d30565b348015610751575f5ffd5b506104ab6107603660046153ec565b5f9081526005602052604090205490565b34801561077c575f5ffd5b5061050361078b3660046154e5565b611f1b565b34801561079b575f5ffd5b506107af6107aa3660046151ee565b612040565b6040516103f79998979695949392919061550e565b3480156107cf575f5ffd5b506105036107de366004615572565b612134565b3480156107ee575f5ffd5b506108026107fd366004615403565b612223565b6040516103f791906155a9565b34801561081a575f5ffd5b506104ab6108293660046151ee565b600d60209081525f928352604080842090915290825290205481565b348015610850575f5ffd5b5061050361085f3660046155f0565b612331565b34801561086f575f5ffd5b5061050361087e366004615403565b61268c565b34801561088e575f5ffd5b506104ab61089d3660046151ee565b600e60209081525f928352604080842090915290825290205481565b3480156108c4575f5ffd5b506104ab6108d3366004615403565b600760209081525f928352604080842090915290825290205481565b3480156108fa575f5ffd5b506104ab6109093660046153ec565b60146020525f908152604090205481565b348015610925575f5ffd5b50610503610934366004615634565b61276f565b348015610944575f5ffd5b506103eb610953366004615403565b612eb4565b348015610963575f5ffd5b50610434600181565b348015610977575f5ffd5b50610503610986366004615689565b612edc565b348015610996575f5ffd5b506104ab6109a53660046153ec565b612f84565b3480156109b5575f5ffd5b506109fd6109c43660046153ec565b600260208190525f91825260409091208054600182015491909201546001600160a01b0392831692821691600160a01b900460ff169084565b604080516001600160a01b0395861681529490931660208501529015159183019190915260608201526080016103f7565b348015610a39575f5ffd5b506104ab5f81565b348015610a4c575f5ffd5b50610503610a5b3660046153a4565b612fa3565b348015610a6b575f5ffd5b50610503610a7a3660046156aa565b613076565b348015610a8a575f5ffd5b50610503610a993660046156e7565b613644565b348015610aa9575f5ffd5b506104ab5f516020615c735f395f51905f5281565b348015610ac9575f5ffd5b506104ab610ad8366004615403565b600860209081525f928352604080842090915290825290205481565b348015610aff575f5ffd5b50610b13610b0e3660046151ee565b613797565b6040516001600160a01b0390911681526020016103f7565b348015610b36575f5ffd5b50600154610b13906001600160a01b031681565b348015610b55575f5ffd5b50610503610b64366004615403565b6137d1565b348015610b74575f5ffd5b506104ab610b833660046153ec565b6138f4565b348015610b93575f5ffd5b506104ab67016345785d8a000081565b348015610bae575f5ffd5b50610503610bbd3660046151ee565b613918565b348015610bcd575f5ffd5b506104345f81565b348015610be0575f5ffd5b50610503610bef36600461573b565b6139e1565b348015610bff575f5ffd5b50610503610c0e366004615403565b613ea9565b348015610c1e575f5ffd5b50610434610c2d36600461576d565b601260209081525f938452604080852082529284528284209052825290205461ffff1681565b348015610c5e575f5ffd5b50610b13610c6d366004615403565b600960209081525f92835260408084209091529082529020546001600160a01b031681565b348015610c9d575f5ffd5b50610503610cac3660046153ec565b613ecd565b348015610cbc575f5ffd5b50610503610ccb36600461579d565b613fe8565b610503610cde3660046153ec565b614314565b348015610cee575f5ffd5b506103eb610cfd36600461576d565b601160209081525f938452604080852082529284528284209052825290205460ff1681565b348015610d2d575f5ffd5b50610503610d3c366004615424565b614467565b348015610d4c575f5ffd5b50610d60610d5b366004615403565b6146a9565b6040516103f794939291906157e3565b348015610d7b575f5ffd5b506104ab610d8a3660046153ec565b60156020525f908152604090205481565b348015610da6575f5ffd5b50610e2f610db53660046153ec565b604080516080810182525f808252602082018190529181018290526060810191909152505f90815260026020818152604092839020835160808101855281546001600160a01b039081168252600183015490811693820193909352600160a01b90920460ff16151593820193909352910154606082015290565b6040516103f7919081516001600160a01b039081168252602080840151909116908201526040808301511515908201526060918201519181019190915260800190565b5f6001600160e01b03198216637965db0b60e01b1480610ea257506301ffc9a760e01b6001600160e01b03198316145b92915050565b610ed160405180608001604052805f151581526020015f81526020015f81526020015f81525090565b505f91825260106020908152604080842063ffffffff939093168452918152918190208151608081018352815460ff161515815260018201549381019390935260028101549183019190915260030154606082015290565b5f828152600260205260409020546001600160a01b0316610f5d576040516315858c8d60e31b815260040160405180910390fd5b610f6f610f6983614766565b33612eb4565b610f8b576040516282b42960e81b815260040160405180910390fd5b805f03610fab576040516310a571d160e31b815260040160405180910390fd5b5f8281526014602090815260409182902080549084905582518181529182018490529184917fb3e495fc3e71835a852989aa9b3d6b27f6b8d42624cb9b3cf02660a2398cc4f691015b60405180910390a2505050565b5f858152600260205260409020546001600160a01b0316611035576040516315858c8d60e31b815260040160405180910390fd5b611041610f6986614766565b61105d576040516282b42960e81b815260040160405180910390fd5b5f8581526004602090815260408083206001600160a01b038816845290915281206002015490036110a157604051636567cc4d60e11b815260040160405180910390fd5b5f8581526004602090815260408083206001600160a01b03881684529091529020600301805460ff1916841515179055826110f9575f8581526008602090815260408083206001600160a01b03881684529091528120555b836001600160a01b0316855f516020615cb35f395f51905f528585856040516111249392919061583b565b60405180910390a35050505050565b6111916040518061012001604052805f8152602001606081526020015f6001600160a01b031681526020015f81526020015f151581526020015f81526020015f81526020015f63ffffffff1681526020015f63ffffffff1681525090565b5f838152600a60209081526040808320858452825291829020825161012081019093528054835260018101805491928401916111cc9061585f565b80601f01602080910402602001604051908101604052809291908181526020018280546111f89061585f565b80156112435780601f1061121a57610100808354040283529160200191611243565b820191905f5260205f20905b81548152906001019060200180831161122657829003601f168201915b505050918352505060028201546001600160a01b0316602082015260038201546040820152600482015460ff161515606082015260058201546080820152600682015460a082015260079091015463ffffffff80821660c08401526401000000009091041660e0909101529392505050565b6112cc5f516020615c735f395f51905f5233612eb4565b156112ea57604051630bfde4ab60e01b815260040160405180910390fd5b5f838152600260205260409020546001600160a01b031661131e576040516315858c8d60e31b815260040160405180910390fd5b5f83815260026020526040902060010154600160a01b900460ff1661135657604051633ae035b560e21b815260040160405180910390fd5b5f838152601460205260409020543410156113a2575f83815260146020526040908190205490516322df051360e11b815234600482015260248101919091526044015b60405180910390fd5b5f8381526004602090815260408083203384529091529020600201541515806113e657505f83815260046020908152604080832033845290915290206003015460ff165b156114045760405163781f2ed160e11b815260040160405180910390fd5b604051806080016040528084815260200183838080601f0160208091040260200160405190810160405280939291908181526020018383808284375f92018290525093855250503460208085019190915260016040948501819052888452600482528484203385528252939092208451815591840151919283019161148a9150826158ef565b5060408281015160028301556060909201516003909101805460ff19169115159190911790555f848152600660209081528282203383529052205460ff1661151e575f8381526005602090815260408083208054600181810183559185528385200180546001600160a01b0319163390811790915587855260068452828520908552909252909120805460ff191690911790555b5f83815260086020908152604080832033808552925280832092909255905184907f89093fa8f3c791613d772d3d77195c6050e6b0d2f7915c934f7299c3e60e14d190611570908690869034906159aa565b60405180910390a3336001600160a01b0316835f516020615cb35f395f51905f5260016040516115c29115158152604060208201819052600690820152651293d253915160d21b606082015260800190565b60405180910390a3505050565b5f828152602081905260409020600101546115e9816147c7565b6115f383836147d1565b50505050565b6001600160a01b03811633146116225760405163334bd91960e11b815260040160405180910390fd5b61162c8282614860565b505050565b5f848152600260205260409020546001600160a01b0316611665576040516315858c8d60e31b815260040160405180910390fd5b5f8481526004602090815260408083206001600160a01b038716845290915290206003015460ff16156116ab57604051631ae4c62160e31b815260040160405180910390fd5b5f8481526004602090815260408083206001600160a01b038716845290915281206002015490036116ef5760405163e5e6218160e01b815260040160405180910390fd5b5f8481526008602090815260408083206001600160a01b03871684529091529020541561172f57604051633c10931960e21b815260040160405180910390fd5b5f8481526009602090815260408083206001600160a01b0387811685529252909120541633146117725760405163ce4f24bb60e01b815260040160405180910390fd5b5f8481526004602090815260408083203384529091529020600201541515806117b657505f84815260046020908152604080832033845290915290206003015460ff165b156117d457604051632f55c93160e11b815260040160405180910390fd5b5f8481526004602090815260408083206001600160a01b038716845282528083208151608081019092528054825260018101805492939192918401916118199061585f565b80601f01602080910402602001604051908101604052809291908181526020018280546118459061585f565b80156118905780601f1061186757610100808354040283529160200191611890565b820191905f5260205f20905b81548152906001019060200180831161187357829003601f168201915b50505091835250506002820154602082015260039091015460ff1615156040918201528101519091505f036118d857604051636567cc4d60e11b815260040160405180910390fd5b6040805160808101825286815260208381015181830190815284840151838501526060808601511515908401525f89815260048352848120338252909252929020815181559151909190600182019061193190826158ef565b5060408281015160028301556060909201516003909101805460ff19169115159190911790555f868152600660209081528282203383529052205460ff166119c5575f8581526005602090815260408083208054600181810183559185528385200180546001600160a01b0319163390811790915589855260068452828520908552909252909120805460ff191690911790555b5f8581526007602090815260408083206001600160a01b03881680855290835281842054338086528386209190915589855260088452828520908552835281842084905588845260048352818420908452909152812081815590611a2c60018301826150ec565b505f600282018190556003909101805460ff191690558581526007602090815260408083206001600160a01b038816808552908352818420849055888452600883528184208185528352818420849055888452600983528184208185529092529182902080546001600160a01b0319169055828201519151339288917fd9f8b9c3708d68f065bd3abc87d385dd96a656d93537a092b9612a9775bd631091611ad791899089906159cd565b60405180910390a46040515f90339087907f7e8f7689d5c1589dea13355ed1b30d2a11c050a08189c224a84103455f87036f908490a45050505050565b5f858152600260205260409020546001600160a01b0316611b48576040516315858c8d60e31b815260040160405180910390fd5b611b54610f6986614766565b611b70576040516282b42960e81b815260040160405180910390fd5b6001600160a01b038316611b96576040516282b42960e81b815260040160405180910390fd5b818015611bb55750611bb55f516020615c735f395f51905f5284612eb4565b15611bd357604051630bfde4ab60e01b815260040160405180910390fd5b8115611c5257600161ffff82161080611bf1575061010061ffff8216115b15611c0f57604051636005ea8760e11b815260040160405180910390fd5b5f85815260126020908152604080832063ffffffff8816845282528083206001600160a01b03871684529091529020805461ffff191661ffff8316179055611c8b565b5f85815260126020908152604080832063ffffffff8816845282528083206001600160a01b03871684529091529020805461ffff191690555b5f85815260116020908152604080832063ffffffff88168085529083528184206001600160a01b038816808652908452828520805460ff19168815159081179091558a865260128552838620838752855283862082875285529483902054835195865261ffff1693850193909352919288917fdef872ea7445739ffc07c56472edf8475b85cca6440175796472fbf2026f079d91015b60405180910390a45050505050565b611d386148c9565b5f81815260086020908152604080832033845290915281205490819003611d7257604051631509a84360e11b815260040160405180910390fd5b80421015611d9657604051633a84e5cf60e01b815260048101829052602401611399565b5f82815260046020908152604080832033845290915281206002015490819003611dd357604051636567cc4d60e11b815260040160405180910390fd5b5f8381526004602090815260408083203380855290835281842060028101859055600301805460ff19169055868452600883528184208185529092528083208390555183908381818185875af1925050503d805f8114611e4e576040519150601f19603f3d011682016040523d82523d5f602084013e611e53565b606091505b5050905080611e7557604051630db2c7f160e31b815260040160405180910390fd5b604051828152339085907fc95c831f7facab10cbf2586454bb2cdaec5e9702311d8c3c3c2cc804a1abb4ca9060200160405180910390a3336001600160a01b0316845f516020615cb35f395f51905f525f604051611ef7911515815260406020820181905260089082015267155394d51052d15160c21b606082015260800190565b60405180910390a3505050611f1860015f516020615c935f395f51905f5255565b50565b5f838152600260205260409020546001600160a01b0316611f4f576040516315858c8d60e31b815260040160405180910390fd5b611f5b610f6984614766565b611f77576040516282b42960e81b815260040160405180910390fd5b81611f95576040516310a571d160e31b815260040160405180910390fd5b61ffff81161580611fab575061271061ffff8216115b15611fcf576040516332938fe960e21b815261ffff82166004820152602401611399565b5f838152601360209081526040808320858452825291829020805461ffff19811661ffff868116918217909355845192909116808352928201529091849186917fcb56c846dda3cc605bef1888996092a907b9919475bf7505bda8fa8c95123301910160405180910390a350505050565b600a60209081525f92835260408084209091529082529020805460018201805491929161206c9061585f565b80601f01602080910402602001604051908101604052809291908181526020018280546120989061585f565b80156120e35780601f106120ba576101008083540402835291602001916120e3565b820191905f5260205f20905b8154815290600101906020018083116120c657829003601f168201915b5050506002840154600385015460048601546005870154600688015460079098015496976001600160a01b039094169692955060ff9091169350919063ffffffff8082169164010000000090041689565b5f848152600a60209081526040808320868452909152902060028101546001600160a01b0316612177576040516328193b9d60e21b815260040160405180910390fd5b612183610f69866148e4565b15801561219d575060028101546001600160a01b03163314155b156121ba576040516282b42960e81b815260040160405180910390fd5b600481015460ff166121df5760405163499945c160e01b815260040160405180910390fd5b60048101805460ff191690556040513390859087907fc3cb92e8b6c0aebd791488f8d927216bf2ea5ede447d480f483c21865b04f1a190611d2190889088906159e6565b61224d60405180608001604052805f8152602001606081526020015f81526020015f151581525090565b5f8381526004602090815260408083206001600160a01b03861684528252918290208251608081019093528054835260018101805491928401916122909061585f565b80601f01602080910402602001604051908101604052809291908181526020018280546122bc9061585f565b80156123075780601f106122de57610100808354040283529160200191612307565b820191905f5260205f20905b8154815290600101906020018083116122ea57829003601f168201915b50505091835250506002820154602082015260039091015460ff1615156040909101529392505050565b5f516020615c735f395f51905f52612348816147c7565b83612366576040516310a571d160e31b815260040160405180910390fd5b5f6123746020840184615a01565b6001600160a01b0316148061239057506001600160a01b038316155b156123ae57604051630e4607ed60e41b815260040160405180910390fd5b5f6123bf6040840160208501615a01565b6001600160a01b031614806123eb57505f6123e06060840160408501615a01565b6001600160a01b0316145b1561240957604051630e4607ed60e41b815260040160405180910390fd5b6124275f516020615c735f395f51905f526109536020850185615a01565b1561244557604051630bfde4ab60e01b815260040160405180910390fd5b81606001355f03612469576040516310a571d160e31b815260040160405180910390fd5b81608001355f0361248d576040516310a571d160e31b815260040160405180910390fd5b5f848152600260205260409020546001600160a01b0316156124c2576040516355ad509160e11b815260040160405180910390fd5b6040805160808101909152806124db6020850185615a01565b6001600160a01b03908116825285811660208084019190915260016040808501829052426060958601525f8a81526002808552828220885181549088166001600160a01b0319909116178155948801518585018054948a01511515600160a01b026001600160a81b0319909516919097161792909217909455949093015193019290925560038054918201815582527fc2575a0e9e593c00f959f8c92f12db2869c3395a3b0502d05e2516446f71f85b01859055612598856148e4565b90505f6125a486614920565b90505f6125b087614766565b90506125c8836125c36020880188615a01565b6147d1565b506125dd826125c36040880160208901615a01565b506125f2816125c36060880160408901615a01565b506125fd838461495e565b612607828461495e565b612611818461495e565b5f8781526014602090815260408083206060890135905560158252909120608087013590556001600160a01b0387169061264d90870187615a01565b6001600160a01b0316887f76815c6c3d66579360681cc597126b11d4eaabe670b868db92df92d641a5965c60405160405180910390a450505050505050565b5f828152600260205260409020546001600160a01b03166126c0576040516315858c8d60e31b815260040160405180910390fd5b6126cc610f69836148e4565b6126e8576040516282b42960e81b815260040160405180910390fd5b6001600160a01b03811661270f57604051630e4607ed60e41b815260040160405180910390fd5b5f8281526002602052604080822060010180546001600160a01b031981166001600160a01b038681169182179093559251911692839186917f7e9441be41617a5403de8dfc31de5901f7525f4e4a606654266fa886d567f53f91a4505050565b6127776148c9565b82355f908152600260205260409020546001600160a01b03166127ad576040516315858c8d60e31b815260040160405180910390fd5b82355f90815260026020526040902060010154600160a01b900460ff166127e757604051633ae035b560e21b815260040160405180910390fd5b82610100013542111561280d5760405163df4cc36d60e01b815260040160405180910390fd5b82355f908152600a602090815260408083208287013584529091529020600201546001600160a01b0316156128555760405163019b268b60e71b815260040160405180910390fd5b5f6128618484846149a8565b905061287a5f516020615c735f395f51905f5282612eb4565b1561289857604051630bfde4ab60e01b815260040160405180910390fd5b83355f9081526004602090815260408083206001600160a01b038516845290915281206002015490036128de5760405163127225b560e11b815260040160405180910390fd5b83355f9081526004602090815260408083206001600160a01b038516845290915290206003015460ff1661292557604051631a8660cb60e01b815260040160405180910390fd5b83355f9081526007602090815260408083206001600160a01b038516845290915290205460e08501351461296c57604051638baa579f60e01b815260040160405180910390fd5b60408051610120810182528535815290602082019061298d90870187615a1a565b8080601f0160208091040260200160405190810160405280939291908181526020018383808284375f920191909152505050908252506001600160a01b0383166020820152426040820152600160608083019190915286013560808083019190915286013560a08083019190915260c091820191612a1091908801908801615a5d565b63ffffffff168152602001612a2b60e0870160c08801615a5d565b63ffffffff16905284355f908152600a60209081526040808320828901358452825290912082518155908201516001820190612a6790826158ef565b506040828101516002830180546001600160a01b039283166001600160a01b031990911617905560608401516003840155608084015160048401805491151560ff1992831617905560a080860151600586015560c080870151600687015560e0870151600790960180546101009098015163ffffffff9081166401000000000267ffffffffffffffff199099169716969096179690961790945588355f818152600b6020908152858220818d0135808452908252868320958a16835294815285822080549094166001908117909455828252600c81528582209482529384528481209290925581526010909152908120909290918391612b6c91908901908901615a5d565b63ffffffff16815260208082019290925260409081015f208151608081018352815460ff1615158082526001830154948201949094526002820154928101929092526003015460608201529150612bea5784355f908152600f602090815260408083208289013584529091529020805460ff19166001179055612d49565b84355f90815260116020526040812090612c0a60c0880160a08901615a5d565b63ffffffff16815260208082019290925260409081015f9081206001600160a01b038616825290925290205460ff168015612c6f575060208082015186355f9081526004835260408082206001600160a01b0387168352909352919091206002015410155b15612d495784355f90815260126020526040812081612c9460c0890160a08a01615a5d565b63ffffffff16815260208082019290925260409081015f9081206001600160a01b038716825290925290205461ffff16905060018110801590612cdd575061010061ffff821611155b15612d475785355f908152600d60209081526040808320828a01358452909152902060019055612d0c81614b53565b86355f818152600e60209081526040808320828c0135808552925290912092909255612d4791612d4260c08a0160a08b01615a5d565b614b6e565b505b612d5860e08601356001615a8a565b85355f8181526007602090815260408083206001600160a01b0388168085529252909120929092557f092b6bbc92673a71e1b53a3b945184caf28010a041d50f717734c740984858d460e0880135612db1816001615a8a565b6040805192835260208301919091520160405180910390a36001600160a01b038216602086013586357fd352cb361a4f142c2abad9421dd213ae4d4b7e836b57e422fbb6c0d6512632e4612e0860408a018a615a1a565b60608b013560808c0135612e2260c08e0160a08f01615a5d565b8d60c0016020810190612e359190615a5d565b604051612e4796959493929190615a9d565b60405180910390a4816001600160a01b03168560200135865f01357f1aa23f6aa7a78fe1f2e49edc378c1d7d45f3593993339beb9f6f9835f87517be6001604051612e9491815260200190565b60405180910390a4505061162c60015f516020615c935f395f51905f5255565b5f918252602082815260408084206001600160a01b0393909316845291905290205460ff1690565b5f516020615c735f395f51905f52612ef3816147c7565b5f838152600260205260409020546001600160a01b0316612f27576040516315858c8d60e31b815260040160405180910390fd5b5f83815260026020526040908190206001018054841515600160a01b0260ff60a01b199091161790555183907ff232ed796c7d121df062e0962438bf7a57d1fb9a2c6451caaf7e2695a963cfe690610ff490851515815260200190565b60038181548110612f93575f80fd5b5f91825260209091200154905081565b5f838152600260205260409020546001600160a01b0316612fd7576040516315858c8d60e31b815260040160405180910390fd5b5f83815260046020908152604080832033845290915290206003015460ff1661301357604051631a8660cb60e01b815260040160405180910390fd5b5f8381526004602090815260408083203384529091529020600101613039828483615adb565b50336001600160a01b0316837f8313da849f3eb567d52489e0ba249ce302063096590f8d8b6025d5f7fec89ad984846040516115c29291906159e6565b61307e6148c9565b82355f908152600260205260409020546001600160a01b03166130b4576040516315858c8d60e31b815260040160405180910390fd5b82355f90815260026020526040902060010154600160a01b900460ff166130ee57604051633ae035b560e21b815260040160405180910390fd5b82606001354211156131135760405163df4cc36d60e01b815260040160405180910390fd5b82355f908152600a602090815260408083208287013584528252808320815161012081019092528054825260018101805492939192918401916131559061585f565b80601f01602080910402602001604051908101604052809291908181526020018280546131819061585f565b80156131cc5780601f106131a3576101008083540402835291602001916131cc565b820191905f5260205f20905b8154815290600101906020018083116131af57829003601f168201915b505050918352505060028201546001600160a01b0390811660208301526003830154604080840191909152600484015460ff161515606084015260058401546080840152600684015460a084015260079093015463ffffffff80821660c08501526401000000009091041660e0909201919091529082015191925016613265576040516328193b9d60e21b815260040160405180910390fd5b80608001516132875760405163b863738b60e01b815260040160405180910390fd5b5f613293858585614cf2565b90506132ac5f516020615c735f395f51905f5282612eb4565b156132ca57604051630bfde4ab60e01b815260040160405180910390fd5b84355f9081526004602090815260408083206001600160a01b038516845290915281206002015490036133105760405163127225b560e11b815260040160405180910390fd5b84355f9081526004602090815260408083206001600160a01b038516845290915290206003015460ff1661335757604051631a8660cb60e01b815260040160405180910390fd5b84355f9081526007602090815260408083206001600160a01b03851684529091529081902054908601351461339f57604051638baa579f60e01b815260040160405180910390fd5b84355f908152600b6020908152604080832082890135845282528083206001600160a01b038516845290915290205460ff16156133ef57604051630709bc1d60e31b815260040160405180910390fd5b84355f90815260106020908152604080832060e086015163ffffffff16845282528083208151608081018352815460ff161580158252600183015494820194909452600282015492810192909252600301546060820152919061346657613463875f01358560e00151858560200151614d50565b90505b86355f818152600b60209081526040808320828c01358085529083528184206001600160a01b03891685528352818420805460ff19166001908117909155948452600c835281842090845290915281205490916134c39190615a8a565b88355f908152600c60209081526040808320828d01358452909152908190208290559091506134f6908901356001615a8a565b88355f9081526007602090815260408083206001600160a01b03891684529091529020558251156135885787355f908152600d60209081526040808320828c01358452909152812080546001929061354f908490615a8a565b909155505087355f818152600e60209081526040808320828d0135808552925290912080548517905560e0870151613588929190614b6e565b6001600160a01b03841688357f092b6bbc92673a71e1b53a3b945184caf28010a041d50f717734c740984858d460408b01356135c5816001615a8a565b6040805192835260208301919091520160405180910390a3836001600160a01b03168860200135895f01357f1aa23f6aa7a78fe1f2e49edc378c1d7d45f3593993339beb9f6f9835f87517be8460405161362191815260200190565b60405180910390a4505050505061162c60015f516020615c935f395f51905f5255565b5f868152600260205260409020546001600160a01b0316613678576040516315858c8d60e31b815260040160405180910390fd5b613684610f6987614766565b6136a0576040516282b42960e81b815260040160405180910390fd5b8380156136ab575081155b80156136b5575080155b156136d357604051631cc23ed560e31b815260040160405180910390fd5b6040805160808101825285151581526020808201868152828401868152606084018681525f8c81526010855286812063ffffffff8d1680835295528690209451855490151560ff199091161785559151600185015551600284015551600390920191909155905187907ff0a24041e06d08c0414775769d1f217c906f14d760e3f298d16d2c64b2672d9090613787908890889088908890931515845260208401929092526040830152606082015260800190565b60405180910390a3505050505050565b5f8281526005602052604081208054839081106137b6576137b6615b95565b5f918252602090912001546001600160a01b03169392505050565b5f828152600260205260409020546001600160a01b0316613805576040516315858c8d60e31b815260040160405180910390fd5b5f82815260046020908152604080832033845290915290206003015460ff1661384157604051631a8660cb60e01b815260040160405180910390fd5b6001600160a01b03811661386857604051632f55c93160e11b815260040160405180910390fd5b336001600160a01b0382160361389157604051632f55c93160e11b815260040160405180910390fd5b5f82815260096020908152604080832033808552925280832080546001600160a01b0319166001600160a01b0386169081179091559051909285917f7e8f7689d5c1589dea13355ed1b30d2a11c050a08189c224a84103455f87036f9190a45050565b5f6003828154811061390857613908615b95565b905f5260205f2001549050919050565b5f828152600260205260409020546001600160a01b031661394c576040516315858c8d60e31b815260040160405180910390fd5b613958610f6983614766565b613974576040516282b42960e81b815260040160405180910390fd5b805f03613994576040516310a571d160e31b815260040160405180910390fd5b5f8281526015602090815260409182902080549084905582518181529182018490529184917fac9a0b846eb7810e402bb79aeb08206ea6da2dc091e6775f62391fcf42df6cfc9101610ff4565b5f858152600260205260409020546001600160a01b0316613a15576040516315858c8d60e31b815260040160405180910390fd5b613a21610f6986614766565b613a3d576040516282b42960e81b815260040160405180910390fd5b5f8581526004602090815260408083206001600160a01b038816845290915290206003015460ff1615613a8357604051631ae4c62160e31b815260040160405180910390fd5b6001600160a01b0383161580613aaa5750836001600160a01b0316836001600160a01b0316145b15613ac857604051632f55c93160e11b815260040160405180910390fd5b5f8581526004602090815260408083206001600160a01b0387168452909152902060020154151580613b1e57505f8581526004602090815260408083206001600160a01b038716845290915290206003015460ff165b15613b3c57604051632f55c93160e11b815260040160405180910390fd5b5f8581526004602090815260408083206001600160a01b03881684528252808320815160808101909252805482526001810180549293919291840191613b819061585f565b80601f0160208091040260200160405190810160405280929190818152602001828054613bad9061585f565b8015613bf85780601f10613bcf57610100808354040283529160200191613bf8565b820191905f5260205f20905b815481529060010190602001808311613bdb57829003601f168201915b50505091835250506002820154602082015260039091015460ff1615156040918201528101519091505f03613c4057604051636567cc4d60e11b815260040160405180910390fd5b6040805160808101825287815260208381015181830190815284840151838501526060808601511515908401525f8a8152600483528481206001600160a01b038a1682529092529290208151815591519091906001820190613ca290826158ef565b5060408281015160028301556060909201516003909101805460ff19169115159190911790555f878152600660209081528282206001600160a01b03881683529052205460ff16613d48575f8681526005602090815260408083208054600180820183559185528385200180546001600160a01b0319166001600160a01b038a169081179091558a855260068452828520908552909252909120805460ff191690911790555b5f8681526007602090815260408083206001600160a01b0389811680865291845282852054908916808652838620919091558a855260088452828520908552835281842084905589845260048352818420908452909152812081815590613db260018301826150ec565b505f600282018190556003909101805460ff191690558681526007602090815260408083206001600160a01b03808a168086529184528285208590558a85526008845282852082865284528285208590558a8552600984528285208286529093529281902080546001600160a01b0319169055838101519051918716929189917fd9f8b9c3708d68f065bd3abc87d385dd96a656d93537a092b9612a9775bd631091613e629190899089906159cd565b60405180910390a46040515f906001600160a01b0386169088907f7e8f7689d5c1589dea13355ed1b30d2a11c050a08189c224a84103455f87036f908490a4505050505050565b5f82815260208190526040902060010154613ec3816147c7565b6115f38383614860565b5f818152600260205260409020546001600160a01b0316613f01576040516315858c8d60e31b815260040160405180910390fd5b5f81815260046020908152604080832033845290915290206003015460ff16613f3d57604051631a8660cb60e01b815260040160405180910390fd5b5f8181526004602090815260408083203384529091528120600201549003613f7857604051636567cc4d60e11b815260040160405180910390fd5b5f81815260156020526040812054613f909042615a8a565b5f838152600860209081526040808320338085529083529281902084905551838152929350909184917f1e522a03c71586a099d51a73c0f68c1c799fed85c43cf290bcf7158d8b163ad2910160405180910390a35050565b613ff06148c9565b6001600160a01b0384163303614019576040516358f62b7160e11b815260040160405180910390fd5b5f858152600260205260409020546001600160a01b031661404d576040516315858c8d60e31b815260040160405180910390fd5b614059610f6986614920565b614075576040516282b42960e81b815260040160405180910390fd5b5f8581526004602090815260408083206001600160a01b0388168452909152812060020154908190036140bb57604051636567cc4d60e11b815260040160405180910390fd5b5f86815260136020908152604080832087845290915281205461ffff16908190036140fc576040516331deee5760e01b815260048101869052602401611399565b5f61271061410e61ffff841685615ba9565b6141189190615bc0565b9050805f03614125575060015b5f6141308285615bdf565b5f8a81526004602090815260408083206001600160a01b038d168085529083528184206002018590558d84526008835281842090845282528083208390558c83526014909152902054909150811015614226575f8981526004602090815260408083206001600160a01b038c16808552908352818420600301805460ff191690558c845260098352818420818552835281842080546001600160a01b03191690558151938452918301819052601c908301527f534f46545f534c41534845445f42454c4f575f4d494e5f5354414b45000000006060830152908a905f516020615cb35f395f51905f529060800160405180910390a35b5f898152600260205260408082206001015490516001600160a01b039091169084908381818185875af1925050503d805f811461427e576040519150601f19603f3d011682016040523d82523d5f602084013e614283565b606091505b50509050806142a557604051630db2c7f160e31b815260040160405180910390fd5b87896001600160a01b03168b7fe7a3bd933c3f07d41c0cb8538135a0a594505125738765a878a693108558ac3b878787338e8e6040516142ea96959493929190615bf2565b60405180910390a4505050505061430d60015f516020615c935f395f51905f5255565b5050505050565b5f818152600260205260409020546001600160a01b0316614348576040516315858c8d60e31b815260040160405180910390fd5b5f81815260046020908152604080832033845290915281206002015490036143835760405163127225b560e11b815260040160405180910390fd5b5f81815260046020908152604080832033845290915290206003015460ff166143bf57604051631a8660cb60e01b815260040160405180910390fd5b345f036143df57604051636567cc4d60e11b815260040160405180910390fd5b5f8181526004602090815260408083203384529091528120600201805434929061440a908490615a8a565b90915550505f81815260046020908152604080832033808552908352928190206002015481513481529283015283917f98354ada0e4b6a8410fec2063480eb039a321691ae42acf10b9ad333b092672f910160405180910390a350565b61446f6148c9565b5f848152600260205260409020546001600160a01b03166144a3576040516315858c8d60e31b815260040160405180910390fd5b6144af610f6985614920565b6144cb576040516282b42960e81b815260040160405180910390fd5b5f8481526004602090815260408083206001600160a01b03871684529091528120600201549081900361451157604051636567cc4d60e11b815260040160405180910390fd5b5f8581526004602090815260408083206001600160a01b0388811680865291845282852060038101805460ff1916905560029081018690558a86526008855283862083875285528386208690558a86526009855283862092865291845282852080546001600160a01b0319169055898552925280832060010154905191169083908381818185875af1925050503d805f81146145c8576040519150601f19603f3d011682016040523d82523d5f602084013e6145cd565b606091505b50509050806145ef57604051630db2c7f160e31b815260040160405180910390fd5b336001600160a01b0316856001600160a01b0316877f175ef2f76f006472eb75e90808dc704bb073491330e002ec9e017969699c14ca858888604051614637939291906159cd565b60405180910390a4846001600160a01b0316865f516020615cb35f395f51905f525f60405161468991151581526040602082018190526007908201526614d31054d2115160ca1b606082015260800190565b60405180910390a350506115f360015f516020615c935f395f51905f5255565b600460209081525f9283526040808420909152908252902080546001820180549192916146d59061585f565b80601f01602080910402602001604051908101604052809291908181526020018280546147019061585f565b801561474c5780601f106147235761010080835404028352916020019161474c565b820191905f5260205f20905b81548152906001019060200180831161472f57829003601f168201915b50505050600283015460039093015491929160ff16905084565b6040805160208101829052601c60608201527f54454e414e545f4f50455241544f525f4d414e414745525f524f4c450000000060808201529081018290525f9060a0015b604051602081830303815290604052805190602001209050919050565b611f188133614e8d565b5f6147dc8383612eb4565b614859575f838152602081815260408083206001600160a01b03861684529091529020805460ff191660011790556148113390565b6001600160a01b0316826001600160a01b0316847f2f8788117e7eff1d82e926ec794901d17c78024a50270940304540a733656f0d60405160405180910390a4506001610ea2565b505f610ea2565b5f61486b8383612eb4565b15614859575f838152602081815260408083206001600160a01b0386168085529252808320805460ff1916905551339286917ff6391f5c32d9c69d2a47ea670b442974b53935d1edc7fd64eb21e047a839171b9190a4506001610ea2565b6148d1614eca565b60025f516020615c935f395f51905f5255565b6040805160208101829052601160608201527054454e414e545f41444d494e5f524f4c4560781b60808201529081018290525f9060a0016147aa565b6040805160208101829052601360608201527254454e414e545f534c41534845525f524f4c4560681b60808201529081018290525f9060a0016147aa565b5f82815260208190526040808220600101805490849055905190918391839186917fbd79b86ffe0ab8e8776151514217cd7cacd52c909f66475c3af44e129f0b00ff9190a4505050565b5f807f5a2a29527149cfad2193f6f6cc0087ff61ae917e661c07c22456d63a5183659c853560208701356149df6040890189615a1a565b6040516149ed929190615c35565b604051908190039020606089013560808a0135614a1060c08c0160a08d01615a5d565b614a2060e08d0160c08e01615a5d565b6040805160208101999099528801969096526060870194909452608086019290925260a085015260c084015263ffffffff90811660e08481019190915291166101008381019190915290870135610120830152860135610140820152610160015b6040516020818303038152906040528051906020012090505f614ade7f00000000000000000000000000000000000000000000000000000000000000008360405161190160f01b8152600281019290925260228201526042902090565b9050614b2185858080601f0160208091040260200160405190810160405280939291908181526020018383808284375f920191909152508593925050614efb9050565b92506001600160a01b038316614b4a57604051638baa579f60e01b815260040160405180910390fd5b50509392505050565b5f614b5f600183615c44565b61ffff166001901b9050919050565b5f838152600f6020908152604080832085845290915290205460ff1615614b9457505050565b5f83815260106020908152604080832063ffffffff851684528252918290208251608081018452815460ff161515808252600183015493820193909352600282015493810193909352600301546060830152614c115750505f918252600f602090815260408084209284529190529020805460ff19166001179055565b6040808201515f868152600d60209081528382208783528152838220546060860151898452600e8352858420898552909252939091205491909210801592918216909114908290614c5f5750805b15614cea575f868152600f602090815260408083208884528252808320805460ff19166001179055888352600d8252808320888452825280832054898452600e835281842089855290925291829020549151879289927faddff4259d1ed72121575a0a8627d986e7e63da19e837c06d33a958c61e73032926137879290918252602082015260400190565b505050505050565b604080517f362c00056d2ad738d0353633a51831825692201225c7f50e6206735b03e575e06020828101919091528535828401528501356060828101919091529185013560808201529084013560a08201525f90819060c001614a81565b5f84815260116020908152604080832063ffffffff8716845282528083206001600160a01b038616845290915281205460ff16614da05760405163fbf23f3360e01b815260040160405180910390fd5b5f8581526004602090815260408083206001600160a01b0387168452909152902060020154821115614e14575f8581526004602081815260408084206001600160a01b03881685529091529182902060020154915162c09e3560e81b81526113999291859101918252602082015260400190565b5f85815260126020908152604080832063ffffffff8816845282528083206001600160a01b038716845290915290205461ffff166001811080614e5c575061010061ffff8216115b15614e7a57604051636005ea8760e11b815260040160405180910390fd5b614e8381614b53565b9695505050505050565b614e978282612eb4565b614ec65760405163e2517d3f60e01b81526001600160a01b038216600482015260248101839052604401611399565b5050565b5f516020615c935f395f51905f5254600203614ef957604051633ee5aeb560e01b815260040160405180910390fd5b565b5f5f5f5f614f098686614f23565b925092509250614f198282614f6c565b5090949350505050565b5f5f5f8351604103614f5a576020840151604085015160608601515f1a614f4c88828585615024565b955095509550505050614f65565b505081515f91506002905b9250925092565b5f826003811115614f7f57614f7f615c5e565b03614f88575050565b6001826003811115614f9c57614f9c615c5e565b03614fba5760405163f645eedf60e01b815260040160405180910390fd5b6002826003811115614fce57614fce615c5e565b03614fef5760405163fce698f760e01b815260048101829052602401611399565b600382600381111561500357615003615c5e565b03614ec6576040516335e2f38360e21b815260048101829052602401611399565b5f80807f7fffffffffffffffffffffffffffffff5d576e7357a4501ddfe92f46681b20a084111561505d57505f915060039050826150e2565b604080515f808252602082018084528a905260ff891692820192909252606081018790526080810186905260019060a0016020604051602081039080840390855afa1580156150ae573d5f5f3e3d5ffd5b5050604051601f1901519150506001600160a01b0381166150d957505f9250600191508290506150e2565b92505f91508190505b9450945094915050565b5080546150f89061585f565b5f825580601f10615107575050565b601f0160209004905f5260205f2090810190611f1891905b80821115615132575f815560010161511f565b5090565b80356001600160a01b038116811461514c575f5ffd5b919050565b5f5f5f60608486031215615163575f5ffd5b833592506020840135915061517a60408501615136565b90509250925092565b5f60208284031215615193575f5ffd5b81356001600160e01b0319811681146151aa575f5ffd5b9392505050565b803563ffffffff8116811461514c575f5ffd5b5f5f604083850312156151d5575f5ffd5b823591506151e5602084016151b1565b90509250929050565b5f5f604083850312156151ff575f5ffd5b50508035926020909101359150565b8035801515811461514c575f5ffd5b5f5f83601f84011261522d575f5ffd5b50813567ffffffffffffffff811115615244575f5ffd5b60208301915083602082850101111561525b575f5ffd5b9250929050565b5f5f5f5f5f60808688031215615276575f5ffd5b8535945061528660208701615136565b93506152946040870161520e565b9250606086013567ffffffffffffffff8111156152af575f5ffd5b6152bb8882890161521d565b969995985093965092949392505050565b5f81518084528060208401602086015e5f602082860101526020601f19601f83011685010191505092915050565b60208152815160208201525f602083015161012060408401526153216101408401826152cc565b9050604084015161533d60608501826001600160a01b03169052565b5060608401516080840152608084015161535b60a085018215159052565b5060a084015160c084015260c084015160e084015260e084015161538861010085018263ffffffff169052565b5061010084015163ffffffff8116610120850152509392505050565b5f5f5f604084860312156153b6575f5ffd5b83359250602084013567ffffffffffffffff8111156153d3575f5ffd5b6153df8682870161521d565b9497909650939450505050565b5f602082840312156153fc575f5ffd5b5035919050565b5f5f60408385031215615414575f5ffd5b823591506151e560208401615136565b5f5f5f5f60608587031215615437575f5ffd5b8435935061544760208601615136565b9250604085013567ffffffffffffffff811115615462575f5ffd5b61546e8782880161521d565b95989497509550505050565b803561ffff8116811461514c575f5ffd5b5f5f5f5f5f60a0868803121561549f575f5ffd5b853594506154af602087016151b1565b93506154bd60408701615136565b92506154cb6060870161520e565b91506154d96080870161547a565b90509295509295909350565b5f5f5f606084860312156154f7575f5ffd5b833592506020840135915061517a6040850161547a565b89815261012060208201525f61552861012083018b6152cc565b6001600160a01b03999099166040830152506060810196909652931515608086015260a085019290925260c084015263ffffffff90811660e0840152166101009091015292915050565b5f5f5f5f60608587031215615585575f5ffd5b8435935060208501359250604085013567ffffffffffffffff811115615462575f5ffd5b60208152815160208201525f6020830151608060408401526155ce60a08401826152cc565b9050604084015160608401526060840151151560808401528091505092915050565b5f5f5f83850360e0811215615603575f5ffd5b8435935061561360208601615136565b925060a0603f1982011215615626575f5ffd5b506040840190509250925092565b5f5f5f60408486031215615646575f5ffd5b833567ffffffffffffffff81111561565c575f5ffd5b8401610120818703121561566e575f5ffd5b9250602084013567ffffffffffffffff8111156153d3575f5ffd5b5f5f6040838503121561569a575f5ffd5b823591506151e56020840161520e565b5f5f5f83850360a08112156156bd575f5ffd5b60808112156156ca575f5ffd5b50839250608084013567ffffffffffffffff8111156153d3575f5ffd5b5f5f5f5f5f5f60c087890312156156fc575f5ffd5b8635955061570c602088016151b1565b945061571a6040880161520e565b959894975094956060810135955060808101359460a0909101359350915050565b5f5f5f5f5f6080868803121561574f575f5ffd5b8535945061575f60208701615136565b935061529460408701615136565b5f5f5f6060848603121561577f575f5ffd5b8335925061578f602085016151b1565b915061517a60408501615136565b5f5f5f5f5f608086880312156157b1575f5ffd5b853594506157c160208701615136565b935060408601359250606086013567ffffffffffffffff8111156152af575f5ffd5b848152608060208201525f6157fb60808301866152cc565b60408301949094525090151560609091015292915050565b81835281816020850137505f828201602090810191909152601f909101601f19169091010190565b8315158152604060208201525f615856604083018486615813565b95945050505050565b600181811c9082168061587357607f821691505b60208210810361589157634e487b7160e01b5f52602260045260245ffd5b50919050565b634e487b7160e01b5f52604160045260245ffd5b601f82111561162c57805f5260205f20601f840160051c810160208510156158d05750805b601f840160051c820191505b8181101561430d575f81556001016158dc565b815167ffffffffffffffff81111561590957615909615897565b61591d81615917845461585f565b846158ab565b6020601f82116001811461594f575f83156159385750848201515b5f19600385901b1c1916600184901b17845561430d565b5f84815260208120601f198516915b8281101561597e578785015182556020948501946001909201910161595e565b508482101561599b57868401515f19600387901b60f8161c191681555b50505050600190811b01905550565b604081525f6159bd604083018587615813565b9050826020830152949350505050565b838152604060208201525f615856604083018486615813565b602081525f6159f9602083018486615813565b949350505050565b5f60208284031215615a11575f5ffd5b6151aa82615136565b5f5f8335601e19843603018112615a2f575f5ffd5b83018035915067ffffffffffffffff821115615a49575f5ffd5b60200191503681900382131561525b575f5ffd5b5f60208284031215615a6d575f5ffd5b6151aa826151b1565b634e487b7160e01b5f52601160045260245ffd5b80820180821115610ea257610ea2615a76565b60a081525f615ab060a08301888a615813565b602083019690965250604081019390935263ffffffff91821660608401521660809091015292915050565b67ffffffffffffffff831115615af357615af3615897565b615b0783615b01835461585f565b836158ab565b5f601f841160018114615b38575f8515615b215750838201355b5f19600387901b1c1916600186901b17835561430d565b5f83815260208120601f198716915b82811015615b675786850135825560209485019460019092019101615b47565b5086821015615b83575f1960f88860031b161c19848701351681555b505060018560011b0183555050505050565b634e487b7160e01b5f52603260045260245ffd5b8082028115828204841417610ea257610ea2615a76565b5f82615bda57634e487b7160e01b5f52601260045260245ffd5b500490565b81810381811115610ea257610ea2615a76565b61ffff8716815285602082015284604082015260018060a01b038416606082015260a060808201525f615c2960a083018486615813565b98975050505050505050565b818382375f9101908152919050565b61ffff8281168282160390811115610ea257610ea2615a76565b634e487b7160e01b5f52602160045260245ffdfed0c934f24ef5a377dc3832429ce607cbe940a3ca3c6cd7e532bd35b4b212d1969b779b17422d0df92223018b32b4d1fa46e071723d6817e2486d003becc55f00c974b626665c0d05de92a6d1c80baa1fecf1d44a7fe6c4fb1dcbe04cddebb540a2646970667358221220d81ef1dc9cc2c988e272416d36fcea3ca03218d30cf2355b1d9c8f0c8cbf31dd64736f6c634300081c0033",
  "linkReferences": {},
  "deployedLinkReferences": {},
  "immutableReferences": {
    "7604": [
      {
        "length": 32,
        "start": 19103
      }
    ]
  },
  "inputSourceName": "project/contracts/VoucherProtocol.sol",
  "buildInfoId": "solc-0_8_28-bc056520f051289f3a339471f9adfd6d4acaac40"
}