{
  "_format": "hh3-artifact-1",
  "contractName": "VoucherProtocolReader",
  "sourceName": "contracts/VoucherProtocolReader.sol",
  "abi": [
    {
      "inputs": [
        {
          "internalType": "address",
          "name": "_protocol",
          "type": "address"
        }
      ],
      "stateMutability": "nonpayable",
      "type": "constructor"
    },
    {
      "inputs": [],
      "name": "DocumentNotFound",
      "type": "error"
    },
    {
      "inputs": [],
      "name": "InvalidProtocolAddress",
      "type": "error"
    },
    {
      "inputs": [
        {
          "internalType": "bytes32",
          "name": "tenantId",
          "type": "bytes32"
        },
        {
          "internalType": "uint32",
          "name": "docType",
          "type": "uint32"
        },
        {
          "internalType": "address",
          "name": "operator",
          "type": "address"
        }
      ],
      "name": "getCoSignOperatorConfig",
      "outputs": [
        {
          "internalType": "bool",
          "name": "whitelisted",
          "type": "bool"
        },
        {
          "internalType": "uint16",
          "name": "roleId",
          "type": "uint16"
        }
      ],
      "stateMutability": "view",
      "type": "function"
    },
    {
      "inputs": [
        {
          "internalType": "bytes32",
          "name": "tenantId",
          "type": "bytes32"
        },
        {
          "internalType": "uint32",
          "name": "docType",
          "type": "uint32"
        }
      ],
      "name": "getCoSignPolicy",
      "outputs": [
        {
          "internalType": "bool",
          "name": "enabled",
          "type": "bool"
        },
        {
          "internalType": "uint256",
          "name": "minStake",
          "type": "uint256"
        },
        {
          "internalType": "uint256",
          "name": "minSigners",
          "type": "uint256"
        },
        {
          "internalType": "uint256",
          "name": "requiredRoleMask",
          "type": "uint256"
        }
      ],
      "stateMutability": "view",
      "type": "function"
    },
    {
      "inputs": [
        {
          "internalType": "bytes32",
          "name": "tenantId",
          "type": "bytes32"
        },
        {
          "internalType": "bytes32",
          "name": "fileHash",
          "type": "bytes32"
        }
      ],
      "name": "getCoSignStatus",
      "outputs": [
        {
          "internalType": "bool",
          "name": "qualified",
          "type": "bool"
        },
        {
          "internalType": "uint256",
          "name": "totalSigners",
          "type": "uint256"
        },
        {
          "internalType": "uint256",
          "name": "trustedSigners",
          "type": "uint256"
        },
        {
          "internalType": "uint256",
          "name": "currentRoleMask",
          "type": "uint256"
        },
        {
          "internalType": "uint256",
          "name": "requiredRoleMask",
          "type": "uint256"
        },
        {
          "internalType": "uint256",
          "name": "minSigners",
          "type": "uint256"
        },
        {
          "internalType": "uint256",
          "name": "minStake",
          "type": "uint256"
        }
      ],
      "stateMutability": "view",
      "type": "function"
    },
    {
      "inputs": [
        {
          "internalType": "bytes32",
          "name": "tenantId",
          "type": "bytes32"
        },
        {
          "internalType": "bytes32",
          "name": "fileHash",
          "type": "bytes32"
        }
      ],
      "name": "getDocumentOrRevert",
      "outputs": [
        {
          "components": [
            {
              "internalType": "bytes32",
              "name": "tenantId",
              "type": "bytes32"
            },
            {
              "internalType": "string",
              "name": "cid",
              "type": "string"
            },
            {
              "internalType": "address",
              "name": "issuer",
              "type": "address"
            },
            {
              "internalType": "uint256",
              "name": "timestamp",
              "type": "uint256"
            },
            {
              "internalType": "bool",
              "name": "isValid",
              "type": "bool"
            },
            {
              "internalType": "bytes32",
              "name": "ciphertextHash",
              "type": "bytes32"
            },
            {
              "internalType": "bytes32",
              "name": "encryptionMetaHash",
              "type": "bytes32"
            },
            {
              "internalType": "uint32",
              "name": "docType",
              "type": "uint32"
            },
            {
              "internalType": "uint32",
              "name": "version",
              "type": "uint32"
            }
          ],
          "internalType": "struct VoucherTypes.Document",
          "name": "",
          "type": "tuple"
        }
      ],
      "stateMutability": "view",
      "type": "function"
    },
    {
      "inputs": [
        {
          "internalType": "bytes32",
          "name": "tenantId",
          "type": "bytes32"
        },
        {
          "internalType": "bytes32",
          "name": "fileHash",
          "type": "bytes32"
        }
      ],
      "name": "getDocumentStatus",
      "outputs": [
        {
          "components": [
            {
              "internalType": "bool",
              "name": "exists",
              "type": "bool"
            },
            {
              "internalType": "bool",
              "name": "isValid",
              "type": "bool"
            },
            {
              "internalType": "address",
              "name": "issuer",
              "type": "address"
            },
            {
              "internalType": "string",
              "name": "cid",
              "type": "string"
            },
            {
              "internalType": "uint256",
              "name": "timestamp",
              "type": "uint256"
            },
            {
              "internalType": "bytes32",
              "name": "ciphertextHash",
              "type": "bytes32"
            },
            {
              "internalType": "bytes32",
              "name": "encryptionMetaHash",
              "type": "bytes32"
            },
            {
              "internalType": "uint32",
              "name": "docType",
              "type": "uint32"
            },
            {
              "internalType": "uint32",
              "name": "version",
              "type": "uint32"
            },
            {
              "internalType": "uint256",
              "name": "coSignCount",
              "type": "uint256"
            },
            {
              "internalType": "uint256",
              "name": "trustedCoSignCount",
              "type": "uint256"
            },
            {
              "internalType": "uint256",
              "name": "trustedCoSignRoleMask",
              "type": "uint256"
            },
            {
              "internalType": "bool",
              "name": "coSignQualified",
              "type": "bool"
            }
          ],
          "internalType": "struct VoucherTypes.DocumentSnapshot",
          "name": "",
          "type": "tuple"
        }
      ],
      "stateMutability": "view",
      "type": "function"
    },
    {
      "inputs": [
        {
          "internalType": "bytes32",
          "name": "tenantId",
          "type": "bytes32"
        }
      ],
      "name": "getOperatorCount",
      "outputs": [
        {
          "internalType": "uint256",
          "name": "",
          "type": "uint256"
        }
      ],
      "stateMutability": "view",
      "type": "function"
    },
    {
      "inputs": [
        {
          "internalType": "bytes32",
          "name": "tenantId",
          "type": "bytes32"
        },
        {
          "internalType": "uint256",
          "name": "offset",
          "type": "uint256"
        },
        {
          "internalType": "uint256",
          "name": "limit",
          "type": "uint256"
        }
      ],
      "name": "getOperatorIds",
      "outputs": [
        {
          "internalType": "address[]",
          "name": "ids",
          "type": "address[]"
        }
      ],
      "stateMutability": "view",
      "type": "function"
    },
    {
      "inputs": [
        {
          "internalType": "bytes32",
          "name": "tenantId",
          "type": "bytes32"
        },
        {
          "internalType": "address",
          "name": "operator",
          "type": "address"
        }
      ],
      "name": "getOperatorStatus",
      "outputs": [
        {
          "internalType": "bool",
          "name": "exists",
          "type": "bool"
        },
        {
          "internalType": "bool",
          "name": "isActive",
          "type": "bool"
        },
        {
          "internalType": "address",
          "name": "walletAddress",
          "type": "address"
        },
        {
          "internalType": "string",
          "name": "metadataURI",
          "type": "string"
        },
        {
          "internalType": "uint256",
          "name": "stakeAmount",
          "type": "uint256"
        },
        {
          "internalType": "uint256",
          "name": "nonce",
          "type": "uint256"
        },
        {
          "internalType": "uint256",
          "name": "unstakeReadyAt",
          "type": "uint256"
        },
        {
          "internalType": "bool",
          "name": "canUnstakeNow",
          "type": "bool"
        },
        {
          "internalType": "address",
          "name": "recoveryDelegate",
          "type": "address"
        }
      ],
      "stateMutability": "view",
      "type": "function"
    },
    {
      "inputs": [
        {
          "internalType": "bytes32",
          "name": "tenantId",
          "type": "bytes32"
        },
        {
          "internalType": "address",
          "name": "operator",
          "type": "address"
        }
      ],
      "name": "getRecoveryAliasStatus",
      "outputs": [
        {
          "internalType": "bool",
          "name": "hasRecoveryHistory",
          "type": "bool"
        },
        {
          "internalType": "address",
          "name": "rootOperator",
          "type": "address"
        },
        {
          "internalType": "address",
          "name": "replacedBy",
          "type": "address"
        }
      ],
      "stateMutability": "view",
      "type": "function"
    },
    {
      "inputs": [],
      "name": "getTenantCount",
      "outputs": [
        {
          "internalType": "uint256",
          "name": "",
          "type": "uint256"
        }
      ],
      "stateMutability": "view",
      "type": "function"
    },
    {
      "inputs": [
        {
          "internalType": "uint256",
          "name": "offset",
          "type": "uint256"
        },
        {
          "internalType": "uint256",
          "name": "limit",
          "type": "uint256"
        }
      ],
      "name": "getTenantIds",
      "outputs": [
        {
          "internalType": "bytes32[]",
          "name": "ids",
          "type": "bytes32[]"
        }
      ],
      "stateMutability": "view",
      "type": "function"
    },
    {
      "inputs": [
        {
          "internalType": "bytes32",
          "name": "tenantId",
          "type": "bytes32"
        }
      ],
      "name": "getTenantInfo",
      "outputs": [
        {
          "internalType": "bool",
          "name": "exists",
          "type": "bool"
        },
        {
          "internalType": "address",
          "name": "admin",
          "type": "address"
        },
        {
          "internalType": "address",
          "name": "treasury",
          "type": "address"
        },
        {
          "internalType": "bool",
          "name": "isActive",
          "type": "bool"
        },
        {
          "internalType": "uint256",
          "name": "createdAt",
          "type": "uint256"
        }
      ],
      "stateMutability": "view",
      "type": "function"
    },
    {
      "inputs": [
        {
          "internalType": "bytes32",
          "name": "tenantId",
          "type": "bytes32"
        }
      ],
      "name": "getTenantRuntimeConfig",
      "outputs": [
        {
          "internalType": "uint256",
          "name": "minOperatorStake",
          "type": "uint256"
        },
        {
          "internalType": "uint256",
          "name": "unstakeCooldown",
          "type": "uint256"
        }
      ],
      "stateMutability": "view",
      "type": "function"
    },
    {
      "inputs": [
        {
          "internalType": "bytes32",
          "name": "tenantId",
          "type": "bytes32"
        },
        {
          "internalType": "bytes32",
          "name": "violationCode",
          "type": "bytes32"
        }
      ],
      "name": "getViolationPenalty",
      "outputs": [
        {
          "internalType": "uint16",
          "name": "penaltyBps",
          "type": "uint16"
        }
      ],
      "stateMutability": "view",
      "type": "function"
    },
    {
      "inputs": [
        {
          "internalType": "bytes32",
          "name": "tenantId",
          "type": "bytes32"
        },
        {
          "internalType": "bytes32",
          "name": "fileHash",
          "type": "bytes32"
        },
        {
          "internalType": "address",
          "name": "signer",
          "type": "address"
        }
      ],
      "name": "hasSignedDocument",
      "outputs": [
        {
          "internalType": "bool",
          "name": "",
          "type": "bool"
        }
      ],
      "stateMutability": "view",
      "type": "function"
    },
    {
      "inputs": [
        {
          "internalType": "bytes32",
          "name": "tenantId",
          "type": "bytes32"
        },
        {
          "internalType": "bytes32",
          "name": "fileHash",
          "type": "bytes32"
        }
      ],
      "name": "isDocumentCoSignQualified",
      "outputs": [
        {
          "internalType": "bool",
          "name": "",
          "type": "bool"
        }
      ],
      "stateMutability": "view",
      "type": "function"
    },
    {
      "inputs": [],
      "name": "protocol",
      "outputs": [
        {
          "internalType": "contract VoucherProtocol",
          "name": "",
          "type": "address"
        }
      ],
      "stateMutability": "view",
      "type": "function"
    },
    {
      "inputs": [
        {
          "internalType": "bytes32",
          "name": "tenantId",
          "type": "bytes32"
        },
        {
          "internalType": "bytes32",
          "name": "fileHash",
          "type": "bytes32"
        }
      ],
      "name": "verify",
      "outputs": [
        {
          "internalType": "bool",
          "name": "exists",
          "type": "bool"
        },
        {
          "internalType": "bool",
          "name": "isValid",
          "type": "bool"
        },
        {
          "internalType": "address",
          "name": "issuer",
          "type": "address"
        },
        {
          "internalType": "string",
          "name": "cid",
          "type": "string"
        }
      ],
      "stateMutability": "view",
      "type": "function"
    }
  ],
  "bytecode": "0x60a060405234801561000f575f5ffd5b506040516126cb3803806126cb83398101604081905261002e91610066565b6001600160a01b03811661005557604051630ff6dc2560e11b815260040160405180910390fd5b6001600160a01b0316608052610093565b5f60208284031215610076575f5ffd5b81516001600160a01b038116811461008c575f5ffd5b9392505050565b6080516125396101925f395f81816102f501528181610421015281816104a0015281816105cd015281816106fb0152818161087e0152818161093f015281816109d501528181610a6b01528181610b5d01528181610c0601528181610cca01528181610dc401528181610eb401528181610f7a0152818161101f015281816110bc0152818161113b015281816111e40152818161125e0152818161135a015281816113e9015281816114a20152818161153d015281816115ca0152818161164501528181611732015281816117c301528181611851015281816118e70152818161197501528181611a2801528181611abc0152611bdb01526125395ff3fe608060405234801561000f575f5ffd5b5060043610610111575f3560e01c80637efb4fd01161009e578063bb37cd171161006e578063bb37cd1714610345578063c53455dc14610372578063d1e4bbde14610385578063f049b650146103cf578063f85efb80146103e2575f5ffd5b80637efb4fd01461028157806385123fd5146102bb5780638ce74426146102f05780639149cd491461032f575f5ffd5b80634b263e74116100e45780634b263e74146101a05780634e8fee00146101eb5780636ea14e751461020e57806375cc9436146102365780637c6b9adb1461025e575f5ffd5b8063082a887614610115578063361410a5146101405780633dadf67714610160578063421f9b4214610180575b5f5ffd5b610128610123366004611c91565b610402565b60405161ffff90911681526020015b60405180910390f35b61015361014e366004611c91565b61049b565b6040516101379190611cb1565b61017361016e366004611c91565b610675565b6040516101379190611d21565b61019361018e366004611c91565b610ae0565b6040516101379190611e07565b6101b36101ae366004611eae565b610bfe565b6040805195151586526001600160a01b039485166020870152929093169184019190915215156060830152608082015260a001610137565b6101fe6101f9366004611c91565b610cc2565b6040516101379493929190611ec5565b61022161021c366004611f19565b610db7565b60405161013799989796959493929190611f47565b610249610244366004611eae565b61109a565b60408051928352602083019190915201610137565b61027161026c366004611fb3565b6111b5565b6040519015158152602001610137565b61029461028f366004611f19565b611259565b6040805193151584526001600160a01b039283166020850152911690820152606001610137565b6102ce6102c9366004611ffa565b611327565b6040805194151585526020850193909352918301526060820152608001610137565b6103177f000000000000000000000000000000000000000000000000000000000000000081565b6040516001600160a01b039091168152602001610137565b6103376113e6565b604051908152602001610137565b61035861035336600461201d565b61146c565b60408051921515835261ffff909116602083015201610137565b610337610380366004611eae565b6115b2565b610398610393366004611c91565b61163b565b6040805197151588526020880196909652948601939093526060850191909152608084015260a083015260c082015260e001610137565b6102716103dd366004611c91565b611a09565b6103f56103f0366004612051565b611a99565b604051610137919061207a565b6040516328a1b2c960e01b815260048101839052602481018290525f907f00000000000000000000000000000000000000000000000000000000000000006001600160a01b0316906328a1b2c990604401602060405180830381865afa15801561046e573d5f5f3e3d5ffd5b505050506040513d601f19601f8201168201806040525081019061049291906120ba565b90505b92915050565b60605f7f00000000000000000000000000000000000000000000000000000000000000006001600160a01b0316630a75a2f06040518163ffffffff1660e01b8152600401602060405180830381865afa1580156104fa573d5f5f3e3d5ffd5b505050506040513d601f19601f8201168201806040525081019061051e91906120db565b905082158061052d5750808410155b15610547575050604080515f815260208101909152610495565b5f610552848661211a565b90508181111561055f5750805b610569858261212d565b67ffffffffffffffff811115610581576105816120f2565b6040519080825280602002602001820160405280156105aa578160200160208202803683370190505b509250845b8181101561066c576040516331c125a960e21b8152600481018290527f00000000000000000000000000000000000000000000000000000000000000006001600160a01b03169063c70496a490602401602060405180830381865afa15801561061a573d5f5f3e3d5ffd5b505050506040513d601f19601f8201168201806040525081019061063e91906120db565b84610649888461212d565b8151811061065957610659612140565b60209081029190910101526001016105af565b50505092915050565b604080516101a0810182525f808252602082018190529181018290526060808201526080810182905260a0810182905260c0810182905260e081018290526101008101829052610120810182905261014081018290526101608101829052610180810191909152604051631b48ba1f60e01b815260048101849052602481018390525f907f00000000000000000000000000000000000000000000000000000000000000006001600160a01b031690631b48ba1f906044015f60405180830381865afa158015610747573d5f5f3e3d5ffd5b505050506040513d5f823e601f3d908101601f1916820160405261076e9190810190612279565b60408101519091506001600160a01b03166107ff575050604080516101a0810182525f8082526020808301829052828401829052835190810190935280835260608201929092526080810182905260a0810182905260c0810182905260e081018290526101008101829052610120810182905261014081018290526101608101829052610180810191909152610495565b604051806101a0016040528060011515815260200182608001511515815260200182604001516001600160a01b0316815260200182602001518152602001826060015181526020018260a0015181526020018260c0015181526020018260e0015163ffffffff16815260200182610100015163ffffffff1681526020017f00000000000000000000000000000000000000000000000000000000000000006001600160a01b0316634f138e0187876040518363ffffffff1660e01b81526004016108d3929190918252602082015260400190565b602060405180830381865afa1580156108ee573d5f5f3e3d5ffd5b505050506040513d601f19601f8201168201806040525081019061091291906120db565b8152604051636d184dd360e01b815260048101879052602481018690526020909101906001600160a01b037f00000000000000000000000000000000000000000000000000000000000000001690636d184dd390604401602060405180830381865afa158015610984573d5f5f3e3d5ffd5b505050506040513d601f19601f820116820180604052508101906109a891906120db565b8152604051637ff6373160e01b815260048101879052602481018690526020909101906001600160a01b037f00000000000000000000000000000000000000000000000000000000000000001690637ff6373190604401602060405180830381865afa158015610a1a573d5f5f3e3d5ffd5b505050506040513d601f19601f82011682018060405250810190610a3e91906120db565b815260405163281752e160e11b815260048101879052602481018690526020909101906001600160a01b037f0000000000000000000000000000000000000000000000000000000000000000169063502ea5c290604401602060405180830381865afa158015610ab0573d5f5f3e3d5ffd5b505050506040513d601f19601f82011682018060405250810190610ad49190612354565b15159052949350505050565b610b3e6040518061012001604052805f8152602001606081526020015f6001600160a01b031681526020015f81526020015f151581526020015f81526020015f81526020015f63ffffffff1681526020015f63ffffffff1681525090565b604051631b48ba1f60e01b815260048101849052602481018390525f907f00000000000000000000000000000000000000000000000000000000000000006001600160a01b031690631b48ba1f906044015f60405180830381865afa158015610ba9573d5f5f3e3d5ffd5b505050506040513d5f823e601f3d908101601f19168201604052610bd09190810190612279565b60408101519091506001600160a01b0316610492576040516328193b9d60e21b815260040160405180910390fd5b5f5f5f5f5f5f7f00000000000000000000000000000000000000000000000000000000000000006001600160a01b031663ff14d458886040518263ffffffff1660e01b8152600401610c5291815260200190565b608060405180830381865afa158015610c6d573d5f5f3e3d5ffd5b505050506040513d601f19601f82011682018060405250810190610c91919061236d565b8051602082015160408301516060909301516001600160a01b03831615159b929a5090985091965090945092505050565b5f5f5f60605f7f00000000000000000000000000000000000000000000000000000000000000006001600160a01b0316631b48ba1f88886040518363ffffffff1660e01b8152600401610d1f929190918252602082015260400190565b5f60405180830381865afa158015610d39573d5f5f3e3d5ffd5b505050506040513d5f823e601f3d908101601f19168201604052610d609190810190612279565b60408101519091506001600160a01b0316610d9357505060408051602081019091525f8082529350839250829150610dae565b60018160800151826040015183602001519450945094509450505b92959194509250565b5f5f5f60605f5f5f5f5f5f7f00000000000000000000000000000000000000000000000000000000000000006001600160a01b0316636cc531d48d8d6040518363ffffffff1660e01b8152600401610e229291909182526001600160a01b0316602082015260400190565b5f60405180830381865afa158015610e3c573d5f5f3e3d5ffd5b505050506040513d5f823e601f3d908101601f19168201604052610e6391908101906123cb565b905080606001515f141580610e79575080608001515b60808201516020830151919b5099506001600160a01b031615610ea0578060200151610ea2565b8a5b975080604001519650806060015195507f00000000000000000000000000000000000000000000000000000000000000006001600160a01b03166386e2b63f8d8d6040518363ffffffff1660e01b8152600401610f129291909182526001600160a01b0316602082015260400190565b602060405180830381865afa158015610f2d573d5f5f3e3d5ffd5b505050506040513d601f19601f82011682018060405250810190610f5191906120db565b60405163b04da8a160e01b8152600481018e90526001600160a01b038d811660248301529196507f00000000000000000000000000000000000000000000000000000000000000009091169063b04da8a190604401602060405180830381865afa158015610fc1573d5f5f3e3d5ffd5b505050506040513d601f19601f82011682018060405250810190610fe591906120db565b93508315801590610ff65750834210155b60405163dfa89c1d60e01b8152600481018e90526001600160a01b038d811660248301529194507f00000000000000000000000000000000000000000000000000000000000000009091169063dfa89c1d90604401602060405180830381865afa158015611066573d5f5f3e3d5ffd5b505050506040513d601f19601f8201168201806040525081019061108a919061246f565b9150509295985092959850929598565b604051638bdb1de360e01b8152600481018290525f9081906001600160a01b037f00000000000000000000000000000000000000000000000000000000000000001690638bdb1de390602401602060405180830381865afa158015611101573d5f5f3e3d5ffd5b505050506040513d601f19601f8201168201806040525081019061112591906120db565b60405163fc89626760e01b8152600481018590527f00000000000000000000000000000000000000000000000000000000000000006001600160a01b03169063fc89626790602401602060405180830381865afa158015611188573d5f5f3e3d5ffd5b505050506040513d601f19601f820116820180604052508101906111ac91906120db565b91509150915091565b60405163015d4ad360e01b815260048101849052602481018390526001600160a01b0382811660448301525f917f00000000000000000000000000000000000000000000000000000000000000009091169063015d4ad390606401602060405180830381865afa15801561122b573d5f5f3e3d5ffd5b505050506040513d601f19601f8201168201806040525081019061124f9190612354565b90505b9392505050565b5f5f5f7f00000000000000000000000000000000000000000000000000000000000000006001600160a01b0316631b90bef186866040518363ffffffff1660e01b81526004016112bc9291909182526001600160a01b0316602082015260400190565b6040805180830381865afa1580156112d6573d5f5f3e3d5ffd5b505050506040513d601f19601f820116820180604052508101906112fa919061248a565b90925090506001600160a01b03821615158061131e57506001600160a01b03811615155b92509250925092565b60405162619a7d60e41b81526004810183905263ffffffff821660248201525f9081908190819081906001600160a01b037f00000000000000000000000000000000000000000000000000000000000000001690630619a7d090604401608060405180830381865afa15801561139f573d5f5f3e3d5ffd5b505050506040513d601f19601f820116820180604052508101906113c391906124b7565b805160208201516040830151606090930151919a90995091975095509350505050565b5f7f00000000000000000000000000000000000000000000000000000000000000006001600160a01b0316630a75a2f06040518163ffffffff1660e01b8152600401602060405180830381865afa158015611443573d5f5f3e3d5ffd5b505050506040513d601f19601f8201168201806040525081019061146791906120db565b905090565b6040516379f24dd560e11b81526004810184905263ffffffff831660248201526001600160a01b0382811660448301525f9182917f0000000000000000000000000000000000000000000000000000000000000000169063f3e49baa90606401602060405180830381865afa1580156114e7573d5f5f3e3d5ffd5b505050506040513d601f19601f8201168201806040525081019061150b9190612354565b60405163d9fe7f6760e01b81526004810187905263ffffffff861660248201526001600160a01b0385811660448301527f0000000000000000000000000000000000000000000000000000000000000000169063d9fe7f6790606401602060405180830381865afa158015611582573d5f5f3e3d5ffd5b505050506040513d601f19601f820116820180604052508101906115a691906120ba565b91509150935093915050565b604051635533b9bf60e01b8152600481018290525f907f00000000000000000000000000000000000000000000000000000000000000006001600160a01b031690635533b9bf90602401602060405180830381865afa158015611617573d5f5f3e3d5ffd5b505050506040513d601f19601f8201168201806040525081019061049591906120db565b5f5f5f5f5f5f5f5f7f00000000000000000000000000000000000000000000000000000000000000006001600160a01b0316631b48ba1f8b8b6040518363ffffffff1660e01b815260040161169a929190918252602082015260400190565b5f60405180830381865afa1580156116b4573d5f5f3e3d5ffd5b505050506040513d5f823e601f3d908101601f191682016040526116db9190810190612279565b60408101519091506001600160a01b0316611709576040516328193b9d60e21b815260040160405180910390fd5b60e081015160405162619a7d60e41b8152600481018c905263ffffffff90911660248201525f907f00000000000000000000000000000000000000000000000000000000000000006001600160a01b031690630619a7d090604401608060405180830381865afa15801561177f573d5f5f3e3d5ffd5b505050506040513d601f19601f820116820180604052508101906117a391906124b7565b60405163281752e160e11b8152600481018d9052602481018c90529091507f00000000000000000000000000000000000000000000000000000000000000006001600160a01b03169063502ea5c290604401602060405180830381865afa158015611810573d5f5f3e3d5ffd5b505050506040513d601f19601f820116820180604052508101906118349190612354565b604051634f138e0160e01b8152600481018d9052602481018c90527f00000000000000000000000000000000000000000000000000000000000000006001600160a01b031690634f138e0190604401602060405180830381865afa15801561189e573d5f5f3e3d5ffd5b505050506040513d601f19601f820116820180604052508101906118c291906120db565b604051636d184dd360e01b8152600481018e9052602481018d90526001600160a01b037f00000000000000000000000000000000000000000000000000000000000000001690636d184dd390604401602060405180830381865afa15801561192c573d5f5f3e3d5ffd5b505050506040513d601f19601f8201168201806040525081019061195091906120db565b604051637ff6373160e01b8152600481018f9052602481018e90526001600160a01b037f00000000000000000000000000000000000000000000000000000000000000001690637ff6373190604401602060405180830381865afa1580156119ba573d5f5f3e3d5ffd5b505050506040513d601f19601f820116820180604052508101906119de91906120db565b8460600151856040015186602001519850985098509850985098509850505092959891949750929550565b60405163281752e160e11b815260048101839052602481018290525f907f00000000000000000000000000000000000000000000000000000000000000006001600160a01b03169063502ea5c290604401602060405180830381865afa158015611a75573d5f5f3e3d5ffd5b505050506040513d601f19601f820116820180604052508101906104929190612354565b604051635533b9bf60e01b8152600481018490526060905f906001600160a01b037f00000000000000000000000000000000000000000000000000000000000000001690635533b9bf90602401602060405180830381865afa158015611b01573d5f5f3e3d5ffd5b505050506040513d601f19601f82011682018060405250810190611b2591906120db565b9050821580611b345750808410155b15611b4e575050604080515f815260208101909152611252565b5f611b59848661211a565b905081811115611b665750805b611b70858261212d565b67ffffffffffffffff811115611b8857611b886120f2565b604051908082528060200260200182016040528015611bb1578160200160208202803683370190505b509250845b81811015611c875760405163b5004d7960e01b815260048101889052602481018290527f00000000000000000000000000000000000000000000000000000000000000006001600160a01b03169063b5004d7990604401602060405180830381865afa158015611c28573d5f5f3e3d5ffd5b505050506040513d601f19601f82011682018060405250810190611c4c919061246f565b84611c57888461212d565b81518110611c6757611c67612140565b6001600160a01b0390921660209283029190910190910152600101611bb6565b5050509392505050565b5f5f60408385031215611ca2575f5ffd5b50508035926020909101359150565b602080825282518282018190525f918401906040840190835b81811015611ce8578351835260209384019390920191600101611cca565b509095945050505050565b5f81518084528060208401602086015e5f602082860101526020601f19601f83011685010191505092915050565b60208152611d3460208201835115159052565b5f6020830151611d48604084018215159052565b5060408301516001600160a01b03811660608401525060608301516101a06080840152611d796101c0840182611cf3565b9050608084015160a084015260a084015160c084015260c084015160e084015260e0840151611db161010085018263ffffffff169052565b5061010084015163ffffffff811661012085015250610120840151610140840152610140840151610160840152610160840151610180840152610180840151611dff6101a085018215159052565b509392505050565b60208152815160208201525f60208301516101206040840152611e2e610140840182611cf3565b90506040840151611e4a60608501826001600160a01b03169052565b50606084015160808401526080840151611e6860a085018215159052565b5060a084015160c084015260c084015160e084015260e0840151611e9561010085018263ffffffff169052565b5061010084015163ffffffff8116610120850152611dff565b5f60208284031215611ebe575f5ffd5b5035919050565b841515815283151560208201526001600160a01b03831660408201526080606082018190525f90611ef890830184611cf3565b9695505050505050565b6001600160a01b0381168114611f16575f5ffd5b50565b5f5f60408385031215611f2a575f5ffd5b823591506020830135611f3c81611f02565b809150509250929050565b891515815288151560208201526001600160a01b0388166040820152610120606082018190525f90611f7b90830189611cf3565b60808301979097525060a081019490945260c0840192909252151560e08301526001600160a01b031661010090910152949350505050565b5f5f5f60608486031215611fc5575f5ffd5b83359250602084013591506040840135611fde81611f02565b809150509250925092565b63ffffffff81168114611f16575f5ffd5b5f5f6040838503121561200b575f5ffd5b823591506020830135611f3c81611fe9565b5f5f5f6060848603121561202f575f5ffd5b83359250602084013561204181611fe9565b91506040840135611fde81611f02565b5f5f5f60608486031215612063575f5ffd5b505081359360208301359350604090920135919050565b602080825282518282018190525f918401906040840190835b81811015611ce85783516001600160a01b0316835260209384019390920191600101612093565b5f602082840312156120ca575f5ffd5b815161ffff81168114610492575f5ffd5b5f602082840312156120eb575f5ffd5b5051919050565b634e487b7160e01b5f52604160045260245ffd5b634e487b7160e01b5f52601160045260245ffd5b8082018082111561049557610495612106565b8181038181111561049557610495612106565b634e487b7160e01b5f52603260045260245ffd5b604051610120810167ffffffffffffffff81118282101715612178576121786120f2565b60405290565b6040516080810167ffffffffffffffff81118282101715612178576121786120f2565b60405160a0810167ffffffffffffffff81118282101715612178576121786120f2565b5f82601f8301126121d3575f5ffd5b815167ffffffffffffffff8111156121ed576121ed6120f2565b604051601f8201601f19908116603f0116810167ffffffffffffffff8111828210171561221c5761221c6120f2565b604052818152838201602001851015612233575f5ffd5b8160208501602083015e5f918101602001919091529392505050565b805161225a81611f02565b919050565b8051801515811461225a575f5ffd5b805161225a81611fe9565b5f60208284031215612289575f5ffd5b815167ffffffffffffffff81111561229f575f5ffd5b820161012081850312156122b1575f5ffd5b6122b9612154565b81518152602082015167ffffffffffffffff8111156122d6575f5ffd5b6122e2868285016121c4565b6020830152506122f46040830161224f565b60408201526060828101519082015261230f6080830161225f565b608082015260a0828101519082015260c0808301519082015261233460e0830161226e565b60e0820152612346610100830161226e565b610100820152949350505050565b5f60208284031215612364575f5ffd5b6104928261225f565b5f608082840312801561237e575f5ffd5b5061238761217e565b825161239281611f02565b815260208301516123a281611f02565b60208201526123b36040840161225f565b60408201526060928301519281019290925250919050565b5f602082840312156123db575f5ffd5b815167ffffffffffffffff8111156123f1575f5ffd5b820160a08185031215612402575f5ffd5b61240a6121a1565b81518152602082015161241c81611f02565b6020820152604082015167ffffffffffffffff81111561243a575f5ffd5b612446868285016121c4565b604083015250606082810151908201526124626080830161225f565b6080820152949350505050565b5f6020828403121561247f575f5ffd5b815161049281611f02565b5f5f6040838503121561249b575f5ffd5b82516124a681611f02565b6020840151909250611f3c81611f02565b5f60808284031280156124c8575f5ffd5b506124d161217e565b6124da8361225f565b81526020838101519082015260408084015190820152606092830151928101929092525091905056fea264697066735822122093269273a6ea79a9ad3485dfc64b28bd538bdb98da0d53f07bd42f891fb86ede64736f6c634300081c0033",
  "linkReferences": {},
  "deployedLinkReferences": {},
  "immutableReferences": {
    "12984": [
      {
        "length": 32,
        "start": 757
      },
      {
        "length": 32,
        "start": 1057
      },
      {
        "length": 32,
        "start": 1184
      },
      {
        "length": 32,
        "start": 1485
      },
      {
        "length": 32,
        "start": 1787
      },
      {
        "length": 32,
        "start": 2174
      },
      {
        "length": 32,
        "start": 2367
      },
      {
        "length": 32,
        "start": 2517
      },
      {
        "length": 32,
        "start": 2667
      },
      {
        "length": 32,
        "start": 2909
      },
      {
        "length": 32,
        "start": 3078
      },
      {
        "length": 32,
        "start": 3274
      },
      {
        "length": 32,
        "start": 3524
      },
      {
        "length": 32,
        "start": 3764
      },
      {
        "length": 32,
        "start": 3962
      },
      {
        "length": 32,
        "start": 4127
      },
      {
        "length": 32,
        "start": 4284
      },
      {
        "length": 32,
        "start": 4411
      },
      {
        "length": 32,
        "start": 4580
      },
      {
        "length": 32,
        "start": 4702
      },
      {
        "length": 32,
        "start": 4954
      },
      {
        "length": 32,
        "start": 5097
      },
      {
        "length": 32,
        "start": 5282
      },
      {
        "length": 32,
        "start": 5437
      },
      {
        "length": 32,
        "start": 5578
      },
      {
        "length": 32,
        "start": 5701
      },
      {
        "length": 32,
        "start": 5938
      },
      {
        "length": 32,
        "start": 6083
      },
      {
        "length": 32,
        "start": 6225
      },
      {
        "length": 32,
        "start": 6375
      },
      {
        "length": 32,
        "start": 6517
      },
      {
        "length": 32,
        "start": 6696
      },
      {
        "length": 32,
        "start": 6844
      },
      {
        "length": 32,
        "start": 7131
      }
    ]
  },
  "inputSourceName": "project/contracts/VoucherProtocolReader.sol",
  "buildInfoId": "solc-0_8_28-99eaacb6eda9ac764fbcc1f79d60272e3990266c"
}