{
  "_format": "hh3-artifact-1",
  "contractName": "VoucherProtocol",
  "sourceName": "contracts/VoucherProtocol.sol",
  "abi": [
    {
      "inputs": [],
      "stateMutability": "nonpayable",
      "type": "constructor"
    },
    {
      "inputs": [],
      "name": "AccessControlBadConfirmation",
      "type": "error"
    },
    {
      "inputs": [
        {
          "internalType": "address",
          "name": "account",
          "type": "address"
        },
        {
          "internalType": "bytes32",
          "name": "neededRole",
          "type": "bytes32"
        }
      ],
      "name": "AccessControlUnauthorizedAccount",
      "type": "error"
    },
    {
      "inputs": [],
      "name": "AlreadyCoSigned",
      "type": "error"
    },
    {
      "inputs": [],
      "name": "CannotSlashYourself",
      "type": "error"
    },
    {
      "inputs": [],
      "name": "CoSignerNotWhitelisted",
      "type": "error"
    },
    {
      "inputs": [],
      "name": "DocumentAlreadyExists",
      "type": "error"
    },
    {
      "inputs": [],
      "name": "DocumentAlreadyRevoked",
      "type": "error"
    },
    {
      "inputs": [],
      "name": "DocumentNotFound",
      "type": "error"
    },
    {
      "inputs": [],
      "name": "DocumentNotValid",
      "type": "error"
    },
    {
      "inputs": [],
      "name": "EthTransferFailed",
      "type": "error"
    },
    {
      "inputs": [],
      "name": "ExpiredSignature",
      "type": "error"
    },
    {
      "inputs": [
        {
          "internalType": "uint256",
          "name": "currentStake",
          "type": "uint256"
        },
        {
          "internalType": "uint256",
          "name": "requiredStake",
          "type": "uint256"
        }
      ],
      "name": "InsufficientCoSignStake",
      "type": "error"
    },
    {
      "inputs": [
        {
          "internalType": "uint256",
          "name": "sent",
          "type": "uint256"
        },
        {
          "internalType": "uint256",
          "name": "required",
          "type": "uint256"
        }
      ],
      "name": "InsufficientStake",
      "type": "error"
    },
    {
      "inputs": [],
      "name": "InvalidCoSignPolicy",
      "type": "error"
    },
    {
      "inputs": [],
      "name": "InvalidCoSignRole",
      "type": "error"
    },
    {
      "inputs": [],
      "name": "InvalidConfigValue",
      "type": "error"
    },
    {
      "inputs": [],
      "name": "InvalidOperatorAddress",
      "type": "error"
    },
    {
      "inputs": [
        {
          "internalType": "uint16",
          "name": "provided",
          "type": "uint16"
        }
      ],
      "name": "InvalidPenaltyBps",
      "type": "error"
    },
    {
      "inputs": [],
      "name": "InvalidRecoveryTarget",
      "type": "error"
    },
    {
      "inputs": [],
      "name": "InvalidSignature",
      "type": "error"
    },
    {
      "inputs": [],
      "name": "InvalidTenantAddress",
      "type": "error"
    },
    {
      "inputs": [],
      "name": "NoPendingUnstake",
      "type": "error"
    },
    {
      "inputs": [],
      "name": "NoStake",
      "type": "error"
    },
    {
      "inputs": [],
      "name": "NoStakeToRecover",
      "type": "error"
    },
    {
      "inputs": [],
      "name": "OperatorAlreadyActive",
      "type": "error"
    },
    {
      "inputs": [],
      "name": "OperatorNotActive",
      "type": "error"
    },
    {
      "inputs": [],
      "name": "OperatorNotInTenant",
      "type": "error"
    },
    {
      "inputs": [],
      "name": "OperatorNotLost",
      "type": "error"
    },
    {
      "inputs": [
        {
          "internalType": "bytes32",
          "name": "violationCode",
          "type": "bytes32"
        }
      ],
      "name": "PenaltyNotConfigured",
      "type": "error"
    },
    {
      "inputs": [],
      "name": "ProtocolAdminCannotHaveOtherRoles",
      "type": "error"
    },
    {
      "inputs": [],
      "name": "RecoveryNotAllowed",
      "type": "error"
    },
    {
      "inputs": [],
      "name": "ReentrancyGuardReentrantCall",
      "type": "error"
    },
    {
      "inputs": [],
      "name": "TenantAlreadyExists",
      "type": "error"
    },
    {
      "inputs": [],
      "name": "TenantInactive",
      "type": "error"
    },
    {
      "inputs": [],
      "name": "TenantNotFound",
      "type": "error"
    },
    {
      "inputs": [],
      "name": "TenantRoleConflict",
      "type": "error"
    },
    {
      "inputs": [],
      "name": "Unauthorized",
      "type": "error"
    },
    {
      "inputs": [],
      "name": "UnstakeInProgress",
      "type": "error"
    },
    {
      "inputs": [
        {
          "internalType": "uint256",
          "name": "readyAt",
          "type": "uint256"
        }
      ],
      "name": "UnstakeNotReady",
      "type": "error"
    },
    {
      "anonymous": false,
      "inputs": [
        {
          "indexed": true,
          "internalType": "bytes32",
          "name": "tenantId",
          "type": "bytes32"
        },
        {
          "indexed": true,
          "internalType": "uint32",
          "name": "docType",
          "type": "uint32"
        },
        {
          "indexed": true,
          "internalType": "address",
          "name": "operator",
          "type": "address"
        },
        {
          "indexed": false,
          "internalType": "bool",
          "name": "whitelisted",
          "type": "bool"
        },
        {
          "indexed": false,
          "internalType": "uint16",
          "name": "roleId",
          "type": "uint16"
        }
      ],
      "name": "CoSignOperatorConfigured",
      "type": "event"
    },
    {
      "anonymous": false,
      "inputs": [
        {
          "indexed": true,
          "internalType": "bytes32",
          "name": "tenantId",
          "type": "bytes32"
        },
        {
          "indexed": true,
          "internalType": "uint32",
          "name": "docType",
          "type": "uint32"
        },
        {
          "indexed": false,
          "internalType": "bool",
          "name": "enabled",
          "type": "bool"
        },
        {
          "indexed": false,
          "internalType": "uint256",
          "name": "minStake",
          "type": "uint256"
        },
        {
          "indexed": false,
          "internalType": "uint256",
          "name": "minSigners",
          "type": "uint256"
        },
        {
          "indexed": false,
          "internalType": "uint256",
          "name": "requiredRoleMask",
          "type": "uint256"
        }
      ],
      "name": "CoSignPolicyUpdated",
      "type": "event"
    },
    {
      "anonymous": false,
      "inputs": [
        {
          "indexed": true,
          "internalType": "bytes32",
          "name": "tenantId",
          "type": "bytes32"
        },
        {
          "indexed": true,
          "internalType": "bytes32",
          "name": "fileHash",
          "type": "bytes32"
        },
        {
          "indexed": false,
          "internalType": "string",
          "name": "cid",
          "type": "string"
        },
        {
          "indexed": true,
          "internalType": "address",
          "name": "issuer",
          "type": "address"
        },
        {
          "indexed": false,
          "internalType": "bytes32",
          "name": "ciphertextHash",
          "type": "bytes32"
        },
        {
          "indexed": false,
          "internalType": "bytes32",
          "name": "encryptionMetaHash",
          "type": "bytes32"
        },
        {
          "indexed": false,
          "internalType": "uint32",
          "name": "docType",
          "type": "uint32"
        },
        {
          "indexed": false,
          "internalType": "uint32",
          "name": "version",
          "type": "uint32"
        }
      ],
      "name": "DocumentAnchored",
      "type": "event"
    },
    {
      "anonymous": false,
      "inputs": [
        {
          "indexed": true,
          "internalType": "bytes32",
          "name": "tenantId",
          "type": "bytes32"
        },
        {
          "indexed": true,
          "internalType": "bytes32",
          "name": "fileHash",
          "type": "bytes32"
        },
        {
          "indexed": false,
          "internalType": "uint256",
          "name": "trustedSigners",
          "type": "uint256"
        },
        {
          "indexed": false,
          "internalType": "uint256",
          "name": "roleMask",
          "type": "uint256"
        }
      ],
      "name": "DocumentCoSignQualified",
      "type": "event"
    },
    {
      "anonymous": false,
      "inputs": [
        {
          "indexed": true,
          "internalType": "bytes32",
          "name": "tenantId",
          "type": "bytes32"
        },
        {
          "indexed": true,
          "internalType": "bytes32",
          "name": "fileHash",
          "type": "bytes32"
        },
        {
          "indexed": true,
          "internalType": "address",
          "name": "signer",
          "type": "address"
        },
        {
          "indexed": false,
          "internalType": "uint256",
          "name": "totalSigners",
          "type": "uint256"
        }
      ],
      "name": "DocumentCoSigned",
      "type": "event"
    },
    {
      "anonymous": false,
      "inputs": [
        {
          "indexed": true,
          "internalType": "bytes32",
          "name": "tenantId",
          "type": "bytes32"
        },
        {
          "indexed": true,
          "internalType": "bytes32",
          "name": "fileHash",
          "type": "bytes32"
        },
        {
          "indexed": true,
          "internalType": "address",
          "name": "revoker",
          "type": "address"
        },
        {
          "indexed": false,
          "internalType": "string",
          "name": "reason",
          "type": "string"
        }
      ],
      "name": "DocumentRevoked",
      "type": "event"
    },
    {
      "anonymous": false,
      "inputs": [
        {
          "indexed": true,
          "internalType": "bytes32",
          "name": "tenantId",
          "type": "bytes32"
        },
        {
          "indexed": false,
          "internalType": "uint256",
          "name": "oldValue",
          "type": "uint256"
        },
        {
          "indexed": false,
          "internalType": "uint256",
          "name": "newValue",
          "type": "uint256"
        }
      ],
      "name": "MinOperatorStakeUpdated",
      "type": "event"
    },
    {
      "anonymous": false,
      "inputs": [
        {
          "indexed": true,
          "internalType": "bytes32",
          "name": "tenantId",
          "type": "bytes32"
        },
        {
          "indexed": true,
          "internalType": "address",
          "name": "signer",
          "type": "address"
        },
        {
          "indexed": false,
          "internalType": "uint256",
          "name": "oldNonce",
          "type": "uint256"
        },
        {
          "indexed": false,
          "internalType": "uint256",
          "name": "newNonce",
          "type": "uint256"
        }
      ],
      "name": "NonceConsumed",
      "type": "event"
    },
    {
      "anonymous": false,
      "inputs": [
        {
          "indexed": true,
          "internalType": "bytes32",
          "name": "tenantId",
          "type": "bytes32"
        },
        {
          "indexed": true,
          "internalType": "address",
          "name": "operator",
          "type": "address"
        },
        {
          "indexed": false,
          "internalType": "string",
          "name": "metadata",
          "type": "string"
        },
        {
          "indexed": false,
          "internalType": "uint256",
          "name": "stake",
          "type": "uint256"
        }
      ],
      "name": "OperatorJoined",
      "type": "event"
    },
    {
      "anonymous": false,
      "inputs": [
        {
          "indexed": true,
          "internalType": "bytes32",
          "name": "tenantId",
          "type": "bytes32"
        },
        {
          "indexed": true,
          "internalType": "address",
          "name": "operator",
          "type": "address"
        },
        {
          "indexed": false,
          "internalType": "string",
          "name": "metadataURI",
          "type": "string"
        }
      ],
      "name": "OperatorMetadataUpdated",
      "type": "event"
    },
    {
      "anonymous": false,
      "inputs": [
        {
          "indexed": true,
          "internalType": "bytes32",
          "name": "tenantId",
          "type": "bytes32"
        },
        {
          "indexed": true,
          "internalType": "address",
          "name": "oldOperator",
          "type": "address"
        },
        {
          "indexed": true,
          "internalType": "address",
          "name": "newOperator",
          "type": "address"
        },
        {
          "indexed": false,
          "internalType": "uint256",
          "name": "stakeAmount",
          "type": "uint256"
        },
        {
          "indexed": false,
          "internalType": "string",
          "name": "reason",
          "type": "string"
        }
      ],
      "name": "OperatorRecovered",
      "type": "event"
    },
    {
      "anonymous": false,
      "inputs": [
        {
          "indexed": true,
          "internalType": "bytes32",
          "name": "tenantId",
          "type": "bytes32"
        },
        {
          "indexed": true,
          "internalType": "address",
          "name": "oldOperator",
          "type": "address"
        },
        {
          "indexed": true,
          "internalType": "address",
          "name": "newOperator",
          "type": "address"
        },
        {
          "indexed": false,
          "internalType": "address",
          "name": "rootOperator",
          "type": "address"
        }
      ],
      "name": "OperatorRecoveryAliasUpdated",
      "type": "event"
    },
    {
      "anonymous": false,
      "inputs": [
        {
          "indexed": true,
          "internalType": "bytes32",
          "name": "tenantId",
          "type": "bytes32"
        },
        {
          "indexed": true,
          "internalType": "address",
          "name": "operator",
          "type": "address"
        },
        {
          "indexed": true,
          "internalType": "address",
          "name": "delegate",
          "type": "address"
        }
      ],
      "name": "OperatorRecoveryDelegateUpdated",
      "type": "event"
    },
    {
      "anonymous": false,
      "inputs": [
        {
          "indexed": true,
          "internalType": "bytes32",
          "name": "tenantId",
          "type": "bytes32"
        },
        {
          "indexed": true,
          "internalType": "address",
          "name": "operator",
          "type": "address"
        },
        {
          "indexed": false,
          "internalType": "uint256",
          "name": "amount",
          "type": "uint256"
        },
        {
          "indexed": true,
          "internalType": "address",
          "name": "slasher",
          "type": "address"
        },
        {
          "indexed": false,
          "internalType": "string",
          "name": "reason",
          "type": "string"
        }
      ],
      "name": "OperatorSlashed",
      "type": "event"
    },
    {
      "anonymous": false,
      "inputs": [
        {
          "indexed": true,
          "internalType": "bytes32",
          "name": "tenantId",
          "type": "bytes32"
        },
        {
          "indexed": true,
          "internalType": "address",
          "name": "operator",
          "type": "address"
        },
        {
          "indexed": true,
          "internalType": "bytes32",
          "name": "violationCode",
          "type": "bytes32"
        },
        {
          "indexed": false,
          "internalType": "uint16",
          "name": "penaltyBps",
          "type": "uint16"
        },
        {
          "indexed": false,
          "internalType": "uint256",
          "name": "slashedAmount",
          "type": "uint256"
        },
        {
          "indexed": false,
          "internalType": "uint256",
          "name": "remainingStake",
          "type": "uint256"
        },
        {
          "indexed": false,
          "internalType": "address",
          "name": "slasher",
          "type": "address"
        },
        {
          "indexed": false,
          "internalType": "string",
          "name": "reason",
          "type": "string"
        }
      ],
      "name": "OperatorSoftSlashed",
      "type": "event"
    },
    {
      "anonymous": false,
      "inputs": [
        {
          "indexed": true,
          "internalType": "bytes32",
          "name": "tenantId",
          "type": "bytes32"
        },
        {
          "indexed": true,
          "internalType": "address",
          "name": "operator",
          "type": "address"
        },
        {
          "indexed": false,
          "internalType": "uint256",
          "name": "amount",
          "type": "uint256"
        },
        {
          "indexed": false,
          "internalType": "uint256",
          "name": "totalStake",
          "type": "uint256"
        }
      ],
      "name": "OperatorStakeToppedUp",
      "type": "event"
    },
    {
      "anonymous": false,
      "inputs": [
        {
          "indexed": true,
          "internalType": "bytes32",
          "name": "tenantId",
          "type": "bytes32"
        },
        {
          "indexed": true,
          "internalType": "address",
          "name": "operator",
          "type": "address"
        },
        {
          "indexed": false,
          "internalType": "bool",
          "name": "isActive",
          "type": "bool"
        },
        {
          "indexed": false,
          "internalType": "string",
          "name": "reason",
          "type": "string"
        }
      ],
      "name": "OperatorStatusUpdated",
      "type": "event"
    },
    {
      "anonymous": false,
      "inputs": [
        {
          "indexed": true,
          "internalType": "bytes32",
          "name": "tenantId",
          "type": "bytes32"
        },
        {
          "indexed": true,
          "internalType": "address",
          "name": "operator",
          "type": "address"
        },
        {
          "indexed": false,
          "internalType": "uint256",
          "name": "availableAt",
          "type": "uint256"
        }
      ],
      "name": "OperatorUnstakeRequested",
      "type": "event"
    },
    {
      "anonymous": false,
      "inputs": [
        {
          "indexed": true,
          "internalType": "bytes32",
          "name": "tenantId",
          "type": "bytes32"
        },
        {
          "indexed": true,
          "internalType": "address",
          "name": "operator",
          "type": "address"
        },
        {
          "indexed": false,
          "internalType": "uint256",
          "name": "amount",
          "type": "uint256"
        }
      ],
      "name": "OperatorUnstaked",
      "type": "event"
    },
    {
      "anonymous": false,
      "inputs": [
        {
          "indexed": true,
          "internalType": "address",
          "name": "protocolOwner",
          "type": "address"
        }
      ],
      "name": "ProtocolInitialized",
      "type": "event"
    },
    {
      "anonymous": false,
      "inputs": [
        {
          "indexed": true,
          "internalType": "bytes32",
          "name": "role",
          "type": "bytes32"
        },
        {
          "indexed": true,
          "internalType": "bytes32",
          "name": "previousAdminRole",
          "type": "bytes32"
        },
        {
          "indexed": true,
          "internalType": "bytes32",
          "name": "newAdminRole",
          "type": "bytes32"
        }
      ],
      "name": "RoleAdminChanged",
      "type": "event"
    },
    {
      "anonymous": false,
      "inputs": [
        {
          "indexed": true,
          "internalType": "bytes32",
          "name": "role",
          "type": "bytes32"
        },
        {
          "indexed": true,
          "internalType": "address",
          "name": "account",
          "type": "address"
        },
        {
          "indexed": true,
          "internalType": "address",
          "name": "sender",
          "type": "address"
        }
      ],
      "name": "RoleGranted",
      "type": "event"
    },
    {
      "anonymous": false,
      "inputs": [
        {
          "indexed": true,
          "internalType": "bytes32",
          "name": "role",
          "type": "bytes32"
        },
        {
          "indexed": true,
          "internalType": "address",
          "name": "account",
          "type": "address"
        },
        {
          "indexed": true,
          "internalType": "address",
          "name": "sender",
          "type": "address"
        }
      ],
      "name": "RoleRevoked",
      "type": "event"
    },
    {
      "anonymous": false,
      "inputs": [
        {
          "indexed": true,
          "internalType": "bytes32",
          "name": "tenantId",
          "type": "bytes32"
        },
        {
          "indexed": true,
          "internalType": "address",
          "name": "admin",
          "type": "address"
        },
        {
          "indexed": true,
          "internalType": "address",
          "name": "treasury",
          "type": "address"
        }
      ],
      "name": "TenantCreated",
      "type": "event"
    },
    {
      "anonymous": false,
      "inputs": [
        {
          "indexed": true,
          "internalType": "bytes32",
          "name": "tenantId",
          "type": "bytes32"
        },
        {
          "indexed": false,
          "internalType": "bool",
          "name": "isActive",
          "type": "bool"
        }
      ],
      "name": "TenantStatusUpdated",
      "type": "event"
    },
    {
      "anonymous": false,
      "inputs": [
        {
          "indexed": true,
          "internalType": "bytes32",
          "name": "tenantId",
          "type": "bytes32"
        },
        {
          "indexed": true,
          "internalType": "address",
          "name": "oldTreasury",
          "type": "address"
        },
        {
          "indexed": true,
          "internalType": "address",
          "name": "newTreasury",
          "type": "address"
        }
      ],
      "name": "TreasuryUpdated",
      "type": "event"
    },
    {
      "anonymous": false,
      "inputs": [
        {
          "indexed": true,
          "internalType": "bytes32",
          "name": "tenantId",
          "type": "bytes32"
        },
        {
          "indexed": false,
          "internalType": "uint256",
          "name": "oldValue",
          "type": "uint256"
        },
        {
          "indexed": false,
          "internalType": "uint256",
          "name": "newValue",
          "type": "uint256"
        }
      ],
      "name": "UnstakeCooldownUpdated",
      "type": "event"
    },
    {
      "anonymous": false,
      "inputs": [
        {
          "indexed": true,
          "internalType": "bytes32",
          "name": "tenantId",
          "type": "bytes32"
        },
        {
          "indexed": true,
          "internalType": "bytes32",
          "name": "violationCode",
          "type": "bytes32"
        },
        {
          "indexed": false,
          "internalType": "uint16",
          "name": "oldPenaltyBps",
          "type": "uint16"
        },
        {
          "indexed": false,
          "internalType": "uint16",
          "name": "newPenaltyBps",
          "type": "uint16"
        }
      ],
      "name": "ViolationPenaltyUpdated",
      "type": "event"
    },
    {
      "inputs": [],
      "name": "COSIGN_ROLE_NONE",
      "outputs": [
        {
          "internalType": "uint16",
          "name": "",
          "type": "uint16"
        }
      ],
      "stateMutability": "view",
      "type": "function"
    },
    {
      "inputs": [],
      "name": "DEFAULT_ADMIN_ROLE",
      "outputs": [
        {
          "internalType": "bytes32",
          "name": "",
          "type": "bytes32"
        }
      ],
      "stateMutability": "view",
      "type": "function"
    },
    {
      "inputs": [],
      "name": "MAX_COSIGN_ROLE_ID",
      "outputs": [
        {
          "internalType": "uint16",
          "name": "",
          "type": "uint16"
        }
      ],
      "stateMutability": "view",
      "type": "function"
    },
    {
      "inputs": [],
      "name": "MAX_PENALTY_BPS",
      "outputs": [
        {
          "internalType": "uint16",
          "name": "",
          "type": "uint16"
        }
      ],
      "stateMutability": "view",
      "type": "function"
    },
    {
      "inputs": [],
      "name": "MIN_COSIGN_ROLE_ID",
      "outputs": [
        {
          "internalType": "uint16",
          "name": "",
          "type": "uint16"
        }
      ],
      "stateMutability": "view",
      "type": "function"
    },
    {
      "inputs": [],
      "name": "MIN_STAKE",
      "outputs": [
        {
          "internalType": "uint256",
          "name": "",
          "type": "uint256"
        }
      ],
      "stateMutability": "view",
      "type": "function"
    },
    {
      "inputs": [],
      "name": "PROTOCOL_ADMIN_ROLE",
      "outputs": [
        {
          "internalType": "bytes32",
          "name": "",
          "type": "bytes32"
        }
      ],
      "stateMutability": "view",
      "type": "function"
    },
    {
      "inputs": [],
      "name": "UNSTAKE_COOLDOWN",
      "outputs": [
        {
          "internalType": "uint256",
          "name": "",
          "type": "uint256"
        }
      ],
      "stateMutability": "view",
      "type": "function"
    },
    {
      "inputs": [
        {
          "internalType": "bytes32",
          "name": "tenantId",
          "type": "bytes32"
        },
        {
          "internalType": "bytes32",
          "name": "fileHash",
          "type": "bytes32"
        }
      ],
      "name": "coSignCount",
      "outputs": [
        {
          "internalType": "uint256",
          "name": "",
          "type": "uint256"
        }
      ],
      "stateMutability": "view",
      "type": "function"
    },
    {
      "inputs": [
        {
          "components": [
            {
              "internalType": "bytes32",
              "name": "tenantId",
              "type": "bytes32"
            },
            {
              "internalType": "bytes32",
              "name": "fileHash",
              "type": "bytes32"
            },
            {
              "internalType": "uint256",
              "name": "nonce",
              "type": "uint256"
            },
            {
              "internalType": "uint256",
              "name": "deadline",
              "type": "uint256"
            }
          ],
          "internalType": "struct VoucherTypes.CoSignPayload",
          "name": "payload",
          "type": "tuple"
        },
        {
          "internalType": "bytes",
          "name": "signature",
          "type": "bytes"
        }
      ],
      "name": "coSignDocumentWithSignature",
      "outputs": [],
      "stateMutability": "nonpayable",
      "type": "function"
    },
    {
      "inputs": [
        {
          "internalType": "bytes32",
          "name": "tenantId",
          "type": "bytes32"
        },
        {
          "internalType": "bytes32",
          "name": "fileHash",
          "type": "bytes32"
        }
      ],
      "name": "coSignQualified",
      "outputs": [
        {
          "internalType": "bool",
          "name": "",
          "type": "bool"
        }
      ],
      "stateMutability": "view",
      "type": "function"
    },
    {
      "inputs": [
        {
          "internalType": "bytes32",
          "name": "tenantId",
          "type": "bytes32"
        },
        {
          "internalType": "address",
          "name": "tenantTreasury",
          "type": "address"
        },
        {
          "components": [
            {
              "internalType": "address",
              "name": "admin",
              "type": "address"
            },
            {
              "internalType": "address",
              "name": "slasher",
              "type": "address"
            },
            {
              "internalType": "address",
              "name": "operatorManager",
              "type": "address"
            },
            {
              "internalType": "uint256",
              "name": "minStake",
              "type": "uint256"
            },
            {
              "internalType": "uint256",
              "name": "unstakeCooldown",
              "type": "uint256"
            }
          ],
          "internalType": "struct VoucherTypes.TenantConfig",
          "name": "config",
          "type": "tuple"
        }
      ],
      "name": "createTenant",
      "outputs": [],
      "stateMutability": "nonpayable",
      "type": "function"
    },
    {
      "inputs": [
        {
          "internalType": "bytes32",
          "name": "tenantId",
          "type": "bytes32"
        },
        {
          "internalType": "bytes32",
          "name": "fileHash",
          "type": "bytes32"
        },
        {
          "internalType": "address",
          "name": "signer",
          "type": "address"
        }
      ],
      "name": "documentSigners",
      "outputs": [
        {
          "internalType": "bool",
          "name": "",
          "type": "bool"
        }
      ],
      "stateMutability": "view",
      "type": "function"
    },
    {
      "inputs": [
        {
          "internalType": "bytes32",
          "name": "tenantId",
          "type": "bytes32"
        }
      ],
      "name": "executeUnstake",
      "outputs": [],
      "stateMutability": "nonpayable",
      "type": "function"
    },
    {
      "inputs": [
        {
          "internalType": "bytes32",
          "name": "tenantId",
          "type": "bytes32"
        },
        {
          "internalType": "uint32",
          "name": "docType",
          "type": "uint32"
        }
      ],
      "name": "getCoSignPolicyStruct",
      "outputs": [
        {
          "components": [
            {
              "internalType": "bool",
              "name": "enabled",
              "type": "bool"
            },
            {
              "internalType": "uint256",
              "name": "minStake",
              "type": "uint256"
            },
            {
              "internalType": "uint256",
              "name": "minSigners",
              "type": "uint256"
            },
            {
              "internalType": "uint256",
              "name": "requiredRoleMask",
              "type": "uint256"
            }
          ],
          "internalType": "struct VoucherTypes.CoSignPolicy",
          "name": "",
          "type": "tuple"
        }
      ],
      "stateMutability": "view",
      "type": "function"
    },
    {
      "inputs": [
        {
          "internalType": "bytes32",
          "name": "tenantId",
          "type": "bytes32"
        },
        {
          "internalType": "bytes32",
          "name": "fileHash",
          "type": "bytes32"
        }
      ],
      "name": "getCoSignStatus",
      "outputs": [
        {
          "internalType": "uint256",
          "name": "count",
          "type": "uint256"
        },
        {
          "internalType": "uint256",
          "name": "trustedCount",
          "type": "uint256"
        },
        {
          "internalType": "uint256",
          "name": "roleMask",
          "type": "uint256"
        },
        {
          "internalType": "bool",
          "name": "qualified",
          "type": "bool"
        }
      ],
      "stateMutability": "view",
      "type": "function"
    },
    {
      "inputs": [
        {
          "internalType": "bytes32",
          "name": "tenantId",
          "type": "bytes32"
        },
        {
          "internalType": "bytes32",
          "name": "fileHash",
          "type": "bytes32"
        }
      ],
      "name": "getDocument",
      "outputs": [
        {
          "components": [
            {
              "internalType": "bytes32",
              "name": "tenantId",
              "type": "bytes32"
            },
            {
              "internalType": "string",
              "name": "cid",
              "type": "string"
            },
            {
              "internalType": "address",
              "name": "issuer",
              "type": "address"
            },
            {
              "internalType": "uint256",
              "name": "timestamp",
              "type": "uint256"
            },
            {
              "internalType": "bool",
              "name": "isValid",
              "type": "bool"
            },
            {
              "internalType": "bytes32",
              "name": "ciphertextHash",
              "type": "bytes32"
            },
            {
              "internalType": "bytes32",
              "name": "encryptionMetaHash",
              "type": "bytes32"
            },
            {
              "internalType": "uint32",
              "name": "docType",
              "type": "uint32"
            },
            {
              "internalType": "uint32",
              "name": "version",
              "type": "uint32"
            }
          ],
          "internalType": "struct VoucherTypes.Document",
          "name": "",
          "type": "tuple"
        }
      ],
      "stateMutability": "view",
      "type": "function"
    },
    {
      "inputs": [
        {
          "internalType": "bytes32",
          "name": "tenantId",
          "type": "bytes32"
        },
        {
          "internalType": "address",
          "name": "operator",
          "type": "address"
        }
      ],
      "name": "getNonce",
      "outputs": [
        {
          "internalType": "uint256",
          "name": "",
          "type": "uint256"
        }
      ],
      "stateMutability": "view",
      "type": "function"
    },
    {
      "inputs": [
        {
          "internalType": "bytes32",
          "name": "tenantId",
          "type": "bytes32"
        },
        {
          "internalType": "uint256",
          "name": "index",
          "type": "uint256"
        }
      ],
      "name": "getOperatorAtIndex",
      "outputs": [
        {
          "internalType": "address",
          "name": "",
          "type": "address"
        }
      ],
      "stateMutability": "view",
      "type": "function"
    },
    {
      "inputs": [
        {
          "internalType": "bytes32",
          "name": "tenantId",
          "type": "bytes32"
        }
      ],
      "name": "getOperatorListLength",
      "outputs": [
        {
          "internalType": "uint256",
          "name": "",
          "type": "uint256"
        }
      ],
      "stateMutability": "view",
      "type": "function"
    },
    {
      "inputs": [
        {
          "internalType": "bytes32",
          "name": "tenantId",
          "type": "bytes32"
        },
        {
          "internalType": "address",
          "name": "operator",
          "type": "address"
        }
      ],
      "name": "getOperatorStruct",
      "outputs": [
        {
          "components": [
            {
              "internalType": "bytes32",
              "name": "tenantId",
              "type": "bytes32"
            },
            {
              "internalType": "address",
              "name": "walletAddress",
              "type": "address"
            },
            {
              "internalType": "string",
              "name": "metadataURI",
              "type": "string"
            },
            {
              "internalType": "uint256",
              "name": "stakeAmount",
              "type": "uint256"
            },
            {
              "internalType": "bool",
              "name": "isActive",
              "type": "bool"
            }
          ],
          "internalType": "struct VoucherTypes.Operator",
          "name": "",
          "type": "tuple"
        }
      ],
      "stateMutability": "view",
      "type": "function"
    },
    {
      "inputs": [
        {
          "internalType": "bytes32",
          "name": "tenantId",
          "type": "bytes32"
        },
        {
          "internalType": "address",
          "name": "operator",
          "type": "address"
        }
      ],
      "name": "getPendingUnstakeAt",
      "outputs": [
        {
          "internalType": "uint256",
          "name": "",
          "type": "uint256"
        }
      ],
      "stateMutability": "view",
      "type": "function"
    },
    {
      "inputs": [
        {
          "internalType": "bytes32",
          "name": "tenantId",
          "type": "bytes32"
        },
        {
          "internalType": "address",
          "name": "operator",
          "type": "address"
        }
      ],
      "name": "getRecoveryAlias",
      "outputs": [
        {
          "internalType": "address",
          "name": "rootOperator",
          "type": "address"
        },
        {
          "internalType": "address",
          "name": "replacedBy",
          "type": "address"
        }
      ],
      "stateMutability": "view",
      "type": "function"
    },
    {
      "inputs": [
        {
          "internalType": "bytes32",
          "name": "role",
          "type": "bytes32"
        }
      ],
      "name": "getRoleAdmin",
      "outputs": [
        {
          "internalType": "bytes32",
          "name": "",
          "type": "bytes32"
        }
      ],
      "stateMutability": "view",
      "type": "function"
    },
    {
      "inputs": [
        {
          "internalType": "uint256",
          "name": "index",
          "type": "uint256"
        }
      ],
      "name": "getTenantAtIndex",
      "outputs": [
        {
          "internalType": "bytes32",
          "name": "",
          "type": "bytes32"
        }
      ],
      "stateMutability": "view",
      "type": "function"
    },
    {
      "inputs": [
        {
          "internalType": "bytes32",
          "name": "tenantId",
          "type": "bytes32"
        }
      ],
      "name": "getTenantConfig",
      "outputs": [
        {
          "internalType": "uint256",
          "name": "minStake",
          "type": "uint256"
        },
        {
          "internalType": "uint256",
          "name": "cooldown",
          "type": "uint256"
        }
      ],
      "stateMutability": "view",
      "type": "function"
    },
    {
      "inputs": [],
      "name": "getTenantListLength",
      "outputs": [
        {
          "internalType": "uint256",
          "name": "",
          "type": "uint256"
        }
      ],
      "stateMutability": "view",
      "type": "function"
    },
    {
      "inputs": [
        {
          "internalType": "bytes32",
          "name": "tenantId",
          "type": "bytes32"
        }
      ],
      "name": "getTenantStruct",
      "outputs": [
        {
          "components": [
            {
              "internalType": "address",
              "name": "admin",
              "type": "address"
            },
            {
              "internalType": "address",
              "name": "treasury",
              "type": "address"
            },
            {
              "internalType": "bool",
              "name": "isActive",
              "type": "bool"
            },
            {
              "internalType": "uint256",
              "name": "createdAt",
              "type": "uint256"
            }
          ],
          "internalType": "struct VoucherTypes.Tenant",
          "name": "",
          "type": "tuple"
        }
      ],
      "stateMutability": "view",
      "type": "function"
    },
    {
      "inputs": [
        {
          "internalType": "bytes32",
          "name": "role",
          "type": "bytes32"
        },
        {
          "internalType": "address",
          "name": "account",
          "type": "address"
        }
      ],
      "name": "grantRole",
      "outputs": [],
      "stateMutability": "nonpayable",
      "type": "function"
    },
    {
      "inputs": [
        {
          "internalType": "bytes32",
          "name": "role",
          "type": "bytes32"
        },
        {
          "internalType": "address",
          "name": "account",
          "type": "address"
        }
      ],
      "name": "hasRole",
      "outputs": [
        {
          "internalType": "bool",
          "name": "",
          "type": "bool"
        }
      ],
      "stateMutability": "view",
      "type": "function"
    },
    {
      "inputs": [
        {
          "internalType": "bytes32",
          "name": "tenantId",
          "type": "bytes32"
        },
        {
          "internalType": "string",
          "name": "_metadataURI",
          "type": "string"
        }
      ],
      "name": "joinAsOperator",
      "outputs": [],
      "stateMutability": "payable",
      "type": "function"
    },
    {
      "inputs": [
        {
          "internalType": "bytes32",
          "name": "tenantId",
          "type": "bytes32"
        },
        {
          "internalType": "address",
          "name": "operator",
          "type": "address"
        }
      ],
      "name": "nonces",
      "outputs": [
        {
          "internalType": "uint256",
          "name": "",
          "type": "uint256"
        }
      ],
      "stateMutability": "view",
      "type": "function"
    },
    {
      "inputs": [
        {
          "internalType": "bytes32",
          "name": "tenantId",
          "type": "bytes32"
        },
        {
          "internalType": "address",
          "name": "operator",
          "type": "address"
        }
      ],
      "name": "pendingUnstakeAt",
      "outputs": [
        {
          "internalType": "uint256",
          "name": "",
          "type": "uint256"
        }
      ],
      "stateMutability": "view",
      "type": "function"
    },
    {
      "inputs": [],
      "name": "protocolOwner",
      "outputs": [
        {
          "internalType": "address",
          "name": "",
          "type": "address"
        }
      ],
      "stateMutability": "view",
      "type": "function"
    },
    {
      "inputs": [
        {
          "internalType": "bytes32",
          "name": "tenantId",
          "type": "bytes32"
        },
        {
          "internalType": "address",
          "name": "lostOperator",
          "type": "address"
        },
        {
          "internalType": "address",
          "name": "newOperator",
          "type": "address"
        },
        {
          "internalType": "string",
          "name": "reason",
          "type": "string"
        }
      ],
      "name": "recoverOperatorByAdmin",
      "outputs": [],
      "stateMutability": "nonpayable",
      "type": "function"
    },
    {
      "inputs": [
        {
          "internalType": "bytes32",
          "name": "tenantId",
          "type": "bytes32"
        },
        {
          "internalType": "address",
          "name": "lostOperator",
          "type": "address"
        },
        {
          "internalType": "string",
          "name": "reason",
          "type": "string"
        }
      ],
      "name": "recoverOperatorByDelegate",
      "outputs": [],
      "stateMutability": "nonpayable",
      "type": "function"
    },
    {
      "inputs": [
        {
          "internalType": "bytes32",
          "name": "tenantId",
          "type": "bytes32"
        },
        {
          "internalType": "address",
          "name": "operator",
          "type": "address"
        }
      ],
      "name": "recoveryDelegates",
      "outputs": [
        {
          "internalType": "address",
          "name": "",
          "type": "address"
        }
      ],
      "stateMutability": "view",
      "type": "function"
    },
    {
      "inputs": [
        {
          "components": [
            {
              "internalType": "bytes32",
              "name": "tenantId",
              "type": "bytes32"
            },
            {
              "internalType": "bytes32",
              "name": "fileHash",
              "type": "bytes32"
            },
            {
              "internalType": "string",
              "name": "cid",
              "type": "string"
            },
            {
              "internalType": "bytes32",
              "name": "ciphertextHash",
              "type": "bytes32"
            },
            {
              "internalType": "bytes32",
              "name": "encryptionMetaHash",
              "type": "bytes32"
            },
            {
              "internalType": "uint32",
              "name": "docType",
              "type": "uint32"
            },
            {
              "internalType": "uint32",
              "name": "version",
              "type": "uint32"
            },
            {
              "internalType": "uint256",
              "name": "nonce",
              "type": "uint256"
            },
            {
              "internalType": "uint256",
              "name": "deadline",
              "type": "uint256"
            }
          ],
          "internalType": "struct VoucherTypes.RegisterPayload",
          "name": "payload",
          "type": "tuple"
        },
        {
          "internalType": "bytes",
          "name": "signature",
          "type": "bytes"
        }
      ],
      "name": "registerWithSignature",
      "outputs": [],
      "stateMutability": "nonpayable",
      "type": "function"
    },
    {
      "inputs": [
        {
          "internalType": "bytes32",
          "name": "role",
          "type": "bytes32"
        },
        {
          "internalType": "address",
          "name": "callerConfirmation",
          "type": "address"
        }
      ],
      "name": "renounceRole",
      "outputs": [],
      "stateMutability": "nonpayable",
      "type": "function"
    },
    {
      "inputs": [
        {
          "internalType": "bytes32",
          "name": "tenantId",
          "type": "bytes32"
        }
      ],
      "name": "requestUnstake",
      "outputs": [],
      "stateMutability": "nonpayable",
      "type": "function"
    },
    {
      "inputs": [
        {
          "internalType": "bytes32",
          "name": "tenantId",
          "type": "bytes32"
        },
        {
          "internalType": "bytes32",
          "name": "fileHash",
          "type": "bytes32"
        },
        {
          "internalType": "string",
          "name": "reason",
          "type": "string"
        }
      ],
      "name": "revokeDocument",
      "outputs": [],
      "stateMutability": "nonpayable",
      "type": "function"
    },
    {
      "inputs": [
        {
          "internalType": "bytes32",
          "name": "role",
          "type": "bytes32"
        },
        {
          "internalType": "address",
          "name": "account",
          "type": "address"
        }
      ],
      "name": "revokeRole",
      "outputs": [],
      "stateMutability": "nonpayable",
      "type": "function"
    },
    {
      "inputs": [
        {
          "internalType": "bytes32",
          "name": "tenantId",
          "type": "bytes32"
        },
        {
          "internalType": "uint32",
          "name": "docType",
          "type": "uint32"
        },
        {
          "internalType": "address",
          "name": "operator",
          "type": "address"
        },
        {
          "internalType": "bool",
          "name": "whitelisted",
          "type": "bool"
        },
        {
          "internalType": "uint16",
          "name": "roleId",
          "type": "uint16"
        }
      ],
      "name": "setCoSignOperator",
      "outputs": [],
      "stateMutability": "nonpayable",
      "type": "function"
    },
    {
      "inputs": [
        {
          "internalType": "bytes32",
          "name": "tenantId",
          "type": "bytes32"
        },
        {
          "internalType": "uint32",
          "name": "docType",
          "type": "uint32"
        },
        {
          "internalType": "bool",
          "name": "enabled",
          "type": "bool"
        },
        {
          "internalType": "uint256",
          "name": "minStake",
          "type": "uint256"
        },
        {
          "internalType": "uint256",
          "name": "minSigners",
          "type": "uint256"
        },
        {
          "internalType": "uint256",
          "name": "requiredRoleMask",
          "type": "uint256"
        }
      ],
      "name": "setCoSignPolicy",
      "outputs": [],
      "stateMutability": "nonpayable",
      "type": "function"
    },
    {
      "inputs": [
        {
          "internalType": "bytes32",
          "name": "tenantId",
          "type": "bytes32"
        },
        {
          "internalType": "uint256",
          "name": "newMinOperatorStake",
          "type": "uint256"
        }
      ],
      "name": "setMinOperatorStake",
      "outputs": [],
      "stateMutability": "nonpayable",
      "type": "function"
    },
    {
      "inputs": [
        {
          "internalType": "bytes32",
          "name": "tenantId",
          "type": "bytes32"
        },
        {
          "internalType": "address",
          "name": "operator",
          "type": "address"
        },
        {
          "internalType": "bool",
          "name": "isActive",
          "type": "bool"
        },
        {
          "internalType": "string",
          "name": "reason",
          "type": "string"
        }
      ],
      "name": "setOperatorStatus",
      "outputs": [],
      "stateMutability": "nonpayable",
      "type": "function"
    },
    {
      "inputs": [
        {
          "internalType": "bytes32",
          "name": "tenantId",
          "type": "bytes32"
        },
        {
          "internalType": "address",
          "name": "delegate",
          "type": "address"
        }
      ],
      "name": "setRecoveryDelegate",
      "outputs": [],
      "stateMutability": "nonpayable",
      "type": "function"
    },
    {
      "inputs": [
        {
          "internalType": "bytes32",
          "name": "tenantId",
          "type": "bytes32"
        },
        {
          "internalType": "bool",
          "name": "isActive",
          "type": "bool"
        }
      ],
      "name": "setTenantStatus",
      "outputs": [],
      "stateMutability": "nonpayable",
      "type": "function"
    },
    {
      "inputs": [
        {
          "internalType": "bytes32",
          "name": "tenantId",
          "type": "bytes32"
        },
        {
          "internalType": "address",
          "name": "newTreasury",
          "type": "address"
        }
      ],
      "name": "setTreasury",
      "outputs": [],
      "stateMutability": "nonpayable",
      "type": "function"
    },
    {
      "inputs": [
        {
          "internalType": "bytes32",
          "name": "tenantId",
          "type": "bytes32"
        },
        {
          "internalType": "uint256",
          "name": "newUnstakeCooldown",
          "type": "uint256"
        }
      ],
      "name": "setUnstakeCooldown",
      "outputs": [],
      "stateMutability": "nonpayable",
      "type": "function"
    },
    {
      "inputs": [
        {
          "internalType": "bytes32",
          "name": "tenantId",
          "type": "bytes32"
        },
        {
          "internalType": "bytes32",
          "name": "violationCode",
          "type": "bytes32"
        },
        {
          "internalType": "uint16",
          "name": "penaltyBps",
          "type": "uint16"
        }
      ],
      "name": "setViolationPenalty",
      "outputs": [],
      "stateMutability": "nonpayable",
      "type": "function"
    },
    {
      "inputs": [
        {
          "internalType": "bytes32",
          "name": "tenantId",
          "type": "bytes32"
        },
        {
          "internalType": "address",
          "name": "_operator",
          "type": "address"
        },
        {
          "internalType": "string",
          "name": "reason",
          "type": "string"
        }
      ],
      "name": "slashOperator",
      "outputs": [],
      "stateMutability": "nonpayable",
      "type": "function"
    },
    {
      "inputs": [
        {
          "internalType": "bytes32",
          "name": "tenantId",
          "type": "bytes32"
        },
        {
          "internalType": "address",
          "name": "_operator",
          "type": "address"
        },
        {
          "internalType": "bytes32",
          "name": "violationCode",
          "type": "bytes32"
        },
        {
          "internalType": "string",
          "name": "reason",
          "type": "string"
        }
      ],
      "name": "softSlashOperator",
      "outputs": [],
      "stateMutability": "nonpayable",
      "type": "function"
    },
    {
      "inputs": [
        {
          "internalType": "bytes4",
          "name": "interfaceId",
          "type": "bytes4"
        }
      ],
      "name": "supportsInterface",
      "outputs": [
        {
          "internalType": "bool",
          "name": "",
          "type": "bool"
        }
      ],
      "stateMutability": "view",
      "type": "function"
    },
    {
      "inputs": [
        {
          "internalType": "bytes32",
          "name": "tenantId",
          "type": "bytes32"
        },
        {
          "internalType": "uint32",
          "name": "docType",
          "type": "uint32"
        },
        {
          "internalType": "address",
          "name": "operator",
          "type": "address"
        }
      ],
      "name": "tenantCoSignRoles",
      "outputs": [
        {
          "internalType": "uint16",
          "name": "",
          "type": "uint16"
        }
      ],
      "stateMutability": "view",
      "type": "function"
    },
    {
      "inputs": [
        {
          "internalType": "bytes32",
          "name": "tenantId",
          "type": "bytes32"
        },
        {
          "internalType": "uint32",
          "name": "docType",
          "type": "uint32"
        },
        {
          "internalType": "address",
          "name": "operator",
          "type": "address"
        }
      ],
      "name": "tenantCoSignWhitelisted",
      "outputs": [
        {
          "internalType": "bool",
          "name": "",
          "type": "bool"
        }
      ],
      "stateMutability": "view",
      "type": "function"
    },
    {
      "inputs": [
        {
          "internalType": "bytes32",
          "name": "tenantId",
          "type": "bytes32"
        }
      ],
      "name": "tenantMinOperatorStake",
      "outputs": [
        {
          "internalType": "uint256",
          "name": "",
          "type": "uint256"
        }
      ],
      "stateMutability": "view",
      "type": "function"
    },
    {
      "inputs": [
        {
          "internalType": "bytes32",
          "name": "tenantId",
          "type": "bytes32"
        }
      ],
      "name": "tenantUnstakeCooldown",
      "outputs": [
        {
          "internalType": "uint256",
          "name": "",
          "type": "uint256"
        }
      ],
      "stateMutability": "view",
      "type": "function"
    },
    {
      "inputs": [
        {
          "internalType": "bytes32",
          "name": "tenantId",
          "type": "bytes32"
        },
        {
          "internalType": "bytes32",
          "name": "violationCode",
          "type": "bytes32"
        }
      ],
      "name": "tenantViolationPenalties",
      "outputs": [
        {
          "internalType": "uint16",
          "name": "",
          "type": "uint16"
        }
      ],
      "stateMutability": "view",
      "type": "function"
    },
    {
      "inputs": [
        {
          "internalType": "bytes32",
          "name": "tenantId",
          "type": "bytes32"
        }
      ],
      "name": "topUpStake",
      "outputs": [],
      "stateMutability": "payable",
      "type": "function"
    },
    {
      "inputs": [
        {
          "internalType": "bytes32",
          "name": "tenantId",
          "type": "bytes32"
        },
        {
          "internalType": "bytes32",
          "name": "fileHash",
          "type": "bytes32"
        }
      ],
      "name": "trustedCoSignCount",
      "outputs": [
        {
          "internalType": "uint256",
          "name": "",
          "type": "uint256"
        }
      ],
      "stateMutability": "view",
      "type": "function"
    },
    {
      "inputs": [
        {
          "internalType": "bytes32",
          "name": "tenantId",
          "type": "bytes32"
        },
        {
          "internalType": "bytes32",
          "name": "fileHash",
          "type": "bytes32"
        }
      ],
      "name": "trustedCoSignRoleMask",
      "outputs": [
        {
          "internalType": "uint256",
          "name": "",
          "type": "uint256"
        }
      ],
      "stateMutability": "view",
      "type": "function"
    },
    {
      "inputs": [
        {
          "internalType": "bytes32",
          "name": "tenantId",
          "type": "bytes32"
        },
        {
          "internalType": "string",
          "name": "metadataURI",
          "type": "string"
        }
      ],
      "name": "updateOperatorMetadata",
      "outputs": [],
      "stateMutability": "nonpayable",
      "type": "function"
    }
  ],
  "bytecode": "0x60a060405234801561000f575f5ffd5b5060017f9b779b17422d0df92223018b32b4d1fa46e071723d6817e2486d003becc55f0055600380546001600160a01b03191633908117909155610054905f9061014f565b5061007f7fd0c934f24ef5a377dc3832429ce607cbe940a3ca3c6cd7e532bd35b4b212d1963361014f565b50604080517f8b73c3c69bb8fe3d512ecc4cf759cc79239f7b179b0ffacaa9a75d522b39400f60208201527f32e8a79951df9d41f0345a487dbe19ec03b0a7de9751dd4031f0cc3d0a623968918101919091527fc89efdaa54c0f20c7adf612882df0950f5a951637e0307cdcb4c672f298b8bc660608201524660808201523060a082015260c00160408051601f1981840301815290829052805160209091012060805233907fc130514d7c8c002bccb3fd35204490d020b73c0188386dbb07de86d15d5cb9a0905f90a26101f8565b5f828152602081815260408083206001600160a01b038516845290915281205460ff166101ef575f838152602081815260408083206001600160a01b03861684529091529020805460ff191660011790556101a73390565b6001600160a01b0316826001600160a01b0316847f2f8788117e7eff1d82e926ec794901d17c78024a50270940304540a733656f0d60405160405180910390a45060016101f2565b505f5b92915050565b608051612d0b6102175f395f818161199e0152611b610152612d0b5ff3fe6080604052600436106103a8575f3560e01c806386e2b63f116101e9578063cb1c2b5c11610108578063e26edb7a1161009d578063f3e49baa1161006d578063f3e49baa14610cfd578063f4410c0614610d50578063fc89626714610d6f578063ff14d45814610d9a575f5ffd5b8063e26edb7a14610c5f578063e7b06ccd14610c7e578063e9e51a4f14610c9d578063eaa3668f14610cea575f5ffd5b8063d4b77cfc116100d8578063d4b77cfc14610b8b578063d547741f14610baa578063d9fe7f6714610bc9578063dfa89c1d14610c1d575f5ffd5b8063cb1c2b5c14610aa1578063cbbb0fec14610abc578063d019036e14610adb578063d1e4bbde14610aee575f5ffd5b8063a468703d1161017e578063b5004d791161014e578063b5004d7914610a0d578063c1d6ba6914610a44578063c664e0d514610a63578063c70496a414610a82575f5ffd5b8063a468703d146109af578063a60f4c09146109ce578063aee2bc86146109ed578063b04da8a114610692575f5ffd5b8063920da433116101b9578063920da4331461094a57806395f001e61461095e578063a217fddf1461097d578063a2375cf314610990575f5ffd5b806386e2b63f1461086a5780638bdb1de3146108e15780638d18edf01461090c57806391d148541461092b575f5ffd5b806336568abe116102d55780635e5098071161026a5780636dc0c12a1161023a5780636dc0c12a1461082c578063715eba9a1461084b578063795f92691461086a5780637ff63731146108ab575f5ffd5b80635e5098071461078c5780636b044e3d146107ab5780636cc531d4146107ca5780636d184dd3146107f6575f5ffd5b80634f138e01116102a55780634f138e01146106d3578063502ea5c214610709578063541bd3ee146107425780635533b9bf14610761575f5ffd5b806336568abe1461063557806342149fd0146106545780634d00857a146106735780634e76b0e414610692575f5ffd5b80630f3384e01161034b578063246145d81161031b578063246145d81461059b578063248a9ca3146105ae57806328a1b2c9146105dc5780632f2ff15d14610616575f5ffd5b80630f3384e0146104f0578063130d571b146105115780631b48ba1f146105305780631b90bef11461055c575f5ffd5b80630619a7d0116103865780630619a7d0146104535780630a75a2f0146104a75780630b60c58f146104c55780630e0895b9146104db575f5ffd5b8063015d4ad3146103ac57806301ffc9a71461040c5780630225d3cc1461042b575b5f5ffd5b3480156103b7575f5ffd5b506103f76103c6366004612340565b5f928352600f602090815260408085209385529281528284206001600160a01b039290921684525290205460ff1690565b60405190151581526020015b60405180910390f35b348015610417575f5ffd5b506103f7610426366004612372565b610e74565b348015610436575f5ffd5b5061044061271081565b60405161ffff9091168152602001610403565b34801561045e575f5ffd5b5061047261046d3660046123ac565b610eaa565b604051610403919081511515815260208083015190820152604080830151908201526060918201519181019190915260800190565b3480156104b2575f5ffd5b506005545b604051908152602001610403565b3480156104d0575f5ffd5b506104b76201518081565b3480156104e6575f5ffd5b5061044061010081565b3480156104fb575f5ffd5b5061050f61050a3660046123d6565b610f2b565b005b34801561051c575f5ffd5b5061050f61052b366004612443565b610f9c565b34801561053b575f5ffd5b5061054f61054a3660046123d6565b611010565b60405161040391906124db565b348015610567575f5ffd5b5061057b610576366004612585565b611192565b604080516001600160a01b03938416815292909116602083015201610403565b61050f6105a93660046125a6565b6111d8565b3480156105b9575f5ffd5b506104b76105c83660046125ee565b5f9081526020819052604090206001015490565b3480156105e7575f5ffd5b506104406105f63660046123d6565b5f91825260176020908152604080842092845291905290205461ffff1690565b348015610621575f5ffd5b5061050f610630366004612585565b611246565b348015610640575f5ffd5b5061050f61064f366004612585565b61127a565b34801561065f575f5ffd5b5061050f61066e366004612605565b6112b2565b34801561067e575f5ffd5b5061050f61068d36600461266c565b611323565b34801561069d575f5ffd5b506104b76106ac366004612585565b5f918252600a602090815260408084206001600160a01b0393909316845291905290205490565b3480156106de575f5ffd5b506104b76106ed3660046123d6565b5f91825260106020908152604080842092845291905290205490565b348015610714575f5ffd5b506103f76107233660046123d6565b5f91825260136020908152604080842092845291905290205460ff1690565b34801561074d575f5ffd5b5061050f61075c3660046125ee565b61138e565b34801561076c575f5ffd5b506104b761077b3660046125ee565b5f9081526007602052604090205490565b348015610797575f5ffd5b5061050f6107a63660046126c6565b611414565b3480156107b6575f5ffd5b5061050f6107c53660046126ef565b611463565b3480156107d5575f5ffd5b506107e96107e4366004612585565b6114a2565b6040516104039190612726565b348015610801575f5ffd5b506104b76108103660046123d6565b5f91825260116020908152604080842092845291905290205490565b348015610837575f5ffd5b5061050f61084636600461277f565b6115ce565b348015610856575f5ffd5b5061050f610865366004612585565b611911565b348015610875575f5ffd5b506104b7610884366004612585565b5f9182526009602090815260408084206001600160a01b0393909316845291905290205490565b3480156108b6575f5ffd5b506104b76108c53660046123d6565b5f91825260126020908152604080842092845291905290205490565b3480156108ec575f5ffd5b506104b76108fb3660046125ee565b5f9081526018602052604090205490565b348015610917575f5ffd5b5061050f6109263660046127c3565b61195e565b348015610936575f5ffd5b506103f7610945366004612585565b611a07565b348015610955575f5ffd5b50610440600181565b348015610969575f5ffd5b5061050f610978366004612818565b611a2f565b348015610988575f5ffd5b506104b75f81565b34801561099b575f5ffd5b5061050f6109aa3660046125a6565b611ae4565b3480156109ba575f5ffd5b5061050f6109c9366004612839565b611b21565b3480156109d9575f5ffd5b5061050f6109e8366004612876565b611b88565b3480156109f8575f5ffd5b506104b75f516020612c965f395f51905f5281565b348015610a18575f5ffd5b50610a2c610a273660046123d6565b611c1e565b6040516001600160a01b039091168152602001610403565b348015610a4f575f5ffd5b50600354610a2c906001600160a01b031681565b348015610a6e575f5ffd5b5061050f610a7d366004612585565b611c58565b348015610a8d575f5ffd5b506104b7610a9c3660046125ee565b611ca5565b348015610aac575f5ffd5b506104b767016345785d8a000081565b348015610ac7575f5ffd5b5061050f610ad63660046123d6565b611ccc565b348015610ae6575f5ffd5b506104405f81565b348015610af9575f5ffd5b50610b69610b083660046123d6565b5f8281526010602090815260408083208484528252808320548584526011835281842085855283528184205486855260128452828520868652845282852054968552601384528285209585529490925290912054909391929160ff90911690565b6040805194855260208501939093529183015215156060820152608001610403565b348015610b96575f5ffd5b5061050f610ba53660046128ca565b611d11565b348015610bb5575f5ffd5b5061050f610bc4366004612585565b611d52565b348015610bd4575f5ffd5b50610440610be33660046128fc565b5f92835260166020908152604080852063ffffffff9490941685529281528284206001600160a01b039290921684525290205461ffff1690565b348015610c28575f5ffd5b50610a2c610c37366004612585565b5f918252600b602090815260408084206001600160a01b039384168552909152909120541690565b348015610c6a575f5ffd5b5061050f610c793660046125ee565b611d76565b348015610c89575f5ffd5b5061050f610c9836600461292c565b611ddf565b348015610ca8575f5ffd5b50610cd5610cb73660046125ee565b5f908152601860209081526040808320546019909252909120549091565b60408051928352602083019190915201610403565b61050f610cf83660046125ee565b611e6a565b348015610d08575f5ffd5b506103f7610d173660046128fc565b5f92835260156020908152604080852063ffffffff9490941685529281528284206001600160a01b039290921684525290205460ff1690565b348015610d5b575f5ffd5b5061050f610d6a366004612605565b611ea8565b348015610d7a575f5ffd5b506104b7610d893660046125ee565b5f9081526019602052604090205490565b348015610da5575f5ffd5b50610e31610db43660046125ee565b604080516080810182525f808252602082018190529181018290526060810191909152505f90815260046020908152604091829020825160808101845281546001600160a01b039081168252600183015490811693820193909352600160a01b90920460ff16151592820192909252600290910154606082015290565b604051610403919081516001600160a01b039081168252602080840151909116908201526040808301511515908201526060918201519181019190915260800190565b5f6001600160e01b03198216637965db0b60e01b1480610ea457506301ffc9a760e01b6001600160e01b03198316145b92915050565b610ed360405180608001604052805f151581526020015f81526020015f81526020015f81525090565b505f91825260146020908152604080842063ffffffff939093168452918152918190208151608081018352815460ff161515815260018201549381019390935260028101549183019190915260030154606082015290565b60405163b5b5bd1960e01b8152600480820152602481018390526044810182905273__$dda01e1e2c7bee2f4d7421c1baf2ea2b46$__9063b5b5bd19906064015b5f6040518083038186803b158015610f82575f5ffd5b505af4158015610f94573d5f5f3e3d5ffd5b505050505050565b604051633278158760e21b815273__$dda01e1e2c7bee2f4d7421c1baf2ea2b46$__9063c9e0561c90610fdd9060049089908990899089908990860161299a565b5f6040518083038186803b158015610ff3575f5ffd5b505af4158015611005573d5f5f3e3d5ffd5b505050505050505050565b61106e6040518061012001604052805f8152602001606081526020015f6001600160a01b031681526020015f81526020015f151581526020015f81526020015f81526020015f63ffffffff1681526020015f63ffffffff1681525090565b5f838152600e60209081526040808320858452825291829020825161012081019093528054835260018101805491928401916110a9906129db565b80601f01602080910402602001604051908101604052809291908181526020018280546110d5906129db565b80156111205780601f106110f757610100808354040283529160200191611120565b820191905f5260205f20905b81548152906001019060200180831161110357829003601f168201915b505050918352505060028201546001600160a01b0316602082015260038201546040820152600482015460ff161515606082015260058201546080820152600682015460a082015260079091015463ffffffff80821660c08401526401000000009091041660e0909101529392505050565b5f828152600c602090815260408083206001600160a01b0380861680865291845282852054878652600d85528386209286529190935292205491811691165b9250929050565b60405163c6816c2560e01b815273__$dda01e1e2c7bee2f4d7421c1baf2ea2b46$__9063c6816c2590611215906004908790879087908401612a13565b5f6040518083038186803b15801561122b575f5ffd5b505af415801561123d573d5f5f3e3d5ffd5b50505050505050565b5f8281526020819052604090206001015461126081611f31565b61126a8383611f3b565b6112748383611fda565b50505050565b6001600160a01b03811633146112a35760405163334bd91960e11b815260040160405180910390fd5b6112ad8282612069565b505050565b604051630f89227160e41b815273__$3d61d23392165436041ba58e9c3ae7a4b8$__9063f8922710906112f19060049088908890889088908501612a3c565b5f6040518083038186803b158015611307575f5ffd5b505af4158015611319573d5f5f3e3d5ffd5b5050505050505050565b60405163d4c3d82f60e01b81526004808201526024810186905263ffffffff851660448201526001600160a01b0384166064820152821515608482015261ffff821660a482015273__$116968842c4656ce8c4b8b252f1bdb323f$__9063d4c3d82f9060c401610fdd565b6113966120d2565b6040516302cad5b360e41b81526004808201526024810182905273__$dda01e1e2c7bee2f4d7421c1baf2ea2b46$__90632cad5b30906044015f6040518083038186803b1580156113e5575f5ffd5b505af41580156113f7573d5f5f3e3d5ffd5b5050505061141160015f516020612cb65f395f51905f5255565b50565b60405163682c181760e01b8152600480820152602481018490526044810183905261ffff8216606482015273__$dda01e1e2c7bee2f4d7421c1baf2ea2b46$__9063682c181790608401611215565b604051631fc48baf60e21b815273__$78279d367c11614a675a71643e6f07974a$__90637f122ebc906112f19060049088908890889088908501612a74565b6114db6040518060a001604052805f81526020015f6001600160a01b03168152602001606081526020015f81526020015f151581525090565b5f8381526006602090815260408083206001600160a01b03808716855290835292819020815160a081018352815481526001820154909416928401929092526002820180549184019161152d906129db565b80601f0160208091040260200160405190810160405280929190818152602001828054611559906129db565b80156115a45780601f1061157b576101008083540402835291602001916115a4565b820191905f5260205f20905b81548152906001019060200180831161158757829003601f168201915b50505091835250506003820154602082015260049091015460ff1615156040909101529392505050565b5f516020612c965f395f51905f526115e581611f31565b83611603576040516310a571d160e31b815260040160405180910390fd5b5f6116116020840184612a99565b6001600160a01b0316148061162d57506001600160a01b038316155b1561164b57604051630e4607ed60e41b815260040160405180910390fd5b5f61165c6060840160408501612a99565b6001600160a01b03160361168357604051630e4607ed60e41b815260040160405180910390fd5b6116986116936020840184612a99565b6120ed565b6116ab6116936060840160408501612a99565b6116b4836120ed565b6116da6116c46020840184612a99565b6116d46060850160408601612a99565b85612122565b81606001355f036116fe576040516310a571d160e31b815260040160405180910390fd5b81608001355f03611722576040516310a571d160e31b815260040160405180910390fd5b5f848152600460205260409020546001600160a01b031615611757576040516355ad509160e11b815260040160405180910390fd5b6040805160808101909152806117706020850185612a99565b6001600160a01b03908116825285811660208084019190915260016040808501829052426060958601525f8a815260048452818120875181549087166001600160a01b0319909116178155938701518484018054938901511515600160a01b026001600160a81b0319909416919096161791909117909355939092015160029092019190915560058054928301815581527f036b6384b5eca791c62761152d0c79bb0604c104a5fb6f4eb0703f3154bb3db09091018590556118318561218d565b90505f61183d866121e2565b905061184b8287600161222a565b6118578187600261222a565b61186d826118686020870187612a99565b611fda565b50611882816118686060870160408801612a99565b5061188d8283612257565b6118978183612257565b5f8681526018602090815260408083206060880135905560198252909120608086013590556001600160a01b038616906118d390860186612a99565b6001600160a01b0316877f76815c6c3d66579360681cc597126b11d4eaabe670b868db92df92d641a5965c60405160405180910390a4505050505050565b604051630285ca7f60e31b8152600480820152602481018390526001600160a01b038216604482015273__$dda01e1e2c7bee2f4d7421c1baf2ea2b46$__9063142e53f890606401610f6c565b6119666120d2565b60405163102f3fbf60e31b815273__$78279d367c11614a675a71643e6f07974a$__90638179fdf8906119c5906004908790879087907f0000000000000000000000000000000000000000000000000000000000000000908501612af4565b5f6040518083038186803b1580156119db575f5ffd5b505af41580156119ed573d5f5f3e3d5ffd5b505050506112ad60015f516020612cb65f395f51905f5255565b5f918252602082815260408084206001600160a01b0393909316845291905290205460ff1690565b5f516020612c965f395f51905f52611a4681611f31565b5f838152600460205260409020546001600160a01b0316611a7a576040516315858c8d60e31b815260040160405180910390fd5b5f83815260046020526040908190206001018054841515600160a01b0260ff60a01b199091161790555183907ff232ed796c7d121df062e0962438bf7a57d1fb9a2c6451caaf7e2695a963cfe690611ad790851515815260200190565b60405180910390a2505050565b60405163335ca18d60e11b815273__$dda01e1e2c7bee2f4d7421c1baf2ea2b46$__906366b9431a90611215906004908790879087908401612a13565b611b296120d2565b6040516331c4d92160e21b815273__$116968842c4656ce8c4b8b252f1bdb323f$__9063c7136484906119c5906004908790879087907f0000000000000000000000000000000000000000000000000000000000000000908501612bbd565b604051634b4758a360e01b81526004808201526024810187905263ffffffff8616604482015284151560648201526084810184905260a4810183905260c4810182905273__$116968842c4656ce8c4b8b252f1bdb323f$__90634b4758a39060e4015f6040518083038186803b158015611c00575f5ffd5b505af4158015611c12573d5f5f3e3d5ffd5b50505050505050505050565b5f828152600760205260408120805483908110611c3d57611c3d612c15565b5f918252602090912001546001600160a01b03169392505050565b60405163b1fcae5760e01b8152600480820152602481018390526001600160a01b038216604482015273__$3d61d23392165436041ba58e9c3ae7a4b8$__9063b1fcae5790606401610f6c565b5f60046001018281548110611cbc57611cbc612c15565b905f5260205f2001549050919050565b604051632768e85560e01b8152600480820152602481018390526044810182905273__$dda01e1e2c7bee2f4d7421c1baf2ea2b46$__90632768e85590606401610f6c565b604051631a8fa21960e11b815273__$3d61d23392165436041ba58e9c3ae7a4b8$__9063351f443290610fdd90600490899089908990899089908601612c29565b5f82815260208190526040902060010154611d6c81611f31565b6112748383612069565b604051635acd273b60e11b81526004808201526024810182905273__$dda01e1e2c7bee2f4d7421c1baf2ea2b46$__9063b59a4e76906044015b5f6040518083038186803b158015611dc6575f5ffd5b505af4158015611dd8573d5f5f3e3d5ffd5b5050505050565b611de76120d2565b60405163098794fb60e21b815273__$dda01e1e2c7bee2f4d7421c1baf2ea2b46$__9063261e53ec90611e2890600490899089908990899089908601612c62565b5f6040518083038186803b158015611e3e575f5ffd5b505af4158015611e50573d5f5f3e3d5ffd5b50505050611dd860015f516020612cb65f395f51905f5255565b60405163170e5d4360e31b81526004808201526024810182905273__$dda01e1e2c7bee2f4d7421c1baf2ea2b46$__9063b872ea1890604401611db0565b611eb06120d2565b604051631d731cc960e01b815273__$dda01e1e2c7bee2f4d7421c1baf2ea2b46$__90631d731cc990611eef9060049088908890889088908501612a3c565b5f6040518083038186803b158015611f05575f5ffd5b505af4158015611f17573d5f5f3e3d5ffd5b5050505061127460015f516020612cb65f395f51905f5255565b61141181336122a1565b5f8281526002602052604090205460ff1680611f5657505050565b5f83815260016020526040902054611f6d836120ed565b5f1960ff831601611fce57611f8a611f84826121e2565b846122e2565b80611fb057505f818152600460205260409020600101546001600160a01b038481169116145b156112745760405163432cb05160e11b815260040160405180910390fd5b611f8a611f848261218d565b5f611fe58383611a07565b612062575f838152602081815260408083206001600160a01b03861684529091529020805460ff1916600117905561201a3390565b6001600160a01b0316826001600160a01b0316847f2f8788117e7eff1d82e926ec794901d17c78024a50270940304540a733656f0d60405160405180910390a4506001610ea4565b505f610ea4565b5f6120748383611a07565b15612062575f838152602081815260408083206001600160a01b0386168085529252808320805460ff1916905551339286917ff6391f5c32d9c69d2a47ea670b442974b53935d1edc7fd64eb21e047a839171b9190a4506001610ea4565b6120da6122f4565b60025f516020612cb65f395f51905f5255565b6121045f516020612c965f395f51905f52826122e2565b1561141157604051630bfde4ab60e01b815260040160405180910390fd5b816001600160a01b0316836001600160a01b031614806121535750826001600160a01b0316816001600160a01b0316145b8061216f5750816001600160a01b0316816001600160a01b0316145b156112ad5760405163432cb05160e11b815260040160405180910390fd5b6040805160208101829052601160608201527054454e414e545f41444d494e5f524f4c4560781b60808201529081018290525f9060a0015b604051602081830303815290604052805190602001209050919050565b6040805160208101829052601c60608201527f54454e414e545f4f50455241544f525f4d414e414745525f524f4c450000000060808201529081018290525f9060a0016121c5565b5f92835260016020908152604080852093909355600290529120805460ff191660ff909216919091179055565b5f82815260208190526040808220600101805490849055905190918391839186917fbd79b86ffe0ab8e8776151514217cd7cacd52c909f66475c3af44e129f0b00ff9190a4505050565b6122ab8282611a07565b6122de5760405163e2517d3f60e01b81526001600160a01b03821660048201526024810183905260440160405180910390fd5b5050565b5f6122ed8383611a07565b9392505050565b5f516020612cb65f395f51905f525460020361232357604051633ee5aeb560e01b815260040160405180910390fd5b565b80356001600160a01b038116811461233b575f5ffd5b919050565b5f5f5f60608486031215612352575f5ffd5b833592506020840135915061236960408501612325565b90509250925092565b5f60208284031215612382575f5ffd5b81356001600160e01b0319811681146122ed575f5ffd5b803563ffffffff8116811461233b575f5ffd5b5f5f604083850312156123bd575f5ffd5b823591506123cd60208401612399565b90509250929050565b5f5f604083850312156123e7575f5ffd5b50508035926020909101359150565b8035801515811461233b575f5ffd5b5f5f83601f840112612415575f5ffd5b50813567ffffffffffffffff81111561242c575f5ffd5b6020830191508360208285010111156111d1575f5ffd5b5f5f5f5f5f60808688031215612457575f5ffd5b8535945061246760208701612325565b9350612475604087016123f6565b9250606086013567ffffffffffffffff811115612490575f5ffd5b61249c88828901612405565b969995985093965092949392505050565b5f81518084528060208401602086015e5f602082860101526020601f19601f83011685010191505092915050565b60208152815160208201525f602083015161012060408401526125026101408401826124ad565b9050604084015161251e60608501826001600160a01b03169052565b5060608401516080840152608084015161253c60a085018215159052565b5060a084015160c084015260c084015160e084015260e084015161256961010085018263ffffffff169052565b5061010084015163ffffffff8116610120850152509392505050565b5f5f60408385031215612596575f5ffd5b823591506123cd60208401612325565b5f5f5f604084860312156125b8575f5ffd5b83359250602084013567ffffffffffffffff8111156125d5575f5ffd5b6125e186828701612405565b9497909650939450505050565b5f602082840312156125fe575f5ffd5b5035919050565b5f5f5f5f60608587031215612618575f5ffd5b8435935061262860208601612325565b9250604085013567ffffffffffffffff811115612643575f5ffd5b61264f87828801612405565b95989497509550505050565b803561ffff8116811461233b575f5ffd5b5f5f5f5f5f60a08688031215612680575f5ffd5b8535945061269060208701612399565b935061269e60408701612325565b92506126ac606087016123f6565b91506126ba6080870161265b565b90509295509295909350565b5f5f5f606084860312156126d8575f5ffd5b83359250602084013591506123696040850161265b565b5f5f5f5f60608587031215612702575f5ffd5b8435935060208501359250604085013567ffffffffffffffff811115612643575f5ffd5b602081528151602082015260018060a01b0360208301511660408201525f604083015160a0606084015261275d60c08401826124ad565b9050606084015160808401526080840151151560a08401528091505092915050565b5f5f5f83850360e0811215612792575f5ffd5b843593506127a260208601612325565b925060a0603f19820112156127b5575f5ffd5b506040840190509250925092565b5f5f5f604084860312156127d5575f5ffd5b833567ffffffffffffffff8111156127eb575f5ffd5b840161012081870312156127fd575f5ffd5b9250602084013567ffffffffffffffff8111156125d5575f5ffd5b5f5f60408385031215612829575f5ffd5b823591506123cd602084016123f6565b5f5f5f83850360a081121561284c575f5ffd5b6080811215612859575f5ffd5b50839250608084013567ffffffffffffffff8111156125d5575f5ffd5b5f5f5f5f5f5f60c0878903121561288b575f5ffd5b8635955061289b60208801612399565b94506128a9604088016123f6565b959894975094956060810135955060808101359460a0909101359350915050565b5f5f5f5f5f608086880312156128de575f5ffd5b853594506128ee60208701612325565b935061247560408701612325565b5f5f5f6060848603121561290e575f5ffd5b8335925061291e60208501612399565b915061236960408501612325565b5f5f5f5f5f60808688031215612940575f5ffd5b8535945061295060208701612325565b935060408601359250606086013567ffffffffffffffff811115612490575f5ffd5b81835281816020850137505f828201602090810191909152601f909101601f19169091010190565b86815285602082015260018060a01b0385166040820152831515606082015260a060808201525f6129cf60a083018486612972565b98975050505050505050565b600181811c908216806129ef57607f821691505b602082108103612a0d57634e487b7160e01b5f52602260045260245ffd5b50919050565b848152836020820152606060408201525f612a32606083018486612972565b9695505050505050565b85815284602082015260018060a01b0384166040820152608060608201525f612a69608083018486612972565b979650505050505050565b858152846020820152836040820152608060608201525f612a69608083018486612972565b5f60208284031215612aa9575f5ffd5b6122ed82612325565b5f5f8335601e19843603018112612ac7575f5ffd5b830160208101925035905067ffffffffffffffff811115612ae6575f5ffd5b8036038213156111d1575f5ffd5b8581526080602080830182905286359183019190915285013560a08201525f612b206040870187612ab2565b61012060c0850152612b376101a085018284612972565b606089013560e086015260808901356101008601529150612b5c905060a08801612399565b63ffffffff16610120840152612b7460c08801612399565b63ffffffff1661014084015260e08701356101608401526101008701356101808401528281036040840152612baa818688612972565b9150508260608301529695505050505050565b8581528435602080830191909152850135604080830191909152850135606080830191909152850135608082015260e060a082018190525f90612c039083018587612972565b90508260c08301529695505050505050565b634e487b7160e01b5f52603260045260245ffd5b868152602081018690526001600160a01b0385811660408301528416606082015260a0608082018190525f906129cf9083018486612972565b86815285602082015260018060a01b038516604082015283606082015260a060808201525f6129cf60a08301848661297256fed0c934f24ef5a377dc3832429ce607cbe940a3ca3c6cd7e532bd35b4b212d1969b779b17422d0df92223018b32b4d1fa46e071723d6817e2486d003becc55f00a264697066735822122018baccaf612b95f015ab7182e2cfc5274eb4873cf1672115b8da52c0e401b24f64736f6c634300081c0033",
  "linkReferences": {
    "project/contracts/CoSignLib.sol": {
      "CoSignLib": [
        {
          "length": 20,
          "start": 5507
        },
        {
          "length": 20,
          "start": 7503
        },
        {
          "length": 20,
          "start": 7652
        }
      ]
    },
    "project/contracts/DocumentLib.sol": {
      "DocumentLib": [
        {
          "length": 20,
          "start": 5769
        },
        {
          "length": 20,
          "start": 7052
        }
      ]
    },
    "project/contracts/OperatorLib.sol": {
      "OperatorLib": [
        {
          "length": 20,
          "start": 4453
        },
        {
          "length": 20,
          "start": 4546
        },
        {
          "length": 20,
          "start": 5118
        },
        {
          "length": 20,
          "start": 5577
        },
        {
          "length": 20,
          "start": 5720
        },
        {
          "length": 20,
          "start": 6995
        },
        {
          "length": 20,
          "start": 7434
        },
        {
          "length": 20,
          "start": 7942
        },
        {
          "length": 20,
          "start": 8105
        },
        {
          "length": 20,
          "start": 8205
        },
        {
          "length": 20,
          "start": 8349
        },
        {
          "length": 20,
          "start": 8406
        }
      ]
    },
    "project/contracts/RecoveryLib.sol": {
      "RecoveryLib": [
        {
          "length": 20,
          "start": 5336
        },
        {
          "length": 20,
          "start": 7834
        },
        {
          "length": 20,
          "start": 7991
        }
      ]
    }
  },
  "deployedLinkReferences": {
    "project/contracts/CoSignLib.sol": {
      "CoSignLib": [
        {
          "length": 20,
          "start": 4972
        },
        {
          "length": 20,
          "start": 6968
        },
        {
          "length": 20,
          "start": 7117
        }
      ]
    },
    "project/contracts/DocumentLib.sol": {
      "DocumentLib": [
        {
          "length": 20,
          "start": 5234
        },
        {
          "length": 20,
          "start": 6517
        }
      ]
    },
    "project/contracts/OperatorLib.sol": {
      "OperatorLib": [
        {
          "length": 20,
          "start": 3918
        },
        {
          "length": 20,
          "start": 4011
        },
        {
          "length": 20,
          "start": 4583
        },
        {
          "length": 20,
          "start": 5042
        },
        {
          "length": 20,
          "start": 5185
        },
        {
          "length": 20,
          "start": 6460
        },
        {
          "length": 20,
          "start": 6899
        },
        {
          "length": 20,
          "start": 7407
        },
        {
          "length": 20,
          "start": 7570
        },
        {
          "length": 20,
          "start": 7670
        },
        {
          "length": 20,
          "start": 7814
        },
        {
          "length": 20,
          "start": 7871
        }
      ]
    },
    "project/contracts/RecoveryLib.sol": {
      "RecoveryLib": [
        {
          "length": 20,
          "start": 4801
        },
        {
          "length": 20,
          "start": 7299
        },
        {
          "length": 20,
          "start": 7456
        }
      ]
    }
  },
  "immutableReferences": {
    "11510": [
      {
        "length": 32,
        "start": 6558
      },
      {
        "length": 32,
        "start": 7009
      }
    ]
  },
  "inputSourceName": "project/contracts/VoucherProtocol.sol",
  "buildInfoId": "solc-0_8_28-029392dbd8baa4cdd406ffda66ac43cad81c4e99"
}