{
  "_format": "hh3-artifact-1",
  "contractName": "VoucherProtocol",
  "sourceName": "contracts/VoucherProtocol.sol",
  "abi": [
    {
      "inputs": [],
      "stateMutability": "nonpayable",
      "type": "constructor"
    },
    {
      "inputs": [],
      "name": "AccessControlBadConfirmation",
      "type": "error"
    },
    {
      "inputs": [
        {
          "internalType": "address",
          "name": "account",
          "type": "address"
        },
        {
          "internalType": "bytes32",
          "name": "neededRole",
          "type": "bytes32"
        }
      ],
      "name": "AccessControlUnauthorizedAccount",
      "type": "error"
    },
    {
      "inputs": [],
      "name": "AlreadyCoSigned",
      "type": "error"
    },
    {
      "inputs": [],
      "name": "CoSignerNotWhitelisted",
      "type": "error"
    },
    {
      "inputs": [],
      "name": "DocumentAlreadyExists",
      "type": "error"
    },
    {
      "inputs": [],
      "name": "DocumentAlreadyRevoked",
      "type": "error"
    },
    {
      "inputs": [],
      "name": "DocumentNotFound",
      "type": "error"
    },
    {
      "inputs": [],
      "name": "DocumentNotValid",
      "type": "error"
    },
    {
      "inputs": [],
      "name": "ECDSAInvalidSignature",
      "type": "error"
    },
    {
      "inputs": [
        {
          "internalType": "uint256",
          "name": "length",
          "type": "uint256"
        }
      ],
      "name": "ECDSAInvalidSignatureLength",
      "type": "error"
    },
    {
      "inputs": [
        {
          "internalType": "bytes32",
          "name": "s",
          "type": "bytes32"
        }
      ],
      "name": "ECDSAInvalidSignatureS",
      "type": "error"
    },
    {
      "inputs": [],
      "name": "EthTransferFailed",
      "type": "error"
    },
    {
      "inputs": [],
      "name": "ExpiredSignature",
      "type": "error"
    },
    {
      "inputs": [
        {
          "internalType": "uint256",
          "name": "currentStake",
          "type": "uint256"
        },
        {
          "internalType": "uint256",
          "name": "requiredStake",
          "type": "uint256"
        }
      ],
      "name": "InsufficientCoSignStake",
      "type": "error"
    },
    {
      "inputs": [
        {
          "internalType": "uint256",
          "name": "sent",
          "type": "uint256"
        },
        {
          "internalType": "uint256",
          "name": "required",
          "type": "uint256"
        }
      ],
      "name": "InsufficientStake",
      "type": "error"
    },
    {
      "inputs": [],
      "name": "InvalidCoSignPolicy",
      "type": "error"
    },
    {
      "inputs": [],
      "name": "InvalidCoSignRole",
      "type": "error"
    },
    {
      "inputs": [],
      "name": "InvalidConfigValue",
      "type": "error"
    },
    {
      "inputs": [
        {
          "internalType": "uint16",
          "name": "provided",
          "type": "uint16"
        }
      ],
      "name": "InvalidPenaltyBps",
      "type": "error"
    },
    {
      "inputs": [],
      "name": "InvalidRecoveryTarget",
      "type": "error"
    },
    {
      "inputs": [],
      "name": "InvalidSignature",
      "type": "error"
    },
    {
      "inputs": [],
      "name": "InvalidTenantAddress",
      "type": "error"
    },
    {
      "inputs": [],
      "name": "NoPendingUnstake",
      "type": "error"
    },
    {
      "inputs": [],
      "name": "NoStake",
      "type": "error"
    },
    {
      "inputs": [],
      "name": "NoStakeToRecover",
      "type": "error"
    },
    {
      "inputs": [],
      "name": "OperatorAlreadyActive",
      "type": "error"
    },
    {
      "inputs": [],
      "name": "OperatorNotActive",
      "type": "error"
    },
    {
      "inputs": [],
      "name": "OperatorNotInTenant",
      "type": "error"
    },
    {
      "inputs": [],
      "name": "OperatorNotLost",
      "type": "error"
    },
    {
      "inputs": [
        {
          "internalType": "bytes32",
          "name": "violationCode",
          "type": "bytes32"
        }
      ],
      "name": "PenaltyNotConfigured",
      "type": "error"
    },
    {
      "inputs": [],
      "name": "RecoveryNotAllowed",
      "type": "error"
    },
    {
      "inputs": [],
      "name": "ReentrancyGuardReentrantCall",
      "type": "error"
    },
    {
      "inputs": [],
      "name": "TenantAlreadyExists",
      "type": "error"
    },
    {
      "inputs": [],
      "name": "TenantInactive",
      "type": "error"
    },
    {
      "inputs": [],
      "name": "TenantNotFound",
      "type": "error"
    },
    {
      "inputs": [],
      "name": "Unauthorized",
      "type": "error"
    },
    {
      "inputs": [],
      "name": "UnstakeInProgress",
      "type": "error"
    },
    {
      "inputs": [
        {
          "internalType": "uint256",
          "name": "readyAt",
          "type": "uint256"
        }
      ],
      "name": "UnstakeNotReady",
      "type": "error"
    },
    {
      "anonymous": false,
      "inputs": [
        {
          "indexed": true,
          "internalType": "bytes32",
          "name": "tenantId",
          "type": "bytes32"
        },
        {
          "indexed": true,
          "internalType": "uint32",
          "name": "docType",
          "type": "uint32"
        },
        {
          "indexed": true,
          "internalType": "address",
          "name": "operator",
          "type": "address"
        },
        {
          "indexed": false,
          "internalType": "bool",
          "name": "whitelisted",
          "type": "bool"
        },
        {
          "indexed": false,
          "internalType": "uint16",
          "name": "roleId",
          "type": "uint16"
        }
      ],
      "name": "CoSignOperatorConfigured",
      "type": "event"
    },
    {
      "anonymous": false,
      "inputs": [
        {
          "indexed": true,
          "internalType": "bytes32",
          "name": "tenantId",
          "type": "bytes32"
        },
        {
          "indexed": true,
          "internalType": "uint32",
          "name": "docType",
          "type": "uint32"
        },
        {
          "indexed": false,
          "internalType": "bool",
          "name": "enabled",
          "type": "bool"
        },
        {
          "indexed": false,
          "internalType": "uint256",
          "name": "minStake",
          "type": "uint256"
        },
        {
          "indexed": false,
          "internalType": "uint256",
          "name": "minSigners",
          "type": "uint256"
        },
        {
          "indexed": false,
          "internalType": "uint256",
          "name": "requiredRoleMask",
          "type": "uint256"
        }
      ],
      "name": "CoSignPolicyUpdated",
      "type": "event"
    },
    {
      "anonymous": false,
      "inputs": [
        {
          "indexed": true,
          "internalType": "bytes32",
          "name": "tenantId",
          "type": "bytes32"
        },
        {
          "indexed": true,
          "internalType": "bytes32",
          "name": "fileHash",
          "type": "bytes32"
        },
        {
          "indexed": false,
          "internalType": "string",
          "name": "cid",
          "type": "string"
        },
        {
          "indexed": true,
          "internalType": "address",
          "name": "issuer",
          "type": "address"
        },
        {
          "indexed": false,
          "internalType": "bytes32",
          "name": "ciphertextHash",
          "type": "bytes32"
        },
        {
          "indexed": false,
          "internalType": "bytes32",
          "name": "encryptionMetaHash",
          "type": "bytes32"
        },
        {
          "indexed": false,
          "internalType": "uint32",
          "name": "docType",
          "type": "uint32"
        },
        {
          "indexed": false,
          "internalType": "uint32",
          "name": "version",
          "type": "uint32"
        }
      ],
      "name": "DocumentAnchored",
      "type": "event"
    },
    {
      "anonymous": false,
      "inputs": [
        {
          "indexed": true,
          "internalType": "bytes32",
          "name": "tenantId",
          "type": "bytes32"
        },
        {
          "indexed": true,
          "internalType": "bytes32",
          "name": "fileHash",
          "type": "bytes32"
        },
        {
          "indexed": false,
          "internalType": "uint256",
          "name": "trustedSigners",
          "type": "uint256"
        },
        {
          "indexed": false,
          "internalType": "uint256",
          "name": "roleMask",
          "type": "uint256"
        }
      ],
      "name": "DocumentCoSignQualified",
      "type": "event"
    },
    {
      "anonymous": false,
      "inputs": [
        {
          "indexed": true,
          "internalType": "bytes32",
          "name": "tenantId",
          "type": "bytes32"
        },
        {
          "indexed": true,
          "internalType": "bytes32",
          "name": "fileHash",
          "type": "bytes32"
        },
        {
          "indexed": true,
          "internalType": "address",
          "name": "signer",
          "type": "address"
        },
        {
          "indexed": false,
          "internalType": "uint256",
          "name": "totalSigners",
          "type": "uint256"
        }
      ],
      "name": "DocumentCoSigned",
      "type": "event"
    },
    {
      "anonymous": false,
      "inputs": [
        {
          "indexed": true,
          "internalType": "bytes32",
          "name": "tenantId",
          "type": "bytes32"
        },
        {
          "indexed": true,
          "internalType": "bytes32",
          "name": "fileHash",
          "type": "bytes32"
        },
        {
          "indexed": true,
          "internalType": "address",
          "name": "revoker",
          "type": "address"
        },
        {
          "indexed": false,
          "internalType": "string",
          "name": "reason",
          "type": "string"
        }
      ],
      "name": "DocumentRevoked",
      "type": "event"
    },
    {
      "anonymous": false,
      "inputs": [
        {
          "indexed": true,
          "internalType": "bytes32",
          "name": "tenantId",
          "type": "bytes32"
        },
        {
          "indexed": false,
          "internalType": "uint256",
          "name": "oldValue",
          "type": "uint256"
        },
        {
          "indexed": false,
          "internalType": "uint256",
          "name": "newValue",
          "type": "uint256"
        }
      ],
      "name": "MinOperatorStakeUpdated",
      "type": "event"
    },
    {
      "anonymous": false,
      "inputs": [
        {
          "indexed": true,
          "internalType": "bytes32",
          "name": "tenantId",
          "type": "bytes32"
        },
        {
          "indexed": true,
          "internalType": "address",
          "name": "signer",
          "type": "address"
        },
        {
          "indexed": false,
          "internalType": "uint256",
          "name": "oldNonce",
          "type": "uint256"
        },
        {
          "indexed": false,
          "internalType": "uint256",
          "name": "newNonce",
          "type": "uint256"
        }
      ],
      "name": "NonceConsumed",
      "type": "event"
    },
    {
      "anonymous": false,
      "inputs": [
        {
          "indexed": true,
          "internalType": "bytes32",
          "name": "tenantId",
          "type": "bytes32"
        },
        {
          "indexed": true,
          "internalType": "address",
          "name": "operator",
          "type": "address"
        },
        {
          "indexed": false,
          "internalType": "string",
          "name": "metadata",
          "type": "string"
        },
        {
          "indexed": false,
          "internalType": "uint256",
          "name": "stake",
          "type": "uint256"
        }
      ],
      "name": "OperatorJoined",
      "type": "event"
    },
    {
      "anonymous": false,
      "inputs": [
        {
          "indexed": true,
          "internalType": "bytes32",
          "name": "tenantId",
          "type": "bytes32"
        },
        {
          "indexed": true,
          "internalType": "address",
          "name": "operator",
          "type": "address"
        },
        {
          "indexed": false,
          "internalType": "string",
          "name": "metadataURI",
          "type": "string"
        }
      ],
      "name": "OperatorMetadataUpdated",
      "type": "event"
    },
    {
      "anonymous": false,
      "inputs": [
        {
          "indexed": true,
          "internalType": "bytes32",
          "name": "tenantId",
          "type": "bytes32"
        },
        {
          "indexed": true,
          "internalType": "address",
          "name": "oldOperator",
          "type": "address"
        },
        {
          "indexed": true,
          "internalType": "address",
          "name": "newOperator",
          "type": "address"
        },
        {
          "indexed": false,
          "internalType": "uint256",
          "name": "stakeAmount",
          "type": "uint256"
        },
        {
          "indexed": false,
          "internalType": "string",
          "name": "reason",
          "type": "string"
        }
      ],
      "name": "OperatorRecovered",
      "type": "event"
    },
    {
      "anonymous": false,
      "inputs": [
        {
          "indexed": true,
          "internalType": "bytes32",
          "name": "tenantId",
          "type": "bytes32"
        },
        {
          "indexed": true,
          "internalType": "address",
          "name": "operator",
          "type": "address"
        },
        {
          "indexed": true,
          "internalType": "address",
          "name": "delegate",
          "type": "address"
        }
      ],
      "name": "OperatorRecoveryDelegateUpdated",
      "type": "event"
    },
    {
      "anonymous": false,
      "inputs": [
        {
          "indexed": true,
          "internalType": "bytes32",
          "name": "tenantId",
          "type": "bytes32"
        },
        {
          "indexed": true,
          "internalType": "address",
          "name": "operator",
          "type": "address"
        },
        {
          "indexed": false,
          "internalType": "uint256",
          "name": "amount",
          "type": "uint256"
        },
        {
          "indexed": true,
          "internalType": "address",
          "name": "slasher",
          "type": "address"
        },
        {
          "indexed": false,
          "internalType": "string",
          "name": "reason",
          "type": "string"
        }
      ],
      "name": "OperatorSlashed",
      "type": "event"
    },
    {
      "anonymous": false,
      "inputs": [
        {
          "indexed": true,
          "internalType": "bytes32",
          "name": "tenantId",
          "type": "bytes32"
        },
        {
          "indexed": true,
          "internalType": "address",
          "name": "operator",
          "type": "address"
        },
        {
          "indexed": true,
          "internalType": "bytes32",
          "name": "violationCode",
          "type": "bytes32"
        },
        {
          "indexed": false,
          "internalType": "uint16",
          "name": "penaltyBps",
          "type": "uint16"
        },
        {
          "indexed": false,
          "internalType": "uint256",
          "name": "slashedAmount",
          "type": "uint256"
        },
        {
          "indexed": false,
          "internalType": "uint256",
          "name": "remainingStake",
          "type": "uint256"
        },
        {
          "indexed": false,
          "internalType": "address",
          "name": "slasher",
          "type": "address"
        },
        {
          "indexed": false,
          "internalType": "string",
          "name": "reason",
          "type": "string"
        }
      ],
      "name": "OperatorSoftSlashed",
      "type": "event"
    },
    {
      "anonymous": false,
      "inputs": [
        {
          "indexed": true,
          "internalType": "bytes32",
          "name": "tenantId",
          "type": "bytes32"
        },
        {
          "indexed": true,
          "internalType": "address",
          "name": "operator",
          "type": "address"
        },
        {
          "indexed": false,
          "internalType": "uint256",
          "name": "amount",
          "type": "uint256"
        },
        {
          "indexed": false,
          "internalType": "uint256",
          "name": "totalStake",
          "type": "uint256"
        }
      ],
      "name": "OperatorStakeToppedUp",
      "type": "event"
    },
    {
      "anonymous": false,
      "inputs": [
        {
          "indexed": true,
          "internalType": "bytes32",
          "name": "tenantId",
          "type": "bytes32"
        },
        {
          "indexed": true,
          "internalType": "address",
          "name": "operator",
          "type": "address"
        },
        {
          "indexed": false,
          "internalType": "bool",
          "name": "isActive",
          "type": "bool"
        },
        {
          "indexed": false,
          "internalType": "string",
          "name": "reason",
          "type": "string"
        }
      ],
      "name": "OperatorStatusUpdated",
      "type": "event"
    },
    {
      "anonymous": false,
      "inputs": [
        {
          "indexed": true,
          "internalType": "bytes32",
          "name": "tenantId",
          "type": "bytes32"
        },
        {
          "indexed": true,
          "internalType": "address",
          "name": "operator",
          "type": "address"
        },
        {
          "indexed": false,
          "internalType": "uint256",
          "name": "availableAt",
          "type": "uint256"
        }
      ],
      "name": "OperatorUnstakeRequested",
      "type": "event"
    },
    {
      "anonymous": false,
      "inputs": [
        {
          "indexed": true,
          "internalType": "bytes32",
          "name": "tenantId",
          "type": "bytes32"
        },
        {
          "indexed": true,
          "internalType": "address",
          "name": "operator",
          "type": "address"
        },
        {
          "indexed": false,
          "internalType": "uint256",
          "name": "amount",
          "type": "uint256"
        }
      ],
      "name": "OperatorUnstaked",
      "type": "event"
    },
    {
      "anonymous": false,
      "inputs": [
        {
          "indexed": true,
          "internalType": "address",
          "name": "protocolOwner",
          "type": "address"
        }
      ],
      "name": "ProtocolInitialized",
      "type": "event"
    },
    {
      "anonymous": false,
      "inputs": [
        {
          "indexed": true,
          "internalType": "bytes32",
          "name": "role",
          "type": "bytes32"
        },
        {
          "indexed": true,
          "internalType": "bytes32",
          "name": "previousAdminRole",
          "type": "bytes32"
        },
        {
          "indexed": true,
          "internalType": "bytes32",
          "name": "newAdminRole",
          "type": "bytes32"
        }
      ],
      "name": "RoleAdminChanged",
      "type": "event"
    },
    {
      "anonymous": false,
      "inputs": [
        {
          "indexed": true,
          "internalType": "bytes32",
          "name": "role",
          "type": "bytes32"
        },
        {
          "indexed": true,
          "internalType": "address",
          "name": "account",
          "type": "address"
        },
        {
          "indexed": true,
          "internalType": "address",
          "name": "sender",
          "type": "address"
        }
      ],
      "name": "RoleGranted",
      "type": "event"
    },
    {
      "anonymous": false,
      "inputs": [
        {
          "indexed": true,
          "internalType": "bytes32",
          "name": "role",
          "type": "bytes32"
        },
        {
          "indexed": true,
          "internalType": "address",
          "name": "account",
          "type": "address"
        },
        {
          "indexed": true,
          "internalType": "address",
          "name": "sender",
          "type": "address"
        }
      ],
      "name": "RoleRevoked",
      "type": "event"
    },
    {
      "anonymous": false,
      "inputs": [
        {
          "indexed": true,
          "internalType": "bytes32",
          "name": "tenantId",
          "type": "bytes32"
        },
        {
          "indexed": true,
          "internalType": "address",
          "name": "admin",
          "type": "address"
        },
        {
          "indexed": true,
          "internalType": "address",
          "name": "treasury",
          "type": "address"
        }
      ],
      "name": "TenantCreated",
      "type": "event"
    },
    {
      "anonymous": false,
      "inputs": [
        {
          "indexed": true,
          "internalType": "bytes32",
          "name": "tenantId",
          "type": "bytes32"
        },
        {
          "indexed": false,
          "internalType": "bool",
          "name": "isActive",
          "type": "bool"
        }
      ],
      "name": "TenantStatusUpdated",
      "type": "event"
    },
    {
      "anonymous": false,
      "inputs": [
        {
          "indexed": true,
          "internalType": "bytes32",
          "name": "tenantId",
          "type": "bytes32"
        },
        {
          "indexed": true,
          "internalType": "address",
          "name": "oldTreasury",
          "type": "address"
        },
        {
          "indexed": true,
          "internalType": "address",
          "name": "newTreasury",
          "type": "address"
        }
      ],
      "name": "TreasuryUpdated",
      "type": "event"
    },
    {
      "anonymous": false,
      "inputs": [
        {
          "indexed": true,
          "internalType": "bytes32",
          "name": "tenantId",
          "type": "bytes32"
        },
        {
          "indexed": false,
          "internalType": "uint256",
          "name": "oldValue",
          "type": "uint256"
        },
        {
          "indexed": false,
          "internalType": "uint256",
          "name": "newValue",
          "type": "uint256"
        }
      ],
      "name": "UnstakeCooldownUpdated",
      "type": "event"
    },
    {
      "anonymous": false,
      "inputs": [
        {
          "indexed": true,
          "internalType": "bytes32",
          "name": "tenantId",
          "type": "bytes32"
        },
        {
          "indexed": true,
          "internalType": "bytes32",
          "name": "violationCode",
          "type": "bytes32"
        },
        {
          "indexed": false,
          "internalType": "uint16",
          "name": "oldPenaltyBps",
          "type": "uint16"
        },
        {
          "indexed": false,
          "internalType": "uint16",
          "name": "newPenaltyBps",
          "type": "uint16"
        }
      ],
      "name": "ViolationPenaltyUpdated",
      "type": "event"
    },
    {
      "inputs": [],
      "name": "COSIGN_ROLE_NONE",
      "outputs": [
        {
          "internalType": "uint16",
          "name": "",
          "type": "uint16"
        }
      ],
      "stateMutability": "view",
      "type": "function"
    },
    {
      "inputs": [],
      "name": "DEFAULT_ADMIN_ROLE",
      "outputs": [
        {
          "internalType": "bytes32",
          "name": "",
          "type": "bytes32"
        }
      ],
      "stateMutability": "view",
      "type": "function"
    },
    {
      "inputs": [],
      "name": "MAX_COSIGN_ROLE_ID",
      "outputs": [
        {
          "internalType": "uint16",
          "name": "",
          "type": "uint16"
        }
      ],
      "stateMutability": "view",
      "type": "function"
    },
    {
      "inputs": [],
      "name": "MAX_PENALTY_BPS",
      "outputs": [
        {
          "internalType": "uint16",
          "name": "",
          "type": "uint16"
        }
      ],
      "stateMutability": "view",
      "type": "function"
    },
    {
      "inputs": [],
      "name": "MIN_COSIGN_ROLE_ID",
      "outputs": [
        {
          "internalType": "uint16",
          "name": "",
          "type": "uint16"
        }
      ],
      "stateMutability": "view",
      "type": "function"
    },
    {
      "inputs": [],
      "name": "MIN_STAKE",
      "outputs": [
        {
          "internalType": "uint256",
          "name": "",
          "type": "uint256"
        }
      ],
      "stateMutability": "view",
      "type": "function"
    },
    {
      "inputs": [],
      "name": "PROTOCOL_ADMIN_ROLE",
      "outputs": [
        {
          "internalType": "bytes32",
          "name": "",
          "type": "bytes32"
        }
      ],
      "stateMutability": "view",
      "type": "function"
    },
    {
      "inputs": [],
      "name": "UNSTAKE_COOLDOWN",
      "outputs": [
        {
          "internalType": "uint256",
          "name": "",
          "type": "uint256"
        }
      ],
      "stateMutability": "view",
      "type": "function"
    },
    {
      "inputs": [
        {
          "internalType": "bytes32",
          "name": "",
          "type": "bytes32"
        },
        {
          "internalType": "bytes32",
          "name": "",
          "type": "bytes32"
        }
      ],
      "name": "coSignCount",
      "outputs": [
        {
          "internalType": "uint256",
          "name": "",
          "type": "uint256"
        }
      ],
      "stateMutability": "view",
      "type": "function"
    },
    {
      "inputs": [
        {
          "components": [
            {
              "internalType": "bytes32",
              "name": "tenantId",
              "type": "bytes32"
            },
            {
              "internalType": "bytes32",
              "name": "fileHash",
              "type": "bytes32"
            },
            {
              "internalType": "uint256",
              "name": "nonce",
              "type": "uint256"
            },
            {
              "internalType": "uint256",
              "name": "deadline",
              "type": "uint256"
            }
          ],
          "internalType": "struct VoucherProtocol.CoSignPayload",
          "name": "payload",
          "type": "tuple"
        },
        {
          "internalType": "bytes",
          "name": "signature",
          "type": "bytes"
        }
      ],
      "name": "coSignDocumentWithSignature",
      "outputs": [],
      "stateMutability": "nonpayable",
      "type": "function"
    },
    {
      "inputs": [
        {
          "internalType": "bytes32",
          "name": "",
          "type": "bytes32"
        },
        {
          "internalType": "bytes32",
          "name": "",
          "type": "bytes32"
        }
      ],
      "name": "coSignQualified",
      "outputs": [
        {
          "internalType": "bool",
          "name": "",
          "type": "bool"
        }
      ],
      "stateMutability": "view",
      "type": "function"
    },
    {
      "inputs": [
        {
          "internalType": "bytes32",
          "name": "tenantId",
          "type": "bytes32"
        },
        {
          "internalType": "address",
          "name": "tenantAdmin",
          "type": "address"
        },
        {
          "internalType": "address",
          "name": "tenantTreasury",
          "type": "address"
        }
      ],
      "name": "createTenant",
      "outputs": [],
      "stateMutability": "nonpayable",
      "type": "function"
    },
    {
      "inputs": [
        {
          "internalType": "bytes32",
          "name": "",
          "type": "bytes32"
        },
        {
          "internalType": "bytes32",
          "name": "",
          "type": "bytes32"
        },
        {
          "internalType": "address",
          "name": "",
          "type": "address"
        }
      ],
      "name": "documentSigners",
      "outputs": [
        {
          "internalType": "bool",
          "name": "",
          "type": "bool"
        }
      ],
      "stateMutability": "view",
      "type": "function"
    },
    {
      "inputs": [
        {
          "internalType": "bytes32",
          "name": "",
          "type": "bytes32"
        },
        {
          "internalType": "bytes32",
          "name": "",
          "type": "bytes32"
        }
      ],
      "name": "documents",
      "outputs": [
        {
          "internalType": "bytes32",
          "name": "tenantId",
          "type": "bytes32"
        },
        {
          "internalType": "string",
          "name": "cid",
          "type": "string"
        },
        {
          "internalType": "address",
          "name": "issuer",
          "type": "address"
        },
        {
          "internalType": "uint256",
          "name": "timestamp",
          "type": "uint256"
        },
        {
          "internalType": "bool",
          "name": "isValid",
          "type": "bool"
        },
        {
          "internalType": "bytes32",
          "name": "ciphertextHash",
          "type": "bytes32"
        },
        {
          "internalType": "bytes32",
          "name": "encryptionMetaHash",
          "type": "bytes32"
        },
        {
          "internalType": "uint32",
          "name": "docType",
          "type": "uint32"
        },
        {
          "internalType": "uint32",
          "name": "version",
          "type": "uint32"
        }
      ],
      "stateMutability": "view",
      "type": "function"
    },
    {
      "inputs": [
        {
          "internalType": "bytes32",
          "name": "tenantId",
          "type": "bytes32"
        }
      ],
      "name": "executeUnstake",
      "outputs": [],
      "stateMutability": "nonpayable",
      "type": "function"
    },
    {
      "inputs": [
        {
          "internalType": "bytes32",
          "name": "tenantId",
          "type": "bytes32"
        },
        {
          "internalType": "uint32",
          "name": "docType",
          "type": "uint32"
        }
      ],
      "name": "getCoSignPolicyStruct",
      "outputs": [
        {
          "components": [
            {
              "internalType": "bool",
              "name": "enabled",
              "type": "bool"
            },
            {
              "internalType": "uint256",
              "name": "minStake",
              "type": "uint256"
            },
            {
              "internalType": "uint256",
              "name": "minSigners",
              "type": "uint256"
            },
            {
              "internalType": "uint256",
              "name": "requiredRoleMask",
              "type": "uint256"
            }
          ],
          "internalType": "struct VoucherProtocol.CoSignPolicy",
          "name": "",
          "type": "tuple"
        }
      ],
      "stateMutability": "view",
      "type": "function"
    },
    {
      "inputs": [
        {
          "internalType": "bytes32",
          "name": "tenantId",
          "type": "bytes32"
        },
        {
          "internalType": "bytes32",
          "name": "fileHash",
          "type": "bytes32"
        }
      ],
      "name": "getDocument",
      "outputs": [
        {
          "components": [
            {
              "internalType": "bytes32",
              "name": "tenantId",
              "type": "bytes32"
            },
            {
              "internalType": "string",
              "name": "cid",
              "type": "string"
            },
            {
              "internalType": "address",
              "name": "issuer",
              "type": "address"
            },
            {
              "internalType": "uint256",
              "name": "timestamp",
              "type": "uint256"
            },
            {
              "internalType": "bool",
              "name": "isValid",
              "type": "bool"
            },
            {
              "internalType": "bytes32",
              "name": "ciphertextHash",
              "type": "bytes32"
            },
            {
              "internalType": "bytes32",
              "name": "encryptionMetaHash",
              "type": "bytes32"
            },
            {
              "internalType": "uint32",
              "name": "docType",
              "type": "uint32"
            },
            {
              "internalType": "uint32",
              "name": "version",
              "type": "uint32"
            }
          ],
          "internalType": "struct VoucherProtocol.Document",
          "name": "",
          "type": "tuple"
        }
      ],
      "stateMutability": "view",
      "type": "function"
    },
    {
      "inputs": [
        {
          "internalType": "bytes32",
          "name": "tenantId",
          "type": "bytes32"
        },
        {
          "internalType": "uint256",
          "name": "index",
          "type": "uint256"
        }
      ],
      "name": "getOperatorAtIndex",
      "outputs": [
        {
          "internalType": "address",
          "name": "",
          "type": "address"
        }
      ],
      "stateMutability": "view",
      "type": "function"
    },
    {
      "inputs": [
        {
          "internalType": "bytes32",
          "name": "tenantId",
          "type": "bytes32"
        }
      ],
      "name": "getOperatorListLength",
      "outputs": [
        {
          "internalType": "uint256",
          "name": "",
          "type": "uint256"
        }
      ],
      "stateMutability": "view",
      "type": "function"
    },
    {
      "inputs": [
        {
          "internalType": "bytes32",
          "name": "tenantId",
          "type": "bytes32"
        },
        {
          "internalType": "address",
          "name": "operator",
          "type": "address"
        }
      ],
      "name": "getOperatorStruct",
      "outputs": [
        {
          "components": [
            {
              "internalType": "bytes32",
              "name": "tenantId",
              "type": "bytes32"
            },
            {
              "internalType": "string",
              "name": "metadataURI",
              "type": "string"
            },
            {
              "internalType": "uint256",
              "name": "stakeAmount",
              "type": "uint256"
            },
            {
              "internalType": "bool",
              "name": "isActive",
              "type": "bool"
            }
          ],
          "internalType": "struct VoucherProtocol.Operator",
          "name": "",
          "type": "tuple"
        }
      ],
      "stateMutability": "view",
      "type": "function"
    },
    {
      "inputs": [
        {
          "internalType": "bytes32",
          "name": "role",
          "type": "bytes32"
        }
      ],
      "name": "getRoleAdmin",
      "outputs": [
        {
          "internalType": "bytes32",
          "name": "",
          "type": "bytes32"
        }
      ],
      "stateMutability": "view",
      "type": "function"
    },
    {
      "inputs": [
        {
          "internalType": "uint256",
          "name": "index",
          "type": "uint256"
        }
      ],
      "name": "getTenantAtIndex",
      "outputs": [
        {
          "internalType": "bytes32",
          "name": "",
          "type": "bytes32"
        }
      ],
      "stateMutability": "view",
      "type": "function"
    },
    {
      "inputs": [],
      "name": "getTenantListLength",
      "outputs": [
        {
          "internalType": "uint256",
          "name": "",
          "type": "uint256"
        }
      ],
      "stateMutability": "view",
      "type": "function"
    },
    {
      "inputs": [
        {
          "internalType": "bytes32",
          "name": "tenantId",
          "type": "bytes32"
        }
      ],
      "name": "getTenantStruct",
      "outputs": [
        {
          "components": [
            {
              "internalType": "address",
              "name": "admin",
              "type": "address"
            },
            {
              "internalType": "address",
              "name": "treasury",
              "type": "address"
            },
            {
              "internalType": "bool",
              "name": "isActive",
              "type": "bool"
            },
            {
              "internalType": "uint256",
              "name": "createdAt",
              "type": "uint256"
            }
          ],
          "internalType": "struct VoucherProtocol.Tenant",
          "name": "",
          "type": "tuple"
        }
      ],
      "stateMutability": "view",
      "type": "function"
    },
    {
      "inputs": [
        {
          "internalType": "bytes32",
          "name": "role",
          "type": "bytes32"
        },
        {
          "internalType": "address",
          "name": "account",
          "type": "address"
        }
      ],
      "name": "grantRole",
      "outputs": [],
      "stateMutability": "nonpayable",
      "type": "function"
    },
    {
      "inputs": [
        {
          "internalType": "bytes32",
          "name": "role",
          "type": "bytes32"
        },
        {
          "internalType": "address",
          "name": "account",
          "type": "address"
        }
      ],
      "name": "hasRole",
      "outputs": [
        {
          "internalType": "bool",
          "name": "",
          "type": "bool"
        }
      ],
      "stateMutability": "view",
      "type": "function"
    },
    {
      "inputs": [
        {
          "internalType": "bytes32",
          "name": "tenantId",
          "type": "bytes32"
        },
        {
          "internalType": "string",
          "name": "_metadataURI",
          "type": "string"
        }
      ],
      "name": "joinAsOperator",
      "outputs": [],
      "stateMutability": "payable",
      "type": "function"
    },
    {
      "inputs": [
        {
          "internalType": "bytes32",
          "name": "",
          "type": "bytes32"
        },
        {
          "internalType": "address",
          "name": "",
          "type": "address"
        }
      ],
      "name": "nonces",
      "outputs": [
        {
          "internalType": "uint256",
          "name": "",
          "type": "uint256"
        }
      ],
      "stateMutability": "view",
      "type": "function"
    },
    {
      "inputs": [
        {
          "internalType": "bytes32",
          "name": "",
          "type": "bytes32"
        },
        {
          "internalType": "address",
          "name": "",
          "type": "address"
        }
      ],
      "name": "operators",
      "outputs": [
        {
          "internalType": "bytes32",
          "name": "tenantId",
          "type": "bytes32"
        },
        {
          "internalType": "string",
          "name": "metadataURI",
          "type": "string"
        },
        {
          "internalType": "uint256",
          "name": "stakeAmount",
          "type": "uint256"
        },
        {
          "internalType": "bool",
          "name": "isActive",
          "type": "bool"
        }
      ],
      "stateMutability": "view",
      "type": "function"
    },
    {
      "inputs": [
        {
          "internalType": "bytes32",
          "name": "",
          "type": "bytes32"
        },
        {
          "internalType": "address",
          "name": "",
          "type": "address"
        }
      ],
      "name": "pendingUnstakeAt",
      "outputs": [
        {
          "internalType": "uint256",
          "name": "",
          "type": "uint256"
        }
      ],
      "stateMutability": "view",
      "type": "function"
    },
    {
      "inputs": [],
      "name": "protocolOwner",
      "outputs": [
        {
          "internalType": "address",
          "name": "",
          "type": "address"
        }
      ],
      "stateMutability": "view",
      "type": "function"
    },
    {
      "inputs": [
        {
          "internalType": "bytes32",
          "name": "tenantId",
          "type": "bytes32"
        },
        {
          "internalType": "address",
          "name": "lostOperator",
          "type": "address"
        },
        {
          "internalType": "address",
          "name": "newOperator",
          "type": "address"
        },
        {
          "internalType": "string",
          "name": "reason",
          "type": "string"
        }
      ],
      "name": "recoverOperatorByAdmin",
      "outputs": [],
      "stateMutability": "nonpayable",
      "type": "function"
    },
    {
      "inputs": [
        {
          "internalType": "bytes32",
          "name": "tenantId",
          "type": "bytes32"
        },
        {
          "internalType": "address",
          "name": "lostOperator",
          "type": "address"
        },
        {
          "internalType": "string",
          "name": "reason",
          "type": "string"
        }
      ],
      "name": "recoverOperatorByDelegate",
      "outputs": [],
      "stateMutability": "nonpayable",
      "type": "function"
    },
    {
      "inputs": [
        {
          "internalType": "bytes32",
          "name": "",
          "type": "bytes32"
        },
        {
          "internalType": "address",
          "name": "",
          "type": "address"
        }
      ],
      "name": "recoveryDelegates",
      "outputs": [
        {
          "internalType": "address",
          "name": "",
          "type": "address"
        }
      ],
      "stateMutability": "view",
      "type": "function"
    },
    {
      "inputs": [
        {
          "components": [
            {
              "internalType": "bytes32",
              "name": "tenantId",
              "type": "bytes32"
            },
            {
              "internalType": "bytes32",
              "name": "fileHash",
              "type": "bytes32"
            },
            {
              "internalType": "string",
              "name": "cid",
              "type": "string"
            },
            {
              "internalType": "bytes32",
              "name": "ciphertextHash",
              "type": "bytes32"
            },
            {
              "internalType": "bytes32",
              "name": "encryptionMetaHash",
              "type": "bytes32"
            },
            {
              "internalType": "uint32",
              "name": "docType",
              "type": "uint32"
            },
            {
              "internalType": "uint32",
              "name": "version",
              "type": "uint32"
            },
            {
              "internalType": "uint256",
              "name": "nonce",
              "type": "uint256"
            },
            {
              "internalType": "uint256",
              "name": "deadline",
              "type": "uint256"
            }
          ],
          "internalType": "struct VoucherProtocol.RegisterPayload",
          "name": "payload",
          "type": "tuple"
        },
        {
          "internalType": "bytes",
          "name": "signature",
          "type": "bytes"
        }
      ],
      "name": "registerWithSignature",
      "outputs": [],
      "stateMutability": "nonpayable",
      "type": "function"
    },
    {
      "inputs": [
        {
          "internalType": "bytes32",
          "name": "role",
          "type": "bytes32"
        },
        {
          "internalType": "address",
          "name": "callerConfirmation",
          "type": "address"
        }
      ],
      "name": "renounceRole",
      "outputs": [],
      "stateMutability": "nonpayable",
      "type": "function"
    },
    {
      "inputs": [
        {
          "internalType": "bytes32",
          "name": "tenantId",
          "type": "bytes32"
        }
      ],
      "name": "requestUnstake",
      "outputs": [],
      "stateMutability": "nonpayable",
      "type": "function"
    },
    {
      "inputs": [
        {
          "internalType": "bytes32",
          "name": "tenantId",
          "type": "bytes32"
        },
        {
          "internalType": "bytes32",
          "name": "fileHash",
          "type": "bytes32"
        },
        {
          "internalType": "string",
          "name": "reason",
          "type": "string"
        }
      ],
      "name": "revokeDocument",
      "outputs": [],
      "stateMutability": "nonpayable",
      "type": "function"
    },
    {
      "inputs": [
        {
          "internalType": "bytes32",
          "name": "role",
          "type": "bytes32"
        },
        {
          "internalType": "address",
          "name": "account",
          "type": "address"
        }
      ],
      "name": "revokeRole",
      "outputs": [],
      "stateMutability": "nonpayable",
      "type": "function"
    },
    {
      "inputs": [
        {
          "internalType": "bytes32",
          "name": "tenantId",
          "type": "bytes32"
        },
        {
          "internalType": "uint32",
          "name": "docType",
          "type": "uint32"
        },
        {
          "internalType": "address",
          "name": "operator",
          "type": "address"
        },
        {
          "internalType": "bool",
          "name": "whitelisted",
          "type": "bool"
        },
        {
          "internalType": "uint16",
          "name": "roleId",
          "type": "uint16"
        }
      ],
      "name": "setCoSignOperator",
      "outputs": [],
      "stateMutability": "nonpayable",
      "type": "function"
    },
    {
      "inputs": [
        {
          "internalType": "bytes32",
          "name": "tenantId",
          "type": "bytes32"
        },
        {
          "internalType": "uint32",
          "name": "docType",
          "type": "uint32"
        },
        {
          "internalType": "bool",
          "name": "enabled",
          "type": "bool"
        },
        {
          "internalType": "uint256",
          "name": "minStake",
          "type": "uint256"
        },
        {
          "internalType": "uint256",
          "name": "minSigners",
          "type": "uint256"
        },
        {
          "internalType": "uint256",
          "name": "requiredRoleMask",
          "type": "uint256"
        }
      ],
      "name": "setCoSignPolicy",
      "outputs": [],
      "stateMutability": "nonpayable",
      "type": "function"
    },
    {
      "inputs": [
        {
          "internalType": "bytes32",
          "name": "tenantId",
          "type": "bytes32"
        },
        {
          "internalType": "uint256",
          "name": "newMinOperatorStake",
          "type": "uint256"
        }
      ],
      "name": "setMinOperatorStake",
      "outputs": [],
      "stateMutability": "nonpayable",
      "type": "function"
    },
    {
      "inputs": [
        {
          "internalType": "bytes32",
          "name": "tenantId",
          "type": "bytes32"
        },
        {
          "internalType": "address",
          "name": "operator",
          "type": "address"
        },
        {
          "internalType": "bool",
          "name": "isActive",
          "type": "bool"
        },
        {
          "internalType": "string",
          "name": "reason",
          "type": "string"
        }
      ],
      "name": "setOperatorStatus",
      "outputs": [],
      "stateMutability": "nonpayable",
      "type": "function"
    },
    {
      "inputs": [
        {
          "internalType": "bytes32",
          "name": "tenantId",
          "type": "bytes32"
        },
        {
          "internalType": "address",
          "name": "delegate",
          "type": "address"
        }
      ],
      "name": "setRecoveryDelegate",
      "outputs": [],
      "stateMutability": "nonpayable",
      "type": "function"
    },
    {
      "inputs": [
        {
          "internalType": "bytes32",
          "name": "tenantId",
          "type": "bytes32"
        },
        {
          "internalType": "bool",
          "name": "isActive",
          "type": "bool"
        }
      ],
      "name": "setTenantStatus",
      "outputs": [],
      "stateMutability": "nonpayable",
      "type": "function"
    },
    {
      "inputs": [
        {
          "internalType": "bytes32",
          "name": "tenantId",
          "type": "bytes32"
        },
        {
          "internalType": "address",
          "name": "newTreasury",
          "type": "address"
        }
      ],
      "name": "setTreasury",
      "outputs": [],
      "stateMutability": "nonpayable",
      "type": "function"
    },
    {
      "inputs": [
        {
          "internalType": "bytes32",
          "name": "tenantId",
          "type": "bytes32"
        },
        {
          "internalType": "uint256",
          "name": "newUnstakeCooldown",
          "type": "uint256"
        }
      ],
      "name": "setUnstakeCooldown",
      "outputs": [],
      "stateMutability": "nonpayable",
      "type": "function"
    },
    {
      "inputs": [
        {
          "internalType": "bytes32",
          "name": "tenantId",
          "type": "bytes32"
        },
        {
          "internalType": "bytes32",
          "name": "violationCode",
          "type": "bytes32"
        },
        {
          "internalType": "uint16",
          "name": "penaltyBps",
          "type": "uint16"
        }
      ],
      "name": "setViolationPenalty",
      "outputs": [],
      "stateMutability": "nonpayable",
      "type": "function"
    },
    {
      "inputs": [
        {
          "internalType": "bytes32",
          "name": "tenantId",
          "type": "bytes32"
        },
        {
          "internalType": "address",
          "name": "_operator",
          "type": "address"
        },
        {
          "internalType": "string",
          "name": "reason",
          "type": "string"
        }
      ],
      "name": "slashOperator",
      "outputs": [],
      "stateMutability": "nonpayable",
      "type": "function"
    },
    {
      "inputs": [
        {
          "internalType": "bytes32",
          "name": "tenantId",
          "type": "bytes32"
        },
        {
          "internalType": "address",
          "name": "_operator",
          "type": "address"
        },
        {
          "internalType": "bytes32",
          "name": "violationCode",
          "type": "bytes32"
        },
        {
          "internalType": "string",
          "name": "reason",
          "type": "string"
        }
      ],
      "name": "softSlashOperator",
      "outputs": [],
      "stateMutability": "nonpayable",
      "type": "function"
    },
    {
      "inputs": [
        {
          "internalType": "bytes4",
          "name": "interfaceId",
          "type": "bytes4"
        }
      ],
      "name": "supportsInterface",
      "outputs": [
        {
          "internalType": "bool",
          "name": "",
          "type": "bool"
        }
      ],
      "stateMutability": "view",
      "type": "function"
    },
    {
      "inputs": [
        {
          "internalType": "bytes32",
          "name": "",
          "type": "bytes32"
        },
        {
          "internalType": "uint32",
          "name": "",
          "type": "uint32"
        }
      ],
      "name": "tenantCoSignPolicies",
      "outputs": [
        {
          "internalType": "bool",
          "name": "enabled",
          "type": "bool"
        },
        {
          "internalType": "uint256",
          "name": "minStake",
          "type": "uint256"
        },
        {
          "internalType": "uint256",
          "name": "minSigners",
          "type": "uint256"
        },
        {
          "internalType": "uint256",
          "name": "requiredRoleMask",
          "type": "uint256"
        }
      ],
      "stateMutability": "view",
      "type": "function"
    },
    {
      "inputs": [
        {
          "internalType": "bytes32",
          "name": "",
          "type": "bytes32"
        },
        {
          "internalType": "uint32",
          "name": "",
          "type": "uint32"
        },
        {
          "internalType": "address",
          "name": "",
          "type": "address"
        }
      ],
      "name": "tenantCoSignRoles",
      "outputs": [
        {
          "internalType": "uint16",
          "name": "",
          "type": "uint16"
        }
      ],
      "stateMutability": "view",
      "type": "function"
    },
    {
      "inputs": [
        {
          "internalType": "bytes32",
          "name": "",
          "type": "bytes32"
        },
        {
          "internalType": "uint32",
          "name": "",
          "type": "uint32"
        },
        {
          "internalType": "address",
          "name": "",
          "type": "address"
        }
      ],
      "name": "tenantCoSignWhitelisted",
      "outputs": [
        {
          "internalType": "bool",
          "name": "",
          "type": "bool"
        }
      ],
      "stateMutability": "view",
      "type": "function"
    },
    {
      "inputs": [
        {
          "internalType": "uint256",
          "name": "",
          "type": "uint256"
        }
      ],
      "name": "tenantList",
      "outputs": [
        {
          "internalType": "bytes32",
          "name": "",
          "type": "bytes32"
        }
      ],
      "stateMutability": "view",
      "type": "function"
    },
    {
      "inputs": [
        {
          "internalType": "bytes32",
          "name": "",
          "type": "bytes32"
        }
      ],
      "name": "tenantMinOperatorStake",
      "outputs": [
        {
          "internalType": "uint256",
          "name": "",
          "type": "uint256"
        }
      ],
      "stateMutability": "view",
      "type": "function"
    },
    {
      "inputs": [
        {
          "internalType": "bytes32",
          "name": "",
          "type": "bytes32"
        }
      ],
      "name": "tenantUnstakeCooldown",
      "outputs": [
        {
          "internalType": "uint256",
          "name": "",
          "type": "uint256"
        }
      ],
      "stateMutability": "view",
      "type": "function"
    },
    {
      "inputs": [
        {
          "internalType": "bytes32",
          "name": "",
          "type": "bytes32"
        },
        {
          "internalType": "bytes32",
          "name": "",
          "type": "bytes32"
        }
      ],
      "name": "tenantViolationPenalties",
      "outputs": [
        {
          "internalType": "uint16",
          "name": "",
          "type": "uint16"
        }
      ],
      "stateMutability": "view",
      "type": "function"
    },
    {
      "inputs": [
        {
          "internalType": "bytes32",
          "name": "",
          "type": "bytes32"
        }
      ],
      "name": "tenants",
      "outputs": [
        {
          "internalType": "address",
          "name": "admin",
          "type": "address"
        },
        {
          "internalType": "address",
          "name": "treasury",
          "type": "address"
        },
        {
          "internalType": "bool",
          "name": "isActive",
          "type": "bool"
        },
        {
          "internalType": "uint256",
          "name": "createdAt",
          "type": "uint256"
        }
      ],
      "stateMutability": "view",
      "type": "function"
    },
    {
      "inputs": [
        {
          "internalType": "bytes32",
          "name": "tenantId",
          "type": "bytes32"
        }
      ],
      "name": "topUpStake",
      "outputs": [],
      "stateMutability": "payable",
      "type": "function"
    },
    {
      "inputs": [
        {
          "internalType": "bytes32",
          "name": "",
          "type": "bytes32"
        },
        {
          "internalType": "bytes32",
          "name": "",
          "type": "bytes32"
        }
      ],
      "name": "trustedCoSignCount",
      "outputs": [
        {
          "internalType": "uint256",
          "name": "",
          "type": "uint256"
        }
      ],
      "stateMutability": "view",
      "type": "function"
    },
    {
      "inputs": [
        {
          "internalType": "bytes32",
          "name": "",
          "type": "bytes32"
        },
        {
          "internalType": "bytes32",
          "name": "",
          "type": "bytes32"
        }
      ],
      "name": "trustedCoSignRoleMask",
      "outputs": [
        {
          "internalType": "uint256",
          "name": "",
          "type": "uint256"
        }
      ],
      "stateMutability": "view",
      "type": "function"
    },
    {
      "inputs": [
        {
          "internalType": "bytes32",
          "name": "tenantId",
          "type": "bytes32"
        },
        {
          "internalType": "string",
          "name": "metadataURI",
          "type": "string"
        }
      ],
      "name": "updateOperatorMetadata",
      "outputs": [],
      "stateMutability": "nonpayable",
      "type": "function"
    }
  ],
  "bytecode": "0x60a060405234801561000f575f5ffd5b5060017f9b779b17422d0df92223018b32b4d1fa46e071723d6817e2486d003becc55f0055600180546001600160a01b03191633908117909155610054905f9061014f565b5061007f7fd0c934f24ef5a377dc3832429ce607cbe940a3ca3c6cd7e532bd35b4b212d1963361014f565b50604080517f8b73c3c69bb8fe3d512ecc4cf759cc79239f7b179b0ffacaa9a75d522b39400f60208201527f32e8a79951df9d41f0345a487dbe19ec03b0a7de9751dd4031f0cc3d0a623968918101919091527fc89efdaa54c0f20c7adf612882df0950f5a951637e0307cdcb4c672f298b8bc660608201524660808201523060a082015260c00160408051601f1981840301815290829052805160209091012060805233907fc130514d7c8c002bccb3fd35204490d020b73c0188386dbb07de86d15d5cb9a0905f90a26101f8565b5f828152602081815260408083206001600160a01b038516845290915281205460ff166101ef575f838152602081815260408083206001600160a01b03861684529091529020805460ff191660011790556101a73390565b6001600160a01b0316826001600160a01b0316847f2f8788117e7eff1d82e926ec794901d17c78024a50270940304540a733656f0d60405160405180910390a45060016101f2565b505f5b92915050565b608051615a406102105f395f6148320152615a405ff3fe6080604052600436106103a8575f3560e01c80638bdb1de3116101e9578063c70496a411610108578063e26edb7a1161009d578063f4410c061161006d578063f4410c0614610d35578063fb827fa814610d54578063fc89626714610d83578063ff14d45814610dae575f5ffd5b8063e26edb7a14610ca5578063e7b06ccd14610cc4578063eaa3668f14610ce3578063f3e49baa14610cf6575f5ffd5b8063d4b77cfc116100d8578063d4b77cfc14610be8578063d547741f14610c07578063d9fe7f6714610c26578063dfa89c1d14610c66575f5ffd5b8063c70496a414610b7c578063cb1c2b5c14610b9b578063cbbb0fec14610bb6578063d019036e14610bd5575f5ffd5b8063a2375cf31161017e578063b04da8a11161014e578063b04da8a114610ad1578063b5004d7914610b07578063c1d6ba6914610b3e578063c664e0d514610b5d575f5ffd5b8063a2375cf314610a41578063a468703d14610a60578063a60f4c0914610a7f578063aee2bc8614610a9e575f5ffd5b806395f001e6116101b957806395f001e61461096c57806399c894041461098b5780639e531042146109aa578063a217fddf14610a2e575f5ffd5b80638bdb1de3146108ef5780638d18edf01461091a57806391d1485414610939578063920da43314610958575f5ffd5b80633ebf6f7d116102d55780635f2ec6ba1161026a5780636d184dd31161023a5780636d184dd31461082e578063715eba9a146108645780637ff637311461088357806386e2b63f146108b9575f5ffd5b80635f2ec6ba14610790578063627a654f146107af5780636b044e3d146107e35780636cc531d414610802575f5ffd5b8063502ea5c2116102a5578063502ea5c2146106ee578063541bd3ee146107275780635533b9bf146107465780635e50980714610771575f5ffd5b80633ebf6f7d1461060957806342149fd01461067a5780634d00857a146106995780634f138e01146106b8575f5ffd5b80630f3384e01161034b578063248a9ca31161031b578063248a9ca31461056357806328a1b2c9146105915780632f2ff15d146105cb57806336568abe146105ea575f5ffd5b80630f3384e0146104e4578063130d571b146105055780631b48ba1f14610524578063246145d814610550575f5ffd5b80630619a7d0116103865780630619a7d0146104475780630a75a2f01461049b5780630b60c58f146104b95780630e0895b9146104cf575f5ffd5b8063015d4ad3146103ac57806301ffc9a7146104005780630225d3cc1461041f575b5f5ffd5b3480156103b7575f5ffd5b506103eb6103c6366004614ee4565b600b60209081525f938452604080852082529284528284209052825290205460ff1681565b60405190151581526020015b60405180910390f35b34801561040b575f5ffd5b506103eb61041a366004614f16565b610e85565b34801561042a575f5ffd5b5061043461271081565b60405161ffff90911681526020016103f7565b348015610452575f5ffd5b50610466610461366004614f57565b610ebb565b6040516103f7919081511515815260208083015190820152604080830151908201526060918201519181019190915260800190565b3480156104a6575f5ffd5b506003545b6040519081526020016103f7565b3480156104c4575f5ffd5b506104ab6201518081565b3480156104da575f5ffd5b5061043461010081565b3480156104ef575f5ffd5b506105036104fe366004614f81565b610f3c565b005b348015610510575f5ffd5b5061050361051f366004614ff5565b611014565b34801561052f575f5ffd5b5061054361053e366004614f81565b611146565b6040516103f7919061508d565b61050361055e366004615137565b6112c8565b34801561056e575f5ffd5b506104ab61057d36600461517f565b5f9081526020819052604090206001015490565b34801561059c575f5ffd5b506104346105ab366004614f81565b601360209081525f928352604080842090915290825290205461ffff1681565b3480156105d6575f5ffd5b506105036105e5366004615196565b6115ad565b3480156105f5575f5ffd5b50610503610604366004615196565b6115d7565b348015610614575f5ffd5b50610658610623366004614f57565b601060209081525f9283526040808420909152908252902080546001820154600283015460039093015460ff90921692909184565b60408051941515855260208501939093529183015260608201526080016103f7565b348015610685575f5ffd5b506105036106943660046151b7565b61160f565b3480156106a4575f5ffd5b506105036106b336600461521e565b611af2565b3480156106c3575f5ffd5b506104ab6106d2366004614f81565b600c60209081525f928352604080842090915290825290205481565b3480156106f9575f5ffd5b506103eb610708366004614f81565b600f60209081525f928352604080842090915290825290205460ff1681565b348015610732575f5ffd5b5061050361074136600461517f565b611cd1565b348015610751575f5ffd5b506104ab61076036600461517f565b5f9081526005602052604090205490565b34801561077c575f5ffd5b5061050361078b366004615278565b611ebc565b34801561079b575f5ffd5b506105036107aa3660046152a1565b611fe1565b3480156107ba575f5ffd5b506107ce6107c9366004614f81565b6121f8565b6040516103f7999897969594939291906152d1565b3480156107ee575f5ffd5b506105036107fd366004615335565b6122ec565b34801561080d575f5ffd5b5061082161081c366004615196565b6123db565b6040516103f7919061536c565b348015610839575f5ffd5b506104ab610848366004614f81565b600d60209081525f928352604080842090915290825290205481565b34801561086f575f5ffd5b5061050361087e366004615196565b6124e9565b34801561088e575f5ffd5b506104ab61089d366004614f81565b600e60209081525f928352604080842090915290825290205481565b3480156108c4575f5ffd5b506104ab6108d3366004615196565b600760209081525f928352604080842090915290825290205481565b3480156108fa575f5ffd5b506104ab61090936600461517f565b60146020525f908152604090205481565b348015610925575f5ffd5b506105036109343660046153b3565b6125cc565b348015610944575f5ffd5b506103eb610953366004615196565b612cdc565b348015610963575f5ffd5b50610434600181565b348015610977575f5ffd5b50610503610986366004615408565b612d04565b348015610996575f5ffd5b506104ab6109a536600461517f565b612dbf565b3480156109b5575f5ffd5b506109fd6109c436600461517f565b600260208190525f91825260409091208054600182015491909201546001600160a01b0392831692821691600160a01b900460ff169084565b604080516001600160a01b0395861681529490931660208501529015159183019190915260608201526080016103f7565b348015610a39575f5ffd5b506104ab5f81565b348015610a4c575f5ffd5b50610503610a5b366004615137565b612dde565b348015610a6b575f5ffd5b50610503610a7a366004615429565b612eb1565b348015610a8a575f5ffd5b50610503610a99366004615466565b61344a565b348015610aa9575f5ffd5b506104ab7fd0c934f24ef5a377dc3832429ce607cbe940a3ca3c6cd7e532bd35b4b212d19681565b348015610adc575f5ffd5b506104ab610aeb366004615196565b600860209081525f928352604080842090915290825290205481565b348015610b12575f5ffd5b50610b26610b21366004614f81565b61359d565b6040516001600160a01b0390911681526020016103f7565b348015610b49575f5ffd5b50600154610b26906001600160a01b031681565b348015610b68575f5ffd5b50610503610b77366004615196565b6135d7565b348015610b87575f5ffd5b506104ab610b9636600461517f565b6136fa565b348015610ba6575f5ffd5b506104ab67016345785d8a000081565b348015610bc1575f5ffd5b50610503610bd0366004614f81565b61371e565b348015610be0575f5ffd5b506104345f81565b348015610bf3575f5ffd5b50610503610c023660046154ba565b6137e7565b348015610c12575f5ffd5b50610503610c21366004615196565b613caf565b348015610c31575f5ffd5b50610434610c403660046154ec565b601260209081525f938452604080852082529284528284209052825290205461ffff1681565b348015610c71575f5ffd5b50610b26610c80366004615196565b600960209081525f92835260408084209091529082529020546001600160a01b031681565b348015610cb0575f5ffd5b50610503610cbf36600461517f565b613cd3565b348015610ccf575f5ffd5b50610503610cde36600461550e565b613dee565b610503610cf136600461517f565b6140f1565b348015610d01575f5ffd5b506103eb610d103660046154ec565b601160209081525f938452604080852082529284528284209052825290205460ff1681565b348015610d40575f5ffd5b50610503610d4f3660046151b7565b614244565b348015610d5f575f5ffd5b50610d73610d6e366004615196565b614486565b6040516103f79493929190615554565b348015610d8e575f5ffd5b506104ab610d9d36600461517f565b60156020525f908152604090205481565b348015610db9575f5ffd5b50610e42610dc836600461517f565b604080516080810182525f808252602082018190529181018290526060810191909152505f90815260026020818152604092839020835160808101855281546001600160a01b039081168252600183015490811693820193909352600160a01b90920460ff16151593820193909352910154606082015290565b6040516103f7919081516001600160a01b039081168252602080840151909116908201526040808301511515908201526060918201519181019190915260800190565b5f6001600160e01b03198216637965db0b60e01b1480610eb557506301ffc9a760e01b6001600160e01b03198316145b92915050565b610ee460405180608001604052805f151581526020015f81526020015f81526020015f81525090565b505f91825260106020908152604080842063ffffffff939093168452918152918190208151608081018352815460ff161515815260018201549381019390935260028101549183019190915260030154606082015290565b5f828152600260205260409020546001600160a01b0316610f70576040516315858c8d60e31b815260040160405180910390fd5b610f82610f7c83614543565b33612cdc565b610f9e576040516282b42960e81b815260040160405180910390fd5b805f03610fbe576040516310a571d160e31b815260040160405180910390fd5b5f8281526014602090815260409182902080549084905582518181529182018490529184917fb3e495fc3e71835a852989aa9b3d6b27f6b8d42624cb9b3cf02660a2398cc4f691015b60405180910390a2505050565b5f858152600260205260409020546001600160a01b0316611048576040516315858c8d60e31b815260040160405180910390fd5b611054610f7c86614543565b611070576040516282b42960e81b815260040160405180910390fd5b5f8581526004602090815260408083206001600160a01b038816845290915281206002015490036110b457604051636567cc4d60e11b815260040160405180910390fd5b5f8581526004602090815260408083206001600160a01b03881684529091529020600301805460ff19168415151790558261110c575f8581526008602090815260408083206001600160a01b03881684529091528120555b836001600160a01b0316855f5160206159eb5f395f51905f52858585604051611137939291906155ac565b60405180910390a35050505050565b6111a46040518061012001604052805f8152602001606081526020015f6001600160a01b031681526020015f81526020015f151581526020015f81526020015f81526020015f63ffffffff1681526020015f63ffffffff1681525090565b5f838152600a60209081526040808320858452825291829020825161012081019093528054835260018101805491928401916111df906155d0565b80601f016020809104026020016040519081016040528092919081815260200182805461120b906155d0565b80156112565780601f1061122d57610100808354040283529160200191611256565b820191905f5260205f20905b81548152906001019060200180831161123957829003601f168201915b505050918352505060028201546001600160a01b0316602082015260038201546040820152600482015460ff161515606082015260058201546080820152600682015460a082015260079091015463ffffffff80821660c08401526401000000009091041660e0909101529392505050565b5f838152600260205260409020546001600160a01b03166112fc576040516315858c8d60e31b815260040160405180910390fd5b5f83815260026020526040902060010154600160a01b900460ff1661133457604051633ae035b560e21b815260040160405180910390fd5b5f83815260146020526040902054341015611380575f83815260146020526040908190205490516322df051360e11b815234600482015260248101919091526044015b60405180910390fd5b5f8381526004602090815260408083203384529091529020600201541515806113c457505f83815260046020908152604080832033845290915290206003015460ff165b156113e25760405163781f2ed160e11b815260040160405180910390fd5b604051806080016040528084815260200183838080601f0160208091040260200160405190810160405280939291908181526020018383808284375f920182905250938552505034602080850191909152600160409485018190528884526004825284842033855282529390922084518155918401519192830191611468915082615660565b5060408281015160028301556060909201516003909101805460ff19169115159190911790555f848152600660209081528282203383529052205460ff166114fc575f8381526005602090815260408083208054600181810183559185528385200180546001600160a01b0319163390811790915587855260068452828520908552909252909120805460ff191690911790555b5f83815260086020908152604080832033808552925280832092909255905184907f89093fa8f3c791613d772d3d77195c6050e6b0d2f7915c934f7299c3e60e14d19061154e9086908690349061571b565b60405180910390a3336001600160a01b0316835f5160206159eb5f395f51905f5260016040516115a09115158152604060208201819052600690820152651293d253915160d21b606082015260800190565b60405180910390a3505050565b5f828152602081905260409020600101546115c7816145a4565b6115d183836145ae565b50505050565b6001600160a01b03811633146116005760405163334bd91960e11b815260040160405180910390fd5b61160a828261463d565b505050565b5f848152600260205260409020546001600160a01b0316611643576040516315858c8d60e31b815260040160405180910390fd5b5f8481526004602090815260408083206001600160a01b038716845290915290206003015460ff161561168957604051631ae4c62160e31b815260040160405180910390fd5b5f8481526004602090815260408083206001600160a01b038716845290915281206002015490036116cd5760405163e5e6218160e01b815260040160405180910390fd5b5f8481526008602090815260408083206001600160a01b03871684529091529020541561170d57604051633c10931960e21b815260040160405180910390fd5b5f8481526009602090815260408083206001600160a01b0387811685529252909120541633146117505760405163ce4f24bb60e01b815260040160405180910390fd5b5f84815260046020908152604080832033845290915290206002015415158061179457505f84815260046020908152604080832033845290915290206003015460ff165b156117b257604051632f55c93160e11b815260040160405180910390fd5b5f8481526004602090815260408083206001600160a01b038716845282528083208151608081019092528054825260018101805492939192918401916117f7906155d0565b80601f0160208091040260200160405190810160405280929190818152602001828054611823906155d0565b801561186e5780601f106118455761010080835404028352916020019161186e565b820191905f5260205f20905b81548152906001019060200180831161185157829003601f168201915b50505091835250506002820154602082015260039091015460ff1615156040918201528101519091505f036118b657604051636567cc4d60e11b815260040160405180910390fd5b6040805160808101825286815260208381015181830190815284840151838501526060808601511515908401525f89815260048352848120338252909252929020815181559151909190600182019061190f9082615660565b5060408281015160028301556060909201516003909101805460ff19169115159190911790555f868152600660209081528282203383529052205460ff166119a3575f8581526005602090815260408083208054600181810183559185528385200180546001600160a01b0319163390811790915589855260068452828520908552909252909120805460ff191690911790555b5f8581526007602090815260408083206001600160a01b03881680855290835281842054338086528386209190915589855260088452828520908552835281842084905588845260048352818420908452909152812081815590611a0a6001830182614e7f565b505f600282018190556003909101805460ff191690558581526007602090815260408083206001600160a01b038816808552908352818420849055888452600883528184208185528352818420849055888452600983528184208185529092529182902080546001600160a01b0319169055828201519151339288917fd9f8b9c3708d68f065bd3abc87d385dd96a656d93537a092b9612a9775bd631091611ab5918990899061573e565b60405180910390a46040515f90339087907f7e8f7689d5c1589dea13355ed1b30d2a11c050a08189c224a84103455f87036f908490a45050505050565b5f858152600260205260409020546001600160a01b0316611b26576040516315858c8d60e31b815260040160405180910390fd5b611b32610f7c86614543565b611b4e576040516282b42960e81b815260040160405180910390fd5b6001600160a01b038316611b74576040516282b42960e81b815260040160405180910390fd5b8115611bf357600161ffff82161080611b92575061010061ffff8216115b15611bb057604051636005ea8760e11b815260040160405180910390fd5b5f85815260126020908152604080832063ffffffff8816845282528083206001600160a01b03871684529091529020805461ffff191661ffff8316179055611c2c565b5f85815260126020908152604080832063ffffffff8816845282528083206001600160a01b03871684529091529020805461ffff191690555b5f85815260116020908152604080832063ffffffff88168085529083528184206001600160a01b038816808652908452828520805460ff19168815159081179091558a865260128552838620838752855283862082875285529483902054835195865261ffff1693850193909352919288917fdef872ea7445739ffc07c56472edf8475b85cca6440175796472fbf2026f079d91015b60405180910390a45050505050565b611cd96146a6565b5f81815260086020908152604080832033845290915281205490819003611d1357604051631509a84360e11b815260040160405180910390fd5b80421015611d3757604051633a84e5cf60e01b815260048101829052602401611377565b5f82815260046020908152604080832033845290915281206002015490819003611d7457604051636567cc4d60e11b815260040160405180910390fd5b5f8381526004602090815260408083203380855290835281842060028101859055600301805460ff19169055868452600883528184208185529092528083208390555183908381818185875af1925050503d805f8114611def576040519150601f19603f3d011682016040523d82523d5f602084013e611df4565b606091505b5050905080611e1657604051630db2c7f160e31b815260040160405180910390fd5b604051828152339085907fc95c831f7facab10cbf2586454bb2cdaec5e9702311d8c3c3c2cc804a1abb4ca9060200160405180910390a3336001600160a01b0316845f5160206159eb5f395f51905f525f604051611e98911515815260406020820181905260089082015267155394d51052d15160c21b606082015260800190565b60405180910390a3505050611eb960015f5160206159cb5f395f51905f5255565b50565b5f838152600260205260409020546001600160a01b0316611ef0576040516315858c8d60e31b815260040160405180910390fd5b611efc610f7c84614543565b611f18576040516282b42960e81b815260040160405180910390fd5b81611f36576040516310a571d160e31b815260040160405180910390fd5b61ffff81161580611f4c575061271061ffff8216115b15611f70576040516332938fe960e21b815261ffff82166004820152602401611377565b5f838152601360209081526040808320858452825291829020805461ffff19811661ffff868116918217909355845192909116808352928201529091849186917fcb56c846dda3cc605bef1888996092a907b9919475bf7505bda8fa8c95123301910160405180910390a350505050565b7fd0c934f24ef5a377dc3832429ce607cbe940a3ca3c6cd7e532bd35b4b212d19661200b816145a4565b83612029576040516310a571d160e31b815260040160405180910390fd5b6001600160a01b038316158061204657506001600160a01b038216155b1561206457604051630e4607ed60e41b815260040160405180910390fd5b5f848152600260205260409020546001600160a01b031615612099576040516355ad509160e11b815260040160405180910390fd5b604080516080810182526001600160a01b0380861682528481166020808401918252600184860181815242606087019081525f8c8152600294859052978820965187549087166001600160a01b03199091161787559351868301805492511515600160a01b026001600160a81b0319909316919096161717909355905192019190915560038054918201815582527fc2575a0e9e593c00f959f8c92f12db2869c3395a3b0502d05e2516446f71f85b01859055612155856146c1565b90505f612161866146fd565b90505f61216d87614543565b905061217983876145ae565b5061218482876145ae565b5061218f81876145ae565b505f87815260146020908152604080832067016345785d8a000090556015909152808220620151809055516001600160a01b0380881692908916918a917f76815c6c3d66579360681cc597126b11d4eaabe670b868db92df92d641a5965c91a450505050505050565b600a60209081525f928352604080842090915290825290208054600182018054919291612224906155d0565b80601f0160208091040260200160405190810160405280929190818152602001828054612250906155d0565b801561229b5780601f106122725761010080835404028352916020019161229b565b820191905f5260205f20905b81548152906001019060200180831161227e57829003601f168201915b5050506002840154600385015460048601546005870154600688015460079098015496976001600160a01b039094169692955060ff9091169350919063ffffffff8082169164010000000090041689565b5f848152600a60209081526040808320868452909152902060028101546001600160a01b031661232f576040516328193b9d60e21b815260040160405180910390fd5b61233b610f7c866146c1565b158015612355575060028101546001600160a01b03163314155b15612372576040516282b42960e81b815260040160405180910390fd5b600481015460ff166123975760405163499945c160e01b815260040160405180910390fd5b60048101805460ff191690556040513390859087907fc3cb92e8b6c0aebd791488f8d927216bf2ea5ede447d480f483c21865b04f1a190611cc29088908890615757565b61240560405180608001604052805f8152602001606081526020015f81526020015f151581525090565b5f8381526004602090815260408083206001600160a01b0386168452825291829020825160808101909352805483526001810180549192840191612448906155d0565b80601f0160208091040260200160405190810160405280929190818152602001828054612474906155d0565b80156124bf5780601f10612496576101008083540402835291602001916124bf565b820191905f5260205f20905b8154815290600101906020018083116124a257829003601f168201915b50505091835250506002820154602082015260039091015460ff1615156040909101529392505050565b5f828152600260205260409020546001600160a01b031661251d576040516315858c8d60e31b815260040160405180910390fd5b612529610f7c836146c1565b612545576040516282b42960e81b815260040160405180910390fd5b6001600160a01b03811661256c57604051630e4607ed60e41b815260040160405180910390fd5b5f8281526002602052604080822060010180546001600160a01b031981166001600160a01b038681169182179093559251911692839186917f7e9441be41617a5403de8dfc31de5901f7525f4e4a606654266fa886d567f53f91a4505050565b6125d46146a6565b82355f908152600260205260409020546001600160a01b031661260a576040516315858c8d60e31b815260040160405180910390fd5b82355f90815260026020526040902060010154600160a01b900460ff1661264457604051633ae035b560e21b815260040160405180910390fd5b82610100013542111561266a5760405163df4cc36d60e01b815260040160405180910390fd5b82355f908152600a602090815260408083208287013584529091529020600201546001600160a01b0316156126b25760405163019b268b60e71b815260040160405180910390fd5b5f6126be84848461473b565b84355f9081526004602090815260408083206001600160a01b0385168452909152812060020154919250036127065760405163127225b560e11b815260040160405180910390fd5b83355f9081526004602090815260408083206001600160a01b038516845290915290206003015460ff1661274d57604051631a8660cb60e01b815260040160405180910390fd5b83355f9081526007602090815260408083206001600160a01b038516845290915290205460e08501351461279457604051638baa579f60e01b815260040160405180910390fd5b6040805161012081018252853581529060208201906127b590870187615772565b8080601f0160208091040260200160405190810160405280939291908181526020018383808284375f920191909152505050908252506001600160a01b0383166020820152426040820152600160608083019190915286013560808083019190915286013560a08083019190915260c091820191612838919088019088016157b5565b63ffffffff16815260200161285360e0870160c088016157b5565b63ffffffff16905284355f908152600a6020908152604080832082890135845282529091208251815590820151600182019061288f9082615660565b506040828101516002830180546001600160a01b039283166001600160a01b031990911617905560608401516003840155608084015160048401805491151560ff1992831617905560a080860151600586015560c080870151600687015560e0870151600790960180546101009098015163ffffffff9081166401000000000267ffffffffffffffff199099169716969096179690961790945588355f818152600b6020908152858220818d0135808452908252868320958a16835294815285822080549094166001908117909455828252600c81528582209482529384528481209290925581526010909152908120909290918391612994919089019089016157b5565b63ffffffff16815260208082019290925260409081015f208151608081018352815460ff1615158082526001830154948201949094526002820154928101929092526003015460608201529150612a125784355f908152600f602090815260408083208289013584529091529020805460ff19166001179055612b71565b84355f90815260116020526040812090612a3260c0880160a089016157b5565b63ffffffff16815260208082019290925260409081015f9081206001600160a01b038616825290925290205460ff168015612a97575060208082015186355f9081526004835260408082206001600160a01b0387168352909352919091206002015410155b15612b715784355f90815260126020526040812081612abc60c0890160a08a016157b5565b63ffffffff16815260208082019290925260409081015f9081206001600160a01b038716825290925290205461ffff16905060018110801590612b05575061010061ffff821611155b15612b6f5785355f908152600d60209081526040808320828a01358452909152902060019055612b34816148e6565b86355f818152600e60209081526040808320828c0135808552925290912092909255612b6f91612b6a60c08a0160a08b016157b5565b614901565b505b612b8060e086013560016157e2565b85355f8181526007602090815260408083206001600160a01b0388168085529252909120929092557f092b6bbc92673a71e1b53a3b945184caf28010a041d50f717734c740984858d460e0880135612bd98160016157e2565b6040805192835260208301919091520160405180910390a36001600160a01b038216602086013586357fd352cb361a4f142c2abad9421dd213ae4d4b7e836b57e422fbb6c0d6512632e4612c3060408a018a615772565b60608b013560808c0135612c4a60c08e0160a08f016157b5565b8d60c0016020810190612c5d91906157b5565b604051612c6f969594939291906157f5565b60405180910390a4816001600160a01b03168560200135865f01357f1aa23f6aa7a78fe1f2e49edc378c1d7d45f3593993339beb9f6f9835f87517be6001604051612cbc91815260200190565b60405180910390a4505061160a60015f5160206159cb5f395f51905f5255565b5f918252602082815260408084206001600160a01b0393909316845291905290205460ff1690565b7fd0c934f24ef5a377dc3832429ce607cbe940a3ca3c6cd7e532bd35b4b212d196612d2e816145a4565b5f838152600260205260409020546001600160a01b0316612d62576040516315858c8d60e31b815260040160405180910390fd5b5f83815260026020526040908190206001018054841515600160a01b0260ff60a01b199091161790555183907ff232ed796c7d121df062e0962438bf7a57d1fb9a2c6451caaf7e2695a963cfe69061100790851515815260200190565b60038181548110612dce575f80fd5b5f91825260209091200154905081565b5f838152600260205260409020546001600160a01b0316612e12576040516315858c8d60e31b815260040160405180910390fd5b5f83815260046020908152604080832033845290915290206003015460ff16612e4e57604051631a8660cb60e01b815260040160405180910390fd5b5f8381526004602090815260408083203384529091529020600101612e74828483615833565b50336001600160a01b0316837f8313da849f3eb567d52489e0ba249ce302063096590f8d8b6025d5f7fec89ad984846040516115a0929190615757565b612eb96146a6565b82355f908152600260205260409020546001600160a01b0316612eef576040516315858c8d60e31b815260040160405180910390fd5b82355f90815260026020526040902060010154600160a01b900460ff16612f2957604051633ae035b560e21b815260040160405180910390fd5b8260600135421115612f4e5760405163df4cc36d60e01b815260040160405180910390fd5b82355f908152600a60209081526040808320828701358452825280832081516101208101909252805482526001810180549293919291840191612f90906155d0565b80601f0160208091040260200160405190810160405280929190818152602001828054612fbc906155d0565b80156130075780601f10612fde57610100808354040283529160200191613007565b820191905f5260205f20905b815481529060010190602001808311612fea57829003601f168201915b505050918352505060028201546001600160a01b0390811660208301526003830154604080840191909152600484015460ff161515606084015260058401546080840152600684015460a084015260079093015463ffffffff80821660c08501526401000000009091041660e09092019190915290820151919250166130a0576040516328193b9d60e21b815260040160405180910390fd5b80608001516130c25760405163b863738b60e01b815260040160405180910390fd5b5f6130ce858585614a85565b85355f9081526004602090815260408083206001600160a01b0385168452909152812060020154919250036131165760405163127225b560e11b815260040160405180910390fd5b84355f9081526004602090815260408083206001600160a01b038516845290915290206003015460ff1661315d57604051631a8660cb60e01b815260040160405180910390fd5b84355f9081526007602090815260408083206001600160a01b0385168452909152908190205490860135146131a557604051638baa579f60e01b815260040160405180910390fd5b84355f908152600b6020908152604080832082890135845282528083206001600160a01b038516845290915290205460ff16156131f557604051630709bc1d60e31b815260040160405180910390fd5b84355f90815260106020908152604080832060e086015163ffffffff16845282528083208151608081018352815460ff161580158252600183015494820194909452600282015492810192909252600301546060820152919061326c57613269875f01358560e00151858560200151614ae3565b90505b86355f818152600b60209081526040808320828c01358085529083528184206001600160a01b03891685528352818420805460ff19166001908117909155948452600c835281842090845290915281205490916132c991906157e2565b88355f908152600c60209081526040808320828d01358452909152908190208290559091506132fc9089013560016157e2565b88355f9081526007602090815260408083206001600160a01b038916845290915290205582511561338e5787355f908152600d60209081526040808320828c0135845290915281208054600192906133559084906157e2565b909155505087355f818152600e60209081526040808320828d0135808552925290912080548517905560e087015161338e929190614901565b6001600160a01b03841688357f092b6bbc92673a71e1b53a3b945184caf28010a041d50f717734c740984858d460408b01356133cb8160016157e2565b6040805192835260208301919091520160405180910390a3836001600160a01b03168860200135895f01357f1aa23f6aa7a78fe1f2e49edc378c1d7d45f3593993339beb9f6f9835f87517be8460405161342791815260200190565b60405180910390a4505050505061160a60015f5160206159cb5f395f51905f5255565b5f868152600260205260409020546001600160a01b031661347e576040516315858c8d60e31b815260040160405180910390fd5b61348a610f7c87614543565b6134a6576040516282b42960e81b815260040160405180910390fd5b8380156134b1575081155b80156134bb575080155b156134d957604051631cc23ed560e31b815260040160405180910390fd5b6040805160808101825285151581526020808201868152828401868152606084018681525f8c81526010855286812063ffffffff8d1680835295528690209451855490151560ff199091161785559151600185015551600284015551600390920191909155905187907ff0a24041e06d08c0414775769d1f217c906f14d760e3f298d16d2c64b2672d909061358d908890889088908890931515845260208401929092526040830152606082015260800190565b60405180910390a3505050505050565b5f8281526005602052604081208054839081106135bc576135bc6158ed565b5f918252602090912001546001600160a01b03169392505050565b5f828152600260205260409020546001600160a01b031661360b576040516315858c8d60e31b815260040160405180910390fd5b5f82815260046020908152604080832033845290915290206003015460ff1661364757604051631a8660cb60e01b815260040160405180910390fd5b6001600160a01b03811661366e57604051632f55c93160e11b815260040160405180910390fd5b336001600160a01b0382160361369757604051632f55c93160e11b815260040160405180910390fd5b5f82815260096020908152604080832033808552925280832080546001600160a01b0319166001600160a01b0386169081179091559051909285917f7e8f7689d5c1589dea13355ed1b30d2a11c050a08189c224a84103455f87036f9190a45050565b5f6003828154811061370e5761370e6158ed565b905f5260205f2001549050919050565b5f828152600260205260409020546001600160a01b0316613752576040516315858c8d60e31b815260040160405180910390fd5b61375e610f7c83614543565b61377a576040516282b42960e81b815260040160405180910390fd5b805f0361379a576040516310a571d160e31b815260040160405180910390fd5b5f8281526015602090815260409182902080549084905582518181529182018490529184917fac9a0b846eb7810e402bb79aeb08206ea6da2dc091e6775f62391fcf42df6cfc9101611007565b5f858152600260205260409020546001600160a01b031661381b576040516315858c8d60e31b815260040160405180910390fd5b613827610f7c86614543565b613843576040516282b42960e81b815260040160405180910390fd5b5f8581526004602090815260408083206001600160a01b038816845290915290206003015460ff161561388957604051631ae4c62160e31b815260040160405180910390fd5b6001600160a01b03831615806138b05750836001600160a01b0316836001600160a01b0316145b156138ce57604051632f55c93160e11b815260040160405180910390fd5b5f8581526004602090815260408083206001600160a01b038716845290915290206002015415158061392457505f8581526004602090815260408083206001600160a01b038716845290915290206003015460ff165b1561394257604051632f55c93160e11b815260040160405180910390fd5b5f8581526004602090815260408083206001600160a01b03881684528252808320815160808101909252805482526001810180549293919291840191613987906155d0565b80601f01602080910402602001604051908101604052809291908181526020018280546139b3906155d0565b80156139fe5780601f106139d5576101008083540402835291602001916139fe565b820191905f5260205f20905b8154815290600101906020018083116139e157829003601f168201915b50505091835250506002820154602082015260039091015460ff1615156040918201528101519091505f03613a4657604051636567cc4d60e11b815260040160405180910390fd5b6040805160808101825287815260208381015181830190815284840151838501526060808601511515908401525f8a8152600483528481206001600160a01b038a1682529092529290208151815591519091906001820190613aa89082615660565b5060408281015160028301556060909201516003909101805460ff19169115159190911790555f878152600660209081528282206001600160a01b03881683529052205460ff16613b4e575f8681526005602090815260408083208054600180820183559185528385200180546001600160a01b0319166001600160a01b038a169081179091558a855260068452828520908552909252909120805460ff191690911790555b5f8681526007602090815260408083206001600160a01b0389811680865291845282852054908916808652838620919091558a855260088452828520908552835281842084905589845260048352818420908452909152812081815590613bb86001830182614e7f565b505f600282018190556003909101805460ff191690558681526007602090815260408083206001600160a01b03808a168086529184528285208590558a85526008845282852082865284528285208590558a8552600984528285208286529093529281902080546001600160a01b0319169055838101519051918716929189917fd9f8b9c3708d68f065bd3abc87d385dd96a656d93537a092b9612a9775bd631091613c6891908990899061573e565b60405180910390a46040515f906001600160a01b0386169088907f7e8f7689d5c1589dea13355ed1b30d2a11c050a08189c224a84103455f87036f908490a4505050505050565b5f82815260208190526040902060010154613cc9816145a4565b6115d1838361463d565b5f818152600260205260409020546001600160a01b0316613d07576040516315858c8d60e31b815260040160405180910390fd5b5f81815260046020908152604080832033845290915290206003015460ff16613d4357604051631a8660cb60e01b815260040160405180910390fd5b5f8181526004602090815260408083203384529091528120600201549003613d7e57604051636567cc4d60e11b815260040160405180910390fd5b5f81815260156020526040812054613d9690426157e2565b5f838152600860209081526040808320338085529083529281902084905551838152929350909184917f1e522a03c71586a099d51a73c0f68c1c799fed85c43cf290bcf7158d8b163ad2910160405180910390a35050565b613df66146a6565b5f858152600260205260409020546001600160a01b0316613e2a576040516315858c8d60e31b815260040160405180910390fd5b613e36610f7c866146fd565b613e52576040516282b42960e81b815260040160405180910390fd5b5f8581526004602090815260408083206001600160a01b038816845290915281206002015490819003613e9857604051636567cc4d60e11b815260040160405180910390fd5b5f86815260136020908152604080832087845290915281205461ffff1690819003613ed9576040516331deee5760e01b815260048101869052602401611377565b5f612710613eeb61ffff841685615901565b613ef59190615918565b9050805f03613f02575060015b5f613f0d8285615937565b5f8a81526004602090815260408083206001600160a01b038d168085529083528184206002018590558d84526008835281842090845282528083208390558c83526014909152902054909150811015614003575f8981526004602090815260408083206001600160a01b038c16808552908352818420600301805460ff191690558c845260098352818420818552835281842080546001600160a01b03191690558151938452918301819052601c908301527f534f46545f534c41534845445f42454c4f575f4d494e5f5354414b45000000006060830152908a905f5160206159eb5f395f51905f529060800160405180910390a35b5f898152600260205260408082206001015490516001600160a01b039091169084908381818185875af1925050503d805f811461405b576040519150601f19603f3d011682016040523d82523d5f602084013e614060565b606091505b505090508061408257604051630db2c7f160e31b815260040160405180910390fd5b87896001600160a01b03168b7fe7a3bd933c3f07d41c0cb8538135a0a594505125738765a878a693108558ac3b878787338e8e6040516140c79695949392919061594a565b60405180910390a450505050506140ea60015f5160206159cb5f395f51905f5255565b5050505050565b5f818152600260205260409020546001600160a01b0316614125576040516315858c8d60e31b815260040160405180910390fd5b5f81815260046020908152604080832033845290915281206002015490036141605760405163127225b560e11b815260040160405180910390fd5b5f81815260046020908152604080832033845290915290206003015460ff1661419c57604051631a8660cb60e01b815260040160405180910390fd5b345f036141bc57604051636567cc4d60e11b815260040160405180910390fd5b5f818152600460209081526040808320338452909152812060020180543492906141e79084906157e2565b90915550505f81815260046020908152604080832033808552908352928190206002015481513481529283015283917f98354ada0e4b6a8410fec2063480eb039a321691ae42acf10b9ad333b092672f910160405180910390a350565b61424c6146a6565b5f848152600260205260409020546001600160a01b0316614280576040516315858c8d60e31b815260040160405180910390fd5b61428c610f7c856146fd565b6142a8576040516282b42960e81b815260040160405180910390fd5b5f8481526004602090815260408083206001600160a01b0387168452909152812060020154908190036142ee57604051636567cc4d60e11b815260040160405180910390fd5b5f8581526004602090815260408083206001600160a01b0388811680865291845282852060038101805460ff1916905560029081018690558a86526008855283862083875285528386208690558a86526009855283862092865291845282852080546001600160a01b0319169055898552925280832060010154905191169083908381818185875af1925050503d805f81146143a5576040519150601f19603f3d011682016040523d82523d5f602084013e6143aa565b606091505b50509050806143cc57604051630db2c7f160e31b815260040160405180910390fd5b336001600160a01b0316856001600160a01b0316877f175ef2f76f006472eb75e90808dc704bb073491330e002ec9e017969699c14ca8588886040516144149392919061573e565b60405180910390a4846001600160a01b0316865f5160206159eb5f395f51905f525f60405161446691151581526040602082018190526007908201526614d31054d2115160ca1b606082015260800190565b60405180910390a350506115d160015f5160206159cb5f395f51905f5255565b600460209081525f9283526040808420909152908252902080546001820180549192916144b2906155d0565b80601f01602080910402602001604051908101604052809291908181526020018280546144de906155d0565b80156145295780601f1061450057610100808354040283529160200191614529565b820191905f5260205f20905b81548152906001019060200180831161450c57829003601f168201915b50505050600283015460039093015491929160ff16905084565b6040805160208101829052601c60608201527f54454e414e545f4f50455241544f525f4d414e414745525f524f4c450000000060808201529081018290525f9060a0015b604051602081830303815290604052805190602001209050919050565b611eb98133614c20565b5f6145b98383612cdc565b614636575f838152602081815260408083206001600160a01b03861684529091529020805460ff191660011790556145ee3390565b6001600160a01b0316826001600160a01b0316847f2f8788117e7eff1d82e926ec794901d17c78024a50270940304540a733656f0d60405160405180910390a4506001610eb5565b505f610eb5565b5f6146488383612cdc565b15614636575f838152602081815260408083206001600160a01b0386168085529252808320805460ff1916905551339286917ff6391f5c32d9c69d2a47ea670b442974b53935d1edc7fd64eb21e047a839171b9190a4506001610eb5565b6146ae614c5d565b60025f5160206159cb5f395f51905f5255565b6040805160208101829052601160608201527054454e414e545f41444d494e5f524f4c4560781b60808201529081018290525f9060a001614587565b6040805160208101829052601360608201527254454e414e545f534c41534845525f524f4c4560681b60808201529081018290525f9060a001614587565b5f807f5a2a29527149cfad2193f6f6cc0087ff61ae917e661c07c22456d63a5183659c853560208701356147726040890189615772565b60405161478092919061598d565b604051908190039020606089013560808a01356147a360c08c0160a08d016157b5565b6147b360e08d0160c08e016157b5565b6040805160208101999099528801969096526060870194909452608086019290925260a085015260c084015263ffffffff90811660e08481019190915291166101008381019190915290870135610120830152860135610140820152610160015b6040516020818303038152906040528051906020012090505f6148717f00000000000000000000000000000000000000000000000000000000000000008360405161190160f01b8152600281019290925260228201526042902090565b90506148b485858080601f0160208091040260200160405190810160405280939291908181526020018383808284375f920191909152508593925050614c8e9050565b92506001600160a01b0383166148dd57604051638baa579f60e01b815260040160405180910390fd5b50509392505050565b5f6148f260018361599c565b61ffff166001901b9050919050565b5f838152600f6020908152604080832085845290915290205460ff161561492757505050565b5f83815260106020908152604080832063ffffffff851684528252918290208251608081018452815460ff1615158082526001830154938201939093526002820154938101939093526003015460608301526149a45750505f918252600f602090815260408084209284529190529020805460ff19166001179055565b6040808201515f868152600d60209081528382208783528152838220546060860151898452600e83528584208985529092529390912054919092108015929182169091149082906149f25750805b15614a7d575f868152600f602090815260408083208884528252808320805460ff19166001179055888352600d8252808320888452825280832054898452600e835281842089855290925291829020549151879289927faddff4259d1ed72121575a0a8627d986e7e63da19e837c06d33a958c61e730329261358d9290918252602082015260400190565b505050505050565b604080517f362c00056d2ad738d0353633a51831825692201225c7f50e6206735b03e575e06020828101919091528535828401528501356060828101919091529185013560808201529084013560a08201525f90819060c001614814565b5f84815260116020908152604080832063ffffffff8716845282528083206001600160a01b038616845290915281205460ff16614b335760405163fbf23f3360e01b815260040160405180910390fd5b5f8581526004602090815260408083206001600160a01b0387168452909152902060020154821115614ba7575f8581526004602081815260408084206001600160a01b03881685529091529182902060020154915162c09e3560e81b81526113779291859101918252602082015260400190565b5f85815260126020908152604080832063ffffffff8816845282528083206001600160a01b038716845290915290205461ffff166001811080614bef575061010061ffff8216115b15614c0d57604051636005ea8760e11b815260040160405180910390fd5b614c16816148e6565b9695505050505050565b614c2a8282612cdc565b614c595760405163e2517d3f60e01b81526001600160a01b038216600482015260248101839052604401611377565b5050565b5f5160206159cb5f395f51905f5254600203614c8c57604051633ee5aeb560e01b815260040160405180910390fd5b565b5f5f5f5f614c9c8686614cb6565b925092509250614cac8282614cff565b5090949350505050565b5f5f5f8351604103614ced576020840151604085015160608601515f1a614cdf88828585614db7565b955095509550505050614cf8565b505081515f91506002905b9250925092565b5f826003811115614d1257614d126159b6565b03614d1b575050565b6001826003811115614d2f57614d2f6159b6565b03614d4d5760405163f645eedf60e01b815260040160405180910390fd5b6002826003811115614d6157614d616159b6565b03614d825760405163fce698f760e01b815260048101829052602401611377565b6003826003811115614d9657614d966159b6565b03614c59576040516335e2f38360e21b815260048101829052602401611377565b5f80807f7fffffffffffffffffffffffffffffff5d576e7357a4501ddfe92f46681b20a0841115614df057505f91506003905082614e75565b604080515f808252602082018084528a905260ff891692820192909252606081018790526080810186905260019060a0016020604051602081039080840390855afa158015614e41573d5f5f3e3d5ffd5b5050604051601f1901519150506001600160a01b038116614e6c57505f925060019150829050614e75565b92505f91508190505b9450945094915050565b508054614e8b906155d0565b5f825580601f10614e9a575050565b601f0160209004905f5260205f2090810190611eb991905b80821115614ec5575f8155600101614eb2565b5090565b80356001600160a01b0381168114614edf575f5ffd5b919050565b5f5f5f60608486031215614ef6575f5ffd5b8335925060208401359150614f0d60408501614ec9565b90509250925092565b5f60208284031215614f26575f5ffd5b81356001600160e01b031981168114614f3d575f5ffd5b9392505050565b803563ffffffff81168114614edf575f5ffd5b5f5f60408385031215614f68575f5ffd5b82359150614f7860208401614f44565b90509250929050565b5f5f60408385031215614f92575f5ffd5b50508035926020909101359150565b80358015158114614edf575f5ffd5b5f5f83601f840112614fc0575f5ffd5b50813567ffffffffffffffff811115614fd7575f5ffd5b602083019150836020828501011115614fee575f5ffd5b9250929050565b5f5f5f5f5f60808688031215615009575f5ffd5b8535945061501960208701614ec9565b935061502760408701614fa1565b9250606086013567ffffffffffffffff811115615042575f5ffd5b61504e88828901614fb0565b969995985093965092949392505050565b5f81518084528060208401602086015e5f602082860101526020601f19601f83011685010191505092915050565b60208152815160208201525f602083015161012060408401526150b461014084018261505f565b905060408401516150d060608501826001600160a01b03169052565b506060840151608084015260808401516150ee60a085018215159052565b5060a084015160c084015260c084015160e084015260e084015161511b61010085018263ffffffff169052565b5061010084015163ffffffff8116610120850152509392505050565b5f5f5f60408486031215615149575f5ffd5b83359250602084013567ffffffffffffffff811115615166575f5ffd5b61517286828701614fb0565b9497909650939450505050565b5f6020828403121561518f575f5ffd5b5035919050565b5f5f604083850312156151a7575f5ffd5b82359150614f7860208401614ec9565b5f5f5f5f606085870312156151ca575f5ffd5b843593506151da60208601614ec9565b9250604085013567ffffffffffffffff8111156151f5575f5ffd5b61520187828801614fb0565b95989497509550505050565b803561ffff81168114614edf575f5ffd5b5f5f5f5f5f60a08688031215615232575f5ffd5b8535945061524260208701614f44565b935061525060408701614ec9565b925061525e60608701614fa1565b915061526c6080870161520d565b90509295509295909350565b5f5f5f6060848603121561528a575f5ffd5b8335925060208401359150614f0d6040850161520d565b5f5f5f606084860312156152b3575f5ffd5b833592506152c360208501614ec9565b9150614f0d60408501614ec9565b89815261012060208201525f6152eb61012083018b61505f565b6001600160a01b03999099166040830152506060810196909652931515608086015260a085019290925260c084015263ffffffff90811660e0840152166101009091015292915050565b5f5f5f5f60608587031215615348575f5ffd5b8435935060208501359250604085013567ffffffffffffffff8111156151f5575f5ffd5b60208152815160208201525f60208301516080604084015261539160a084018261505f565b9050604084015160608401526060840151151560808401528091505092915050565b5f5f5f604084860312156153c5575f5ffd5b833567ffffffffffffffff8111156153db575f5ffd5b840161012081870312156153ed575f5ffd5b9250602084013567ffffffffffffffff811115615166575f5ffd5b5f5f60408385031215615419575f5ffd5b82359150614f7860208401614fa1565b5f5f5f83850360a081121561543c575f5ffd5b6080811215615449575f5ffd5b50839250608084013567ffffffffffffffff811115615166575f5ffd5b5f5f5f5f5f5f60c0878903121561547b575f5ffd5b8635955061548b60208801614f44565b945061549960408801614fa1565b959894975094956060810135955060808101359460a0909101359350915050565b5f5f5f5f5f608086880312156154ce575f5ffd5b853594506154de60208701614ec9565b935061502760408701614ec9565b5f5f5f606084860312156154fe575f5ffd5b833592506152c360208501614f44565b5f5f5f5f5f60808688031215615522575f5ffd5b8535945061553260208701614ec9565b935060408601359250606086013567ffffffffffffffff811115615042575f5ffd5b848152608060208201525f61556c608083018661505f565b60408301949094525090151560609091015292915050565b81835281816020850137505f828201602090810191909152601f909101601f19169091010190565b8315158152604060208201525f6155c7604083018486615584565b95945050505050565b600181811c908216806155e457607f821691505b60208210810361560257634e487b7160e01b5f52602260045260245ffd5b50919050565b634e487b7160e01b5f52604160045260245ffd5b601f82111561160a57805f5260205f20601f840160051c810160208510156156415750805b601f840160051c820191505b818110156140ea575f815560010161564d565b815167ffffffffffffffff81111561567a5761567a615608565b61568e8161568884546155d0565b8461561c565b6020601f8211600181146156c0575f83156156a95750848201515b5f19600385901b1c1916600184901b1784556140ea565b5f84815260208120601f198516915b828110156156ef57878501518255602094850194600190920191016156cf565b508482101561570c57868401515f19600387901b60f8161c191681555b50505050600190811b01905550565b604081525f61572e604083018587615584565b9050826020830152949350505050565b838152604060208201525f6155c7604083018486615584565b602081525f61576a602083018486615584565b949350505050565b5f5f8335601e19843603018112615787575f5ffd5b83018035915067ffffffffffffffff8211156157a1575f5ffd5b602001915036819003821315614fee575f5ffd5b5f602082840312156157c5575f5ffd5b614f3d82614f44565b634e487b7160e01b5f52601160045260245ffd5b80820180821115610eb557610eb56157ce565b60a081525f61580860a08301888a615584565b602083019690965250604081019390935263ffffffff91821660608401521660809091015292915050565b67ffffffffffffffff83111561584b5761584b615608565b61585f8361585983546155d0565b8361561c565b5f601f841160018114615890575f85156158795750838201355b5f19600387901b1c1916600186901b1783556140ea565b5f83815260208120601f198716915b828110156158bf578685013582556020948501946001909201910161589f565b50868210156158db575f1960f88860031b161c19848701351681555b505060018560011b0183555050505050565b634e487b7160e01b5f52603260045260245ffd5b8082028115828204841417610eb557610eb56157ce565b5f8261593257634e487b7160e01b5f52601260045260245ffd5b500490565b81810381811115610eb557610eb56157ce565b61ffff8716815285602082015284604082015260018060a01b038416606082015260a060808201525f61598160a083018486615584565b98975050505050505050565b818382375f9101908152919050565b61ffff8281168282160390811115610eb557610eb56157ce565b634e487b7160e01b5f52602160045260245ffdfe9b779b17422d0df92223018b32b4d1fa46e071723d6817e2486d003becc55f00c974b626665c0d05de92a6d1c80baa1fecf1d44a7fe6c4fb1dcbe04cddebb540a264697066735822122017f2688e88ef15b0c421e4475c2046d6e5cf3a5b221f11ebf8d215ffbeb1b62064736f6c634300081c0033",
  "linkReferences": {},
  "deployedLinkReferences": {},
  "immutableReferences": {
    "7589": [
      {
        "length": 32,
        "start": 18482
      }
    ]
  },
  "inputSourceName": "project/contracts/VoucherProtocol.sol",
  "buildInfoId": "solc-0_8_28-8a9a396ae6ba5d9aa946ba08f958aa78f1aff204"
}